:10000000F8FF022099010000195B0100D15A01009C
:10001000D15A0100D15A0100D15A0100D15A010030
:10002000D15A0100D15A0100D15A0100195B0100D7
:10003000195B0100D15A0100A99E010019A4010019
:10004000195B0100195B0100195B0100195B0100DC
:10005000195B0100195B0100195B0100195B0100CC
:10006000195B0100195B0100195B0100195B0100BC
:10007000195B0100195B0100195B0100195B0100AC
:10008000195B0100195B0100195B0100195B01009C
:10009000195B0100195B0100195B0100195B01008C
:1000A000F1E0010029E20100195B0100195B010088
:1000B000195B0100195B0100195B01007149010026
:1000C000195B010095610100195B010031F8000026
:1000D000195B0100950B0100195B0100F17700002D
:1000E000195B0100195B0100195B0100195B01003C
:1000F000195B0100195B0100195B0100195B01002C
:100100000D7C0100217C0100357C0100497C01004F
:10011000E5D5010011FB0000195B0100195B01002E
:10012000195B0100195B0100195B0100195B0100FB
:10013000195B0100195B0100195B0100195B0100EB
:1001400039800100195B01004D6D0100195B010050
:1001500045390100195B0100195B0100195B0100C1
:10016000195B01005D78000069E30100195B010083
:10017000195B0100195B0100195B0100195B0100AB
:10018000195B0100195B0100195B0100195B01009B
:10019000195B0100195B0100584B4CF2205210B55D
:1001A0001A804DF628121A8000BF00BF15F0B8FC67
:1001B000534B4FF030621A60524A9A60524ADA60EA
:1001C000524B4FF470021A60514A136813F4807353
:1001D00004D150490B604FF4A85313604E4B1A786A
:1001E000110703D51A7842F008021A704B4B4C499C
:1001F0002A221A704B4A4C4B8B4204D252F8040FFD
:1002000043F8040BF8E7494B494900228B4202D2DC
:1002100043F8042BFAE74749474A002352F82300E2
:1002200041F823000133662BF8D1444B444A802126
:1002300003F8011B9342FBD1424B3E4A1A60424BEA
:100240008A221A70A3F5805324225A70A0221A70B1
:100250009A799207FCD59A79D406FCD43B4A9379D3
:1002600003F00C03082B394BF9D103221A714622F3
:100270005A719A799006FCD5344A9179334B4906E4
:10028000FBD5334A4FF08271116009215160202261
:100290001A709A7902F00C020C2AFAD12D4B2E4AD0
:1002A0001A602E4B2E4A1A6000225A60072243F829
:1002B000042C2C4AC3F80C2D62B610F023FE154B0B
:1002C0001B68DA0705D5284810F0D6FD274B284AC9
:1002D0001A60284B1B785B0609D5244C244B2268F6
:1002E0009A4204D1204810F0C7FD0023236020F07B
:1002F00061FF15F01BFC17F0E3FEFEE70E20054042
:1003000030800440823F04000100002B88ED00E0B3
:1003100010D0034014D0034002D0074000E0074053
:100320006016FF1F74C50200F806FF1F6016FF1F4E
:10033000D40600200002FF1F0000000000E400E0DF
:1003400056E400E008ED00E00050064000400640A2
:100350004480044004800440C010050014E000E024
:10036000BFD401000000202000DD68501CE00340E5
:10037000A5C3945A00F00740FFFFFFFFFFFFFFFFF8
:10038000FFFFFFFFFFFFFFFFFFFFFFFFFFFFFFFF7D
:10039000FFFFFFFFFFFFFFFFFFFFFFFFFFFFFFFF6D
:1003A000FFFFFFFFFFFFFFFFFFFFFFFFFFFFFFFF5D
:1003B000FFFFFFFFFFFFFFFFFFFFFFFFFFFFFFFF4D
:1003C000FFFFFFFFFFFFFFFFFFFFFFFFFFFFFFFF3D
:1003D000FFFFFFFFFFFFFFFFFFFFFFFFFFFFFFFF2D
:1003E000FFFFFFFFFFFFFFFFFFFFFFFFFFFFFFFF1D
:1003F000FFFFFFFFFFFFFFFFFFFFFFFFFFFFFFFF0D
:10040000FFFFFFFFFFFFFFFFFFFFFFFFDEF9FFFF23
:1004100010B5054C237833B9044B13B10448AFF33E
:1004200000800123237010BD6016FF1F0000000034
:1004300070C50200084B10B51BB108490848AFF35E
:1004400000800848036803B910BD074B002BFBD0A0
:10045000BDE81040184700BF000000006416FF1FF1
:1004600070C502006016FF1F00000000704700BF4B
:1004700070B5164E164D17493068C0B0012202F013
:10048000EDF80FCD01AC0FC40FCD0FC40FCD0FC4CD
:1004900095E8070003C4104D227001A930680122BD
:1004A00002F0DCF80FCD01AC0FC40FCD0FC40FCD9F
:1004B0000FC42B6824F8023B01A91B0C3068237081
:1004C000012202F0CBF840B070BD00BF7C010020DB
:1004D000047E0200D87D0200407E020038B504464A
:1004E0000D4613F03DFC0028FBD02068B0F5805F7E
:1004F00003DA294613F02CFD20680430206038BD53
:1005000038B504460D4613F02BFC0028FBD02068BC
:10051000B0F5805F03DA294613F02AFC2068013029
:10052000206038BD38B504460D4613F019FC00288C
:10053000FBD02068B0F5805F03DA294613F07EFC1B
:1005400020680230206038BD38B504680546204672
:10055000043413F047FB2C6038BD00BF38B5046885
:1005600005462046013413F08DFA2C6038BD00BFDB
:1005700038B5046805462046023413F0D9FA2C60D9
:1005800038BD00BF2DE9F043494D86230360B5B067
:100590000446286802F054F8064613F0E1FB0028F0
:1005A000FBD02368B3F5805F04DA1846314613F0B8
:1005B000CFFC23683F4A404E1068043323600CF0A0
:1005C00033F801223D49286802F048F83C4B18688E
:1005D00009F00AFE01223B49286802F03FF83A4B35
:1005E000186803F0E5F8394B18680CF08BFC384BB1
:1005F00018680EF0E9FB306807F0E4F8354B18682E
:100600000AF004F9344B186800F030FB334B1868DB
:1006100006F0B2FB324B186808F0EAF83368D4F8F9
:1006200000909B688222002B226020DDA9F18206C7
:1006300013F096FB0028FBD02068B0F5805F31DB1B
:1006400004304FF480510DF108082060254A0091D4
:1006500033464046C82121F063FCC4F8009041466F
:100660002868012201F0FAFF35B0BDE8F08313F0ED
:1006700077FB0028FBD02068B0F5805F02DA00210C
:1006800013F066FC184F0FCF0DF1080846460FC651
:100690000FCF0FC60FCF0FC63B6826F8023B1B0CCF
:1006A0003370DAE7314613F053FC2068C8E700BF27
:1006B0007C0100204401002058010020747E0200CB
:1006C000480100208C7E02005001002054010020CF
:1006D0005C01002068010020600100204C01002026
:1006E00040010020D47E0200A07E02002DE9F041EE
:1006F00004468220B6B0206013F074FA06468620C5
:10070000206013F06FFA4D4D8A2307462360286856
:1007100001F096FF33460190494A0097C82104A88A
:1007200021F0FEFB012204A9286801F097FF721E48
:1007300040F6FE739A4200D87FB9424A0097C8211A
:10074000334604A821F0ECFB04A92868012201F03B
:1007500085FF012036B0BDE8F081286801F070FF08
:10076000B8421FD0286801F06BFF804638461FF062
:100770000DFE0022344B1FF0A9FFCDE902014046D7
:100780001FF014FE0022304B1FF0A0FF2F4ACDE9CE
:100790000001C82104A821F0C3FB012204A9286894
:1007A00001F05CFF2A4B18680BF05EFF294B1868BC
:1007B00009F07AFC284B186803F034F8274B1868C6
:1007C0000CF0BCFB264B18680EF000FB254B18689C
:1007D00006F0D6FF244B18680AF00AF8234B186875
:1007E00000F036FA224B186806F0CEFA214B186852
:1007F00007F0E4FF2368823BB342AAD08223236040
:1008000013F0AEFA0028FBD02068B0F5805F03DA61
:10081000002113F09DFB2068174A04302060334606
:100820000090C82104A821F07BFB04A928680122BC
:1008300001F014FF002036B0BDE8F0817C010020FB
:10084000007F0200D87F020000002440487F0200A1
:1008500044010020480100205001002054010020E4
:100860005C01002058010020680100206001002088
:100870004C010020400100208C7F020038B503228B
:100880000C46054608460B4921F048FE60B120465B
:100890000322094921F042FE08B1002038BD284654
:1008A000FFF770FE012038BD2846FFF71FFF01202B
:1008B00038BD00BF2480020028800200036870B5A4
:1008C0001446234440F2FD7293420FDC05460E4667
:1008D00013F046FA0028FBD030462246296813F070
:1008E000F9FB2B681C442C60012070BD002070BDFA
:1008F000F8B5036817463B4440F2FD72934215DC9D
:1009000006460D4613F02CFA0028FBD0002FC8BF76
:100910007F1909DD3468204613F0B4F801343460DF
:1009200005F8010BBD42F5D10120F8BD0020F8BD4E
:1009300013F060B8FFFFFFFF30B40122074D084CF1
:1009400002610021002245618461C163027042633B
:1009500080F83820027730BC704700BF0000C040EC
:10096000BF0E1C3E10B5044643F2D4000FF072FED9
:1009700010200FF0CFFE10F09BF80023E36010BDB5
:1009800030B5BFB00378044680690A931FF020FD9C
:10099000CDE9080160691FF01BFD2569144AFA239F
:1009A00003FB05F382FB0352DB17CDE90601C3EB22
:1009B00062101FF0FBFC0F4B00221FF087FECDE9F9
:1009C0000401A0681FF004FDCDE9020160681FF07A
:1009D000FFFC094ACDE900010CA8C82121F0A0FACA
:1009E000064B0CA91868012201F038FE3FB030BD5B
:1009F0001F85EB5100408F402C8002007C010020BD
:100A000010B5094C09492068012201F027FE206831
:100A10000749012201F022FE206806490122BDE8B3
:100A2000104001F01BBE00BF7C010020508002007E
:100A300074800200D080020070B50322BEB00C4664
:100A4000054608462A4921F069FDD0B10522294909
:100A5000204621F063FD18B1002318463EB070BD5A
:100A60003EAE601D46F8C80D314622F0D5FF314636
:100A700068610C9822F0D0FF0123A86118463EB0AF
:100A800070BD2B78A8690A931FF0A2FCCDE908017C
:100A900068691FF09DFC2C69174AFA2303FB04F3D5
:100AA00082FB0342DB17CDE90601C3EB62101FF0A6
:100AB0007DFC124B00221FF009FECDE90401A8685D
:100AC0001FF086FCCDE9020168681FF081FC0C4A2A
:100AD000CDE900010CA8C82121F022FA094B0CA98C
:100AE0001868012201F0BAFD012318463EB070BD1E
:100AF00020810200288102001F85EB5100408F40B9
:100B00002C8002007C010020F8B504460FF0EAFFBB
:100B100080B94B4BE2681B68013B9B1AC62B94BF04
:100B200001230023237004D900232061A3606360A4
:100B3000F8BDF8BD656B0FF0E1FF25442877636BC6
:100B4000E218117F0D2916D05BB194F838207AB9DC
:100B5000092BC9BF0023E2186363224600231377E1
:100B6000F8BD217F52295ED094F838100029F5D0C5
:100B700001336363ECE70021117794F83820002AF1
:100B80004AD0023B052B47D82D48E26803682D4D1B
:100B90000068E0609A1AFA2303FB02F385FB030561
:100BA000DB17C3EB65156B1EB3F5F97F226133D8F4
:100BB0000A2204F11D0022F0EDFF1FF0F7FB1EA337
:100BC000D3E900231FF058FC1FF04EFFE16B0646EF
:100BD0001FF09EFFA169E663074630461FF098FFAD
:100BE000626B606004F11C01013204F1260020F008
:100BF0003DFE27F00040144920F032FAB8B12846F3
:100C000020F03CF80146384620F040F90F4920F02A
:100C100089F80122A06000E000220023227084F8FD
:100C200038306363F8BD012284F83820A0E7002340
:100C3000A3600122F1E700BFA60A462575029A3F8C
:100C4000340100201F85EB510000A04100007A44D0
:100C500038B5054D04462868FFF776FCA061286882
:100C6000FFF772FC606138BD6C01002038B5064C9E
:100C7000816905462068FFF731FC69692068BDE895
:100C80003840FFF72BBC00BF6C010020FFFFFFFFC7
:100C90000449C1604FF07E520021017082604260C1
:100CA000704700BF0AD7233B2DE9F041416004465D
:100CB0000F4682600021184690461E4620F0DAF961
:100CC00078B90346002523703046294620F0D2F932
:100CD00050B94FF07E5325616561A361E361BDE8C2
:100CE000F0814FF00103EDE7414640461FF012FF4F
:100CF000E668314680461FF00DFF41460546A0617B
:100D000030461FF005FF294620F0C0F83946E06163
:100D100038461FF0FFFE0146074630461FF0FAFE38
:100D2000294620F0B3F83946206130461FF0F0FE26
:100D3000294620F0ABF86061BDE8F081F8B5037892
:100D40003BB94FF07E5200238261C261036143616F
:100D5000F8BD8168044608461FF0DCFEE6683146AF
:100D600007461FF0D7FE39460546A06130461FF002
:100D7000CFFE294620F08AF86168E06108461FF03E
:100D8000C9FE0146074630461FF0C4FE294620F042
:100D90007DF83946206130461FF0BAFE294620F022
:100DA00075F86061F8BD00BF00230362436283628F
:100DB000C3627047037870B5044613B90020A0627F
:100DC00070BDC069E16A256A00F100401FF0AAFF0A
:100DD0002169064628461FF0A5FF014630461FF050
:100DE00099FE616A064660691FF09CFF0146304625
:100DF0001FF090FE6562E062A06270BD2DE9F043D5
:100E00000E4683B0044601A93046002222F0C2FEFD
:100E1000019D031C18BF0123AE4223700ED303BBF8
:100E20004FF07E520023A261E26123616361AE4212
:100E300034BF2846002003B0BDE8F083284601A94E
:100E400022F0EAFD2F46019D6060AF422E4632D26D
:100E5000284601A922F0E0FD2378019DA060002B27
:100E6000DED0A16808461FF055FED4F80C8041463C
:100E700081461FF04FFE49460746A06140461FF0DD
:100E800047FE394620F002F86168E06108461FF02D
:100E900041FE0146814640461FF03CFE39461FF0A8
:100EA000F5FF4946206140461FF032FE39461FF0EB
:100EB000EDFF6061BBE73E462378B0E7F0B504463E
:100EC00085B08068277816460D461FF081FACDE977
:100ED000020160681FF07CFA3B46CDE90001054A3B
:100EE0003146284621F01CF8284605B0BDE8F04000
:100EF00021F0A6BA3081020038B5037803B938BDB5
:100F0000054D416804462868FFF7E8FA2868A1689B
:100F1000BDE83840FFF7E2BA6C010020F8B503786D
:100F200004463BB94FF07E520023A261E261236187
:100F30006361F8BD194D2868FFF706FB60602868FB
:100F4000FFF702FB2378A060002BEBD001461FF0D7
:100F5000E1FDE668314607461FF0DCFD39460546EF
:100F6000A06130461FF0D4FD29461FF08FFF616855
:100F7000E06108461FF0CEFD0146074630461FF0EF
:100F8000C9FD29461FF082FF3946206130461FF017
:100F9000BFFD29461FF07AFF6061F8BD6C0100209B
:100FA00030B4074A074C82604FF07E550022012181
:100FB0004560C46041700270027430BC704700BF6D
:100FC0000AD7233B0024744938B50478C2604160D5
:100FD0003CB94FF07E520023C261026243618361DB
:100FE00038BD0446084615461FF094FD0A4B23629F
:100FF0000146E061A0681FF049FF08496061A061F7
:10100000284620F02DF84FF0010308B1237438BDB5
:101010000346237438BD00BF000080BF0000C642F5
:101020002DE9F04383B002AF0E4647F8041D044695
:1010300039463046002222F0ADFD019D003018BF38
:101040000120AE42207010D32378002B32D14FF014
:101050007E520023E26122626361A361AE4234BF2B
:101060002846002003B0BDE8F0832846394622F028
:10107000D3FCA846019D6060A845A94641D22846F8
:10108000394622F0C9FC2049E06005461FF0E8FF20
:1010900048BB019D2E46A94531D22846394600223B
:1010A00022F078FD2378019D003018BF0120607088
:1010B000002BCCD0616808461FF02CFD134B236237
:1010C0000146E061A0681FF0E1FE11496061A06186
:1010D000E0681FF0C5FF4FF0010308B12374BDE7BE
:1010E00003462374BAE7284600211FF0CDFF019D77
:1010F00018B101232E462374CDE72E46CBE74E468A
:10110000A2E74646A0E700BF00247449000080BF64
:101110000000C64270B5037C86B004460D461646F4
:10112000CBB1C0681FF054F902460B466178606885
:101130000491CDE902231FF04BF923780A4ACDE947
:1011400000013146284620F0EBFE284606B0BDE8F7
:10115000704021F075B902A3D3E90023E6E700BF90
:101160000000000080842E413C81020003783BB9DE
:101170004FF07E520023C261026243618361704777
:10118000416810B5044608461FF0C4FC0A4B2362B0
:101190000146E061A0681FF079FE08496061A06126
:1011A000E0681FF05DFF4FF0010308B1237410BD2C
:1011B0000346237410BD00BF000080BF0000C6427C
:1011C000002343628362C36203637047F8B5037808
:1011D0003BB30446006A216B676A00F100401FF0D0
:1011E000A1FD6169054638461FF09CFD0146284671
:1011F0001FF090FCA16A0546A0691FF093FD01460F
:1012000028461FF087FC237CE062054633B1E66880
:1012100031461FF043FF38B1E66235462563A762C9
:10122000F8BD0023C362F8BD06F1004631462846EA
:101230001FF016FF0028EFD1F0E700BF38B50378A4
:1012400003B938BD054D416804462868FFF746F9E3
:101250002868E168BDE83840FFF740B96C0100201C
:1012600038B5037804463BB94FF07E520023E26163
:1012700022626361A36138BD124D2868FFF764F9EB
:1012800060602868FFF760F92378E0600546002B6E
:10129000EAD0616808461FF03DFC0B4B2362014613
:1012A000E061A0681FF0F2FD08496061A061284676
:1012B0001FF0D6FE4FF0010308B1237438BD03467A
:1012C000237438BD6C010020000080BF0000C642BE
:1012D000F8B5044601254FF07E561F4B1F4A84F88F
:1012E0006950002700251E4820626267E26167613D
:1012F00063642367C4F8A830C4F8D830C4F8083150
:1013000084F8385084F8685084F8785084F89C50F9
:1013100084F8CC5084F8FC50257025762664E6636A
:10132000E666C4F8A460C4F8A060C4F8D460C4F849
:10133000D060C4F80461C4F80061E660A01C082213
:1013400021F03CF9257466616562A562E56225635A
:1013500084F834502046F8BD0AD7233B0024744952
:10136000002474C900238365C36503664366C0F81F
:101370008C30C0F89030C0F89430C0F89830C0F885
:10138000BC30C0F8C030C0F8C430C0F8C830C0F8B5
:10139000EC30C0F8F030C0F8F430C0F8F830C0F8E5
:1013A0001C31C0F82031C0F82431C0F82831704712
:1013B0002DE9F04784B00F46019106460C4600E047
:1013C00001942546013428781FF034FF0028F7D116
:1013D00006F10208404621F033F841460246044631
:1013E000384621F09BF8B0F100080CBF0127002718
:1013F00003D0384604B0BDE8F08725440A222846C9
:1014000002A9019522F0C6FB029B019A003018BF89
:10141000012093423070ECD9184602A9019322F0C2
:10142000FBFA0299019BF0609942E2D906F168004B
:10143000FFF7F6FD04460190002800F0DE804246EA
:1014400003A922F0A7FB039D031C18BF0123AC4294
:1014500086F89C30A846C0F0BB80002B40F08C8101
:101460004FF07E520023C6F8B420C6F8B820C6F864
:10147000AC30C6F8B030A542A84640F220820195B3
:10148000002D00F02B822846002203A922F082FBC7
:10149000039C031C18BF0123A04586F8CC302546C9
:1014A000C0F08180002B40F00D814FF07E52002370
:1014B000C6F8E420C6F8E820C6F8DC30C6F8E0300C
:1014C0004445F36A40F2F4810194002B00F0BE81A0
:1014D00096F8CC304FF00008C6F8D080002B40F0D2
:1014E0007B814FF07E53C6F8DC80C6F8E08025464D
:1014F000C6F8E430C6F8E830002D00F0DE810022A6
:1015000003A9284622F046FB039C031C18BF0123B5
:10151000AC4286F83830A04632D8002B40F0028129
:101520004FF07E52002332657265B364F364AC42BF
:101530008CBF204600200190002800F0BE810022D0
:1015400002A922F027FB019B003018BF0120307652
:1015500013B10298984252D81A7832B9B24BB349B3
:101560001868012201F07AF843E718460A220021A0
:1015700022F010FB003018BF012086F8340038E755
:10158000204603A922F048FA039DF063A8452C46A3
:1015900080F0A68103A9284622F03EFA96F838305A
:1015A000039C3064B9E7204603A922F035FA039C76
:1015B000C6F8D000A542A04680F08881204603A945
:1015C00022F02AFA96F8CC30039CC6F8D40069E7DA
:1015D000284603A922F020FA039DC6F8A000A845DA
:1015E0002C4680F07781284603A922F015FA96F858
:1015F0009C30039DC6F8A4002FE70346ACE702A980
:1016000022F00AFA02A90446029822F005FA0546D9
:10161000014620461FF042FD002800F0098104F138
:10162000004325461C46019B3462F561002B93D094
:101630000298984290D90A2201A922F0ABFA003010
:1016400018BF0120307401A9019822F0D3F91FF0CE
:101650000BFA019D70610022284603A922F09AFA34
:10166000039C031C18BF0123A54286F8FC30A0464A
:1016700013D3002B40F0EC804FF07E520023C6F8CD
:101680001421C6F81821C6F80C31C6F81031AC4246
:101690008CBF2346002301935EE7204603A922F076
:1016A000BBF9039CC6F80001A045254680F00A81DD
:1016B000204603A922F0B0F996F8FC30039CC6F846
:1016C0000401D6E7D6F8D41008461FF023FAD6F85E
:1016D000D890494682461FF01DFA51460546C6F885
:1016E000E40048461FF014FA29461FF0CFFBD6F855
:1016F000D010C6F8E80008461FF00CFA01468246F2
:1017000048461FF007FA29461FF0C0FB5146C6F8AD
:10171000DC0048461FF0FCF929461FF0B7FBC6F86D
:10172000E000CDE6316C08461FF0F4F9D6F844909D
:10173000494682461FF0EEF95146804630654846DC
:101740001FF0E6F941461FF0A1FBF16B70650846FA
:101750001FF0E0F90146824648461FF0DBF941469A
:101760001FF094FB5146B06448461FF0D1F9414642
:101770001FF08CFBF064DAE6D6F8A41008461FF0E0
:10178000C9F9D6F8A890494682461FF0C3F95146D8
:101790008046C6F8B40048461FF0BAF941461FF02B
:1017A00075FBD6F8A010C6F8B80008461FF0B2F9CD
:1017B0000146824648461FF0ADF941461FF066FBE0
:1017C0005146C6F8AC0048461FF0A2F941461FF04A
:1017D0005DFBC6F8B0004EE6D6F8D41008461FF000
:1017E00099F9D6F8D850294682461FF093F9514608
:1017F0008146C6F8E40028461FF08AF949461FF0E2
:1018000045FB4146C6F8E80028461FF083F94946E3
:101810001FF03CFB4946C6F8DC0028461FF036FBAB
:101820002546C6F8E00067E67C0100204C810200F6
:10183000294620461FF00AFC00283FF4F4AE4FF082
:101840007E5128461FF064F90446ECE6254653E62F
:10185000D6F8041108461FF05DF9D6F808914946FC
:1018600082461FF057F951468046C6F81401484693
:101870001FF04EF941461FF009FBD6F80011C6F8DB
:10188000180108461FF046F90146824648461FF0F7
:1018900041F941461FF0FAFA5146C6F80C01484694
:1018A0001FF036F941461FF0F1FAC6F81001EEE6D6
:1018B00000240194002B7FF40BAE00234CE60023A0
:1018C0000193FAE7454696F8FC30D2E6A84696F82A
:1018D000CC30E7E5444696F89C30BEE52B463BE627
:1018E000454696F8383018E62DE9F043054687B0AE
:1018F000C06817460E461EF06BFD2A780092CDE9AF
:101900000201AB1C39463046674A20F009FB95F8C6
:101910007830044606EB0008C0EB0709002B00F006
:10192000BB80686F1EF054FD02460B4695F86910A7
:10193000E86E0491CDE902231EF04AFD95F8683067
:101940005A4ACDE900014946404620F0E9FA4046AE
:1019500020F076FD0444D5F8A40095F89C901EF084
:1019600037FDCDE90201D5F8A0001EF031FD06EBF0
:1019700004083A1B4B46CDE90001114640464C4A4B
:1019800020F0CEFA404620F05BFD0444D5F8D400A8
:1019900095F8CC901EF01CFDCDE90201D5F8D000E1
:1019A0001EF016FD06EB04083A1B4B46CDE900017C
:1019B000114640463E4A20F0B3FA404620F040FD32
:1019C0000444286C95F838901EF002FDCDE9020120
:1019D000E86B1EF0FDFC06EB04083A1B4B46CDE914
:1019E000000111464046324A20F09AFA404620F063
:1019F00027FD0444E86995F818801EF0E9FCCDE95C
:101A00000201286A1EF0E4FCC4EB070E3219CDE98E
:101A10000001434671461046254A20F081FA0444ED
:101A2000686995F810801EF0D3FCC4EB070E3219DC
:101A30004346CDE90001714610461E4A20F070FA77
:101A40000444D5F8040195F8FC901EF0C1FCCDE9E2
:101A50000201D5F800011EF0BBFC06EB04083A1B9E
:101A6000CDE900014B4611464046114A20F058FA94
:101A7000404620F0E5FCE96A95F834300E4A0D1C2A
:101A8000044418BF0125391B3019009520F048FA8D
:101A9000204407B0BDE8F08301A3D3E9002345E764
:101AA0000000000080842E418C8102003C810200F5
:101AB0003081020098810200A081020010B4019CD4
:101AC000C46241628262036310BC70472DE9F84F23
:101AD000037C0446002B33D090F8FC30002B00F040
:101AE0004481436A416918681FF01CF90546D4F81F
:101AF0001801D4F82811C4F81C5100F100401FF05F
:101B000011F9D4F80C11064628461FF00BF90146CE
:101B100030461EF0FFFFD4F820110646D4F810011D
:101B20001FF000F9014630461EF0F4FF2378C4F898
:101B30002051C4F82401C4F828013BB9BDE8F88F4E
:101B40000023C0F824312378002BF7D094F83830E4
:101B5000002B40F0DB80636A1D6894F8CC30C4F839
:101B60002C51002B00F0F880E36A002B00F0548128
:101B7000A76A1968D4F8D0001FF0D4F839681EF0AD
:101B8000C9FF0546D4F8E800D4F8F810C4F8EC50C2
:101B900000F100401FF0C6F8D4F8DC1006462846D5
:101BA0001FF0C0F8014630461EF0B4FFD4F8F01024
:101BB0000646D4F8E0001FF0B5F8014630461EF0A6
:101BC000A9FFC4F8F05094F834A0D4F82C51C4F80C
:101BD000F4000646C4F8F800C4F83001BAF1000F6A
:101BE00024D0396828461EF093FF1EF0F1FBA4A311
:101BF000D3E90023804689461EF0CEFE002840F03F
:101C0000E88040464946A0A3D3E900231EF0A6FE83
:101C100060B128461EF0DCFB9DA3D3E900231EF033
:101C200079FA1EF021FF0546C4F82C0131462846FA
:101C30001EF06EFFE1681FF075F894F89C30C4F850
:101C4000340105463BB3D4F8B800D4F8C810C4F842
:101C5000BC5000F100401FF065F8D4F8AC10064607
:101C600028461FF05FF8014630461EF053FFD4F8B7
:101C7000C0100646D4F8B0001FF054F801463046B4
:101C80001EF048FFC4F8C050C4F8C400C4F8C8002F
:101C9000C4F83401054694F86830002B6DD06378A1
:101CA000C4F88C50002B40F08A80D4F88800D4F817
:101CB000981000F100401FF035F8E16F0646284605
:101CC0001FF030F8014630461EF024FFD4F8901083
:101CD0000646D4F880001FF025F8014630461EF075
:101CE00019FF94F87830C4F8940006464BB1676F3A
:101CF00039461FF0D3F9002800F08480C4F89470AE
:101D00003E46C4F89860C4F890505AE0636A606D2B
:101D10001E68616EA66500F100401FF003F8A16C1B
:101D2000054630461EF0FEFF014628461EF0F2FE34
:101D3000E16D0546E06C1EF0F5FF014628461EF0F9
:101D4000E9FE94F8CC30E665054620666066C4F886
:101D50002C01002B7FF408AFA76A94F834A03E68EA
:101D6000D4F82C51C4F8306138E7436A41691868E7
:101D70001EF0D8FFC4F82401E5E6C4F8385128461F
:101D8000D4F824111EF0C6FE237EC4F83C0105469B
:101D900083B1E66931461FF081F940BB266A2846C7
:101DA00031461FF05DF9226B38B301231660637072
:101DB000BDE8F88F226B10606370BDE8F88FD4F82F
:101DC0009460284631461EF0A5FE0546C4F8380149
:101DD000D5E728461EF0FCFA2DA3D3E900231EF018
:101DE00097F91EF041FE0546C4F82C011EE7226B50
:101DF000012316606370BDE8F88F002315606370DF
:101E0000BDE8F88F07F10047394630461FF028F942
:101E100000287FF473AF74E794F834A0A76ABAF18E
:101E2000000F39D1D4F8F810D7F800B0D4F8F0602A
:101E3000D4F8E830C4F8ECB003F100401EF072FFB3
:101E4000D4F8DC10804658461EF06CFF0146404630
:101E50001EF060FED4F8E010804630461EF062FFAF
:101E6000014640461EF056FEC4F8F0B00646C4F8DF
:101E7000F400C4F8F800C4F83001AFE6AFF3008016
:101E8000182D4454FB210940182D4454FB2109C04E
:101E9000182D4454FB211940D4F8F060D7F800B055
:101EA000314658461EF034FE1EF092FA28A3D3E9BC
:101EB0000023804689461EF06FFDE8B130461EF0D3
:101EC00087FA25A3D3E900231EF024F91EF0CCFDE8
:101ED000C4F8F0000646D4F8F8001EF079FA1EA304
:101EE000D3E900231EF016F91EF0BEFDC4F8F80079
:101EF0000146D7F800B09BE74046494618A3D3E90E
:101F000000231EF02BFD10B9D4F8F81090E73046EE
:101F10001EF05EFA10A3D3E900231EF0F9F81EF0BC
:101F2000A3FDC4F8F0000646D4F8F8001EF050FAFD
:101F300009A3D3E900231EF0EBF81EF095FDC4F8C9
:101F4000F8000146D7F800B072E700BFAFF3008099
:101F5000182D4454FB210940182D4454FB211940ED
:101F6000182D4454FB2109C090F86830017870B5F1
:101F700004460BB141F0020194F89C300BB141F0E2
:101F8000040194F8CC300BB141F0080194F83830DA
:101F90000BB141F01001237E0BB141F02001237CF5
:101FA0000BB141F0400194F8FC300BB141F08001DD
:101FB00094F834300BB141F48071324D2868FEF74B
:101FC000B1FA237863B9237E03B970BD216A28680A
:101FD000FEF784FAE1692868BDE87040FEF77EBA32
:101FE000E1682868FEF77AFA94F86830002B3FD150
:101FF00094F89C30002B30D194F8CC3013BB94F87B
:102000003830B3B9237C002BDDD0616928681D4EC0
:10201000FEF764FA94F8FC30002BD4D0D4F8001109
:102020003068FEF75BFA3068D4F80411FEF756FA10
:10203000C9E7E16B2868FEF751FA216C2868FEF7C2
:102040004DFADFE7D4F8D0102868FEF747FAD4F845
:10205000D4102868FEF742FAD1E7D4F8A010286817
:10206000FEF73CFAD4F8A4102868FEF737FAC3E765
:10207000E16E2868FEF732FA616F2868FEF72EFAE3
:10208000B6E700BF6C0100202DE9F041B14D0446D8
:102090002868FEF76DFAC0F3800200F00106C0F375
:1020A0004001C0F3C00384F89C20C0F30022C0F3B9
:1020B0000017267084F86810C0F38016C0F3C011B2
:1020C00084F8CC3084F83420C0F34013C20784F87D
:1020D0003870267484F8FC1023760AD43BB1286843
:1020E000FEF732FA20622868FEF72EFAE061BDE8BA
:1020F000F0812868FEF728FA94F86830E060002B39
:1021000038D14FF07E520023C4F88420C4F88820D0
:10211000E367C4F8803094F89C30002B40F0DB80FB
:102120004FF07E520023C4F8B420C4F8B820C4F89D
:10213000AC30C4F8B03094F8CC30002B40F08E8036
:102140004FF07E520023C4F8E420C4F8E820C4F81D
:10215000DC30C4F8E03094F83830002B4AD14FF02E
:102160007E52002322656265A364E364237C53BB33
:10217000237EB3E72868FEF7E7F9E0662868FEF7F4
:10218000E3F994F8683060670646002BB9D0E16E39
:1021900008461EF0BFFC704BC4F888300146C4F8F6
:1021A0008400206F1EF072FE6C49E067C4F8800066
:1021B00030461EF055FF4FF00103002800F0C880A4
:1021C00084F87830A7E72868624EFEF7BDF994F8E6
:1021D000FC306061002B40F0C3804FF07E51002244
:1021E000237EC4F81411C4F81811C4F80C21C4F8E3
:1021F000102173E72868FEF7A7F9E0632868FEF767
:10220000A3F994F838302064002BA8D001461EF0C2
:1022100081FC676C394680461EF07CFC41460646D0
:10222000206538461EF074FC31461EF02FFEE16B2F
:10223000606508461EF06EFC0146804638461EF07A
:1022400069FC31461EF022FE4146A06438461EF06D
:102250005FFC31461EF01AFEE06487E72868FEF74F
:1022600073F9C4F8D0002868FEF76EF994F8CC3002
:10227000C4F8D400002B3FF463AF01461EF04AFCC3
:10228000D4F8D870394680461EF044FC41460646D4
:10229000C4F8E40038461EF03BFC31461EF0F6FD63
:1022A000D4F8D010C4F8E80008461EF033FC01460C
:1022B000804638461EF02EFC31461EF0E7FD4146B2
:1022C000C4F8DC0038461EF023FC31461EF0DEFD6B
:1022D000C4F8E0003FE72868FEF736F9C4F8A0002C
:1022E0002868FEF731F994F89C30C4F8A400002B5C
:1022F0003FF416AF01461EF00DFCD4F8A870394625
:1023000080461EF007FC41460646C4F8B400384635
:102310001EF0FEFB31461EF0B9FDD4F8A010C4F843
:10232000B80008461EF0F6FB0146804638461EF00F
:10233000F1FB31461EF0AAFD4146C4F8AC00384618
:102340001EF0E6FB31461EF0A1FDC4F8B000F2E637
:10235000034635E76C010020000080BF0000C64244
:102360003068FEF7F1F8C4F800013068FEF7ECF8C9
:1023700094F8FC30C4F80401002B3FF42EAF014662
:102380001EF0C8FBD4F80871394680461EF0C2FB27
:1023900041460646C4F8140138461EF0B9FB3146E2
:1023A0001EF074FDD4F80011C4F8180108461EF0A0
:1023B000B1FB0146804638461EF0ACFB31461EF0AC
:1023C00065FD4146C4F80C0138461EF0A1FB3146BC
:1023D0001EF05CFD237EC4F810017FE638B5841C36
:1023E00020460D4620F02CF829460246204620F0D3
:1023F00095F8B0FA80F0400938BD00BF70B50546C9
:10240000436AD5F830611B68D0F82C0188600C460F
:102410004B6031461EF07CFBE9681EF083FC2B6BA1
:10242000D5F89420D5F834112161E06062611A6812
:10243000AB6AA2611A68D5F8243163622662E26150
:1024400070BD00BF2DE9F041E0B0002A00F0C78068
:102450000C46002900F0C380654E05461746984695
:10246000644AAB1C4FF4967115A81FF059FD012268
:1024700015A9306800F0F2F840461DF097FF0022E1
:102480005D4B1EF023F93B46CDE900015B4A4FF45A
:10249000967115A81FF044FD15A90122306800F0BF
:1024A000DDF8EB6A564A003318BF01234FF49671EA
:1024B00015A81FF035FD15A90122306800F0CEF8EF
:1024C00050493068012200F0C9F84F4930680122B4
:1024D00000F0C4F84D493068012200F0BFF84C49C3
:1024E0003068012200F0BAF84A493068012200F051
:1024F000B5F849493068012200F0B0F84749306822
:10250000012200F0ABF846493068012200F0A6F83D
:1025100044493068012200F0A1F8434930680122A3
:1025200000F09CF841493068012200F097F83068CB
:102530003F49012200F092F8002FC8BF002546DD78
:10254000606A1DF045FFCDE91201206A1DF040FFD1
:10255000CDE91001E0691DF03BFFCDE90E01A06956
:102560001DF036FFCDE90C0160691DF031FFCDE9AA
:102570000A0120691DF02CFFCDE90801E0681DF07B
:1025800027FFCDE90601A0681DF022FFCDE9040177
:1025900060681DF01DFFCDE9020154F8280B1EF004
:1025A0006DFB1DF015FF144B00221EF08FF8214A21
:1025B000CDE900014FF4967115A81FF0B1FC01356B
:1025C000012215A9306800F049F8AF42B8D130684F
:1025D0001949012200F042F860B0BDE8F081044BD7
:1025E00016491868012200F039F860B0BDE8F081A2
:1025F0007C010020BC81020000005940D081020013
:1026000000820200308202004482020058820200EE
:1026100088820200A8820200C4820200F8820200BE
:1026200018830200448302005C830200848302005A
:10263000A8830200C0830200B0830200A8810200C8
:1026400008B50A220021044821F0A4FA00EB80001A
:102650004000013080B208BD048402002DE9F0473B
:1026600090F90090B9F1010F84B00C4647D0DFF823
:1026700008813D4F03AD20461FF0E2FE061E70DDCF
:10268000A0192246002312F8011B82420B44FAD102
:10269000364883FB00011944DA17C2EBA11202EBA2
:1026A000420202EB42129B1A0133314ADFF8B89022
:1026B000042128461FF034FC03212846D8F8008066
:1026C00014F056FC3146204614F052FC38688378EA
:1026D0008BB103787BB10123294600930322434643
:1026E000002503F0D3FDD9F800000095434632469B
:1026F000214603F0CBFD012004B0BDE8F087C3788C
:10270000064603AD1BB9DFF87080174FB3E71823F7
:10271000174ADFF86480144F042128461FF000FC9C
:1027200003212846D8F800A014F022FC0221114809
:1027300014F01EFC3868837883B1037873B1534674
:1027400003222946CDF8009003F0A0FD002238684E
:10275000084900925346022203F098FD0023F370CB
:1027600089E70123A1E700BF8001002003B57EA512
:1027700028840200BC9302003401002010B50A2214
:102780009CB0044600210F4821F004FA00EB8000C1
:102790004000013080B21EF06DFA1DF019FE0A4BA8
:1027A00000221DF093FF094ACDE9000103A864212E
:1027B0001FF0B6FB03A920460122FFF74FFF1CB014
:1027C00010BD00BF048402000000244030840200D9
:1027D00010B5E8B0104B03921B68029104461846EE
:1027E0001EF048FA1DF0F4FD09A3D3E900231DF003
:1027F00043FE0A4ACDE9000104A84FF4C8711FF056
:102800008FFB04A920460022FFF728FF68B010BD07
:102810007B14AE47E17A643F30010020408402001F
:102820002DE9F04F0622D3B00C4606460846B249C1
:102830001FF074FE002800F0A1800722AF49204657
:102840001FF06CFE68B9E379202B04F1070403D173
:1028500014F8013F202BFBD00122A9493046FFF795
:10286000FDFEA84D2146286801F0F6FA10B153B0DC
:10287000BDE8F08FA44F214638680AF0F3F800282D
:10288000F5D1DFF8DC822146D8F8000004F02EFEF6
:102890000028ECD1DFF8CC922146D9F8000003F0F3
:1028A00041FE0028E3D1DFF8C0A22146DAF800009B
:1028B00009F0A6F90028DAD1DFF8B0B22146DBF83A
:1028C00000000CF09BF90028D1D1904B21461868EC
:1028D000FEF7B2F80028CAD18D4B214618680BF0DC
:1028E0005FFE0028C3D18B4B2146186807F084FD9A
:1028F0000028BCD1884B2146186805F0ADFE0028A1
:10290000B5D1864B2146186806F086FE0028AED168
:10291000834B21461868FDF7B1FF0028A7D1814BF2
:102920002146186809F0E6FD019000289FD1042295
:102930007D4920461FF0F2FD019B78B362783D2A65
:1029400000F0B8800622794920461FF0E7FD0546D1
:10295000002840F09D80201D3D211FF02FFB002806
:1029600000F09480294601300A2221F013F900304A
:1029700018BF01200023B070737078E701226C4902
:102980003046FFF76BFEA379202B04F106047FF499
:1029900068AF14F8013F202BFBD062E7D8F8003075
:1029A000644A0C3302A84FF4A0711FF0B9FA02A9CF
:1029B00001223046FFF752FE96F900305E4A02A827
:1029C0004FF4A0711FF0ACFA02A901223046FFF7C4
:1029D00045FE02A84D2259491EF048FF02A90122D6
:1029E0003046FFF73BFE564B564A02A84FF4A07103
:1029F0001FF096FA02A901223046FFF72FFEDFF8FA
:102A000070E1BEE80F0002AC0FC4BEE80F000FC4B7
:102A1000DEF8003024F8023B1B0C02A901222370CF
:102A20003046FFF71BFE3D4B186805F051FF3A4B4F
:102A3000186804F0DBFF444B186801F0C5FB2868F8
:102A400001F0CEF8D9F8000003F042FD386809F033
:102A5000DBFFD8F8000004F0DDFCDAF8000009F034
:102A6000B5F8DBF800000CF08FF8284B1868FDF77C
:102A7000C7FF274B18680BF05BFD264B186807F063
:102A800099FC274B1868FDF7F3FCF0E601206EE790
:102A900004222E4920461FF041FD08B307222C498D
:102AA00020461FF03BFD78B1224630462949FFF70A
:102AB0008FFEDCE62278692A18D11946A01C0A226A
:102AC00021F068F83070D2E602A81D4B224A782126
:102AD0001FF026FA02A930460122FFF7BFFDC6E625
:102AE000194B211D186802F03DF8C0E62246304619
:102AF0001A49FFF76DFEBAE650840200788402009E
:102B00008084020050010020540100206001002058
:102B100064010020680100204001002048010020DD
:102B20006C01002044010020A0840200F485020012
:102B300058840200A8840200D88402004485020060
:102B4000F48302009485020080010020FC850200CD
:102B5000048602001C86020010860200D085020056
:102B6000580100204C010020840100205C0100205D
:102B7000AC85020070B5D0F8CC3084B004469BB967
:102B80003E4A1F291268C0F8D02027D894F9003097
:102B9000012B1AD00A2932D00D2930D0D4F8CC30EC
:102BA000C62B20DC04B070BD1F29EFD9C218C62B7C
:102BB000117114DD0023012280F8D420C0F8CC303C
:102BC000037194F90030012BE4D16378002BE1D13B
:102BD0000846039114F094FA0399DBE7017101337D
:102BE000C4F8CC30D2E7234400251D7101222449CA
:102BF0002046FFF733FDC4F8CC5004B070BD94F804
:102C0000D43053BBD4F8CC20002A1DDD1D4B1868EE
:102C100003788BB183787BB1A3180A211971251D24
:102C20004FF0FF36D4F8D03000960132294603F039
:102C30002DFBD4F8CC2000E0251D2244002329469A
:102C400013712046FFF7ECFD94F90050012D0DD0D3
:102C50000023C4F8CC3004B070BD002384F8D43015
:102C6000012209492046FFF7F9FCF1E72A46074906
:102C70002046FFF7F3FCE570EAE700BF34010020CF
:102C80004C86020080010020288602004486020053
:102C9000F8B5074614F0EEF8142804DC00280646C0
:102CA00010D001DCF8BD1426002414F0A7F8051E8E
:102CB00004F10104A5F10A0306DB752B05D9B44222
:102CC000F3DBF8BD7B78BBB1F8BD7B7843B10A2D4F
:102CD00001D00D2D04D1012215493846FFF7BEFC65
:102CE000144A00231268C7F8D820E9B27B7038462E
:102CF000BDE8F840FFF73EBFBB78002BE4D00D4A9B
:102D0000D7F8D81013685B1AB3F57A6F0ED997F914
:102D100000301268C7F8D82013B101237B70F8BDCA
:102D2000012205493846FFF799FCF6E7F8BD00BFD8
:102D3000A88602003401002068860200F0B5151E46
:102D400085B00C463BDD48190A46002312F8011BEA
:102D500082420B44FAD11B4883FB00011944DA1765
:102D6000C2EBA11202EB420202EB42129B1A0133A8
:102D7000154A164E042103A81FF0D2F8144B032164
:102D800003A81F6814F0F4F82946204614F0F0F860
:102D90003068837883B1037873B1012303A900936A
:102DA00003223B4603F072FA306800263B462A466F
:102DB0002146009603F06AFA012005B0F0BD012318
:102DC000D6E700BF03B57EA528840200800100205D
:102DD0003401002010F00EBEF0B541F658320F2439
:102DE000DFF830E0C0F8381108270021AC2640F2A7
:102DF000137582600422C0F800E080F828704685D0
:102E000085850471C47141714173827180F82720F6
:102E1000F0BD00BFA08601002DE9F047478D0023DB
:102E20000446037338461DF025FFA68D80463046C4
:102E30001DF020FF41461DF06BFE814601464FF01C
:102E400080401EF023F84FF07C51054648461DF0A7
:102E500069FF41461DF05EFE294600F100401DF06D
:102E600061FFE7850346C4F8B000C4F8B400C4F8B5
:102E7000B800C4F8BC00C4F8C000A4F84E602786AF
:102E8000A4F850606786A4F85260A786A4F854603E
:102E9000E786A4F856602787A4F858602567656719
:102EA000A567E567C4F88050C4F88450C4F8C4002E
:102EB000C4F8C800C4F8CC00C4F8D000C4F8D400EA
:102EC000C4F8D800C4F8DC00C4F8E000C4F8E4009A
:102ED0006787A4F85A60A787A4F85C60E787A4F81E
:102EE0005E60A4F84070A4F86060A4F84270A4F892
:102EF0006260A4F84470A4F86460A4F84670A4F872
:102F00006660A4F84870A4F86860C4F88850C4F8F3
:102F10008C50C4F89050C4F89450C4F89850C4F839
:102F20009C50C4F8A050C4F8A450A4F84A70D4F837
:102F30003801A4F86A60A4F84C70A4F86C60C4F876
:102F4000A850C4F8E830C4F8AC50C4F8EC300368BA
:102F500021681B6A4FF49B72BDE8F047184700BF19
:102F600030B43C4B02791A70002966D00A885A7036
:102F70000A884C88C2F3022242EAC4029A704A8844
:102F80008C88C2F3451242EA8412A410DA701C71D4
:102F90008C88CA88C4F3802444EA42045C710C899A
:102FA000C2F3C31242EA04129A714A89C4F30614A6
:102FB00044EAC21455101D72DC718C89C2F341229F
:102FC00042EA84025A72CA89C4F3841444EA42145D
:102FD000D2109C72DA720A8A1A734C8AC2F30222E5
:102FE00042EAC4025A738A8AC4F3451444EA82143A
:102FF00095109C73DD73CD8AC2F3802242EA4502AC
:103000001A740C8BC5F3C31545EA04155D744A8B1D
:10301000C4F3061444EAC21455109C74DD748C8BFE
:10302000C2F3412242EA84021A75CA8BC4F38414A3
:1030300044EA4214D2105C759A750022DA7542791E
:10304000D0F838011A76036802495B68192230BC4F
:10305000184700BF7C16FF1F2DE9F04F8FB00F46B9
:103060000590202206A800211EF0FEFC002F56D05D
:10307000059A02F2271304931346AC3203921A46C0
:103080006C3302930DF11603019302F584794FF02E
:1030900000081BE03868039B53F8041F03931DF0DE
:1030A00037FD029B53F8041F02931DF0EFFE1EF044
:1030B0003BF8019B08F1040823F8020FB8F1400F18
:1030C00007F1040709F10109019328D0049A12F8C5
:1030D000013F0492002BDDD0059B99F80050D3F8F6
:1030E000F43053F80840BCB1012D206812D94FF0DC
:1030F000010B3E68DA4601460AF1010A30461DF02E
:1031000011FE5FFA8AFA54F82B101DF003FD5545A5
:10311000D346F0D83860BEE700203860BBE706A988
:103120000598FFF71DFF0FB0BDE8F08FF8B50D460D
:1031300000EB41010446CA85A1F84E3010461F46F7
:103140001DF098FD064638461DF094FD31461DF0F1
:10315000DFFC014607464FF080401DF097FE04EB70
:1031600085044FF07C510546206738461DF0DAFD96
:1031700031461DF0CFFC294600F100401DF0D2FD84
:10318000C4F8B000F8BD00BF3AB133B100EB410163
:10319000C88D1080B1F84E201A807047D2B32DE947
:1031A000F843D0F8F060144698468946074696B32F
:1031B0000FFA89F556F8250028B31EF081F84FEA7A
:1031C0008800D7F8F0601EF073F846F82500B8F1D3
:1031D000000F10D0D7F8F03008F1FF3653F8255023
:1031E000F6B2043D04EB8606221F52F8044F45F860
:1031F000044FB242F9D14F44012387F8F88087F891
:103200001831BDE8F8834FEA88001EF051F846F8FF
:103210002500DCE7704740201EF04AF8C7F8F000B0
:103220000646C5E7D2B130B4451895F8F840A4B1C8
:103230009BB1D0F8F00050F82100043A0438002186
:1032400001E08B4209D050F8044F42F8044F01319D
:1032500095F8F840C9B28C42F3D830BC704700BF33
:10326000D2B32DE9F843D0F8F46014469846894665
:10327000074696B30FFA89F556F8250028B31EF0D5
:103280001FF84FEA8800D7F8F4601EF011F846F8EE
:103290002500B8F1000F10D0D7F8F43008F1FF3650
:1032A00053F82550F6B2043D04EB8606221F52F86F
:1032B000044F45F8044FB242F9D14F44012387F837
:1032C000088187F82831BDE8F8834FEA88001DF0AF
:1032D000EFFF46F82500DCE7704740201DF0E8FFCF
:1032E000C7F8F4000646C5E7D2B130B4451895F8E2
:1032F0000841A4B19BB1D0F8F40050F82100043A81
:103300000438002101E08B4209D050F8044F42F804
:10331000044F013195F80841C9B28C42F3D830BC52
:10332000704700BF38B5D0F8F030054663B10024CF
:103330001859043418B11DF0C3FFD5F8F030402CF3
:10334000F6D118461DF0BCFFD5F8F43063B1002467
:103350001859043418B11DF0B3FFD5F8F430402CDF
:10336000F6D118461DF0ACFF284638BDF8B52F4DF4
:10337000EB69DB07044646D50FF004FD2B6AA26813
:10338000C01A82423CBF0023237300260127D4F8D1
:10339000380103681B699847002832DD0FF0F2FC02
:1033A000D4F8383128621A68184653699847237B45
:1033B000C0B2A0738BB92379834202D026736073A5
:1033C000E5E7627B6379934204D0E379A179134006
:1033D0009942F3D127736073D9E7182B04DCE21804
:1033E0000133DBB290732373192BE8D163798342E5
:1033F00017D0E379A2791840824212D000202073BE
:10340000F8BD0020F8BD05F11C0012F0BDFB00283E
:10341000B2D00FF0B7FC286205F11C0012F0BAFB25
:10342000AAE7002323730120F8BD00BF7C16FF1F0D
:103430002DE9F0410D46174698460446FFF796FFE2
:10344000002800F0A580002D00F08E80227CE37B18
:1034500043EA0223C3F30A032B80637C227C5B01D3
:1034600043EAD203C3F30A036B80A27C637CE17C52
:10347000920042EA931343EA8123C3F30A03AB8029
:10348000237DE27CDB0143EA5203C3F30A03EB80B2
:10349000637D227D1B0143EA1213C3F30A032B81D0
:1034A000A27D637DE17D520042EAD31343EA4123CA
:1034B000C3F30A036B81237EE27D9B0143EA9203FF
:1034C000C3F30A03AB81637E227EDB0043EA52131F
:1034D000EB81E27EA37E43EA0223C3F30A032B823D
:1034E000237FE27E5B0143EAD203C3F30A036B82CC
:1034F000217F637FA27F9B0043EA911141EA8221F1
:10350000C1F30A01A982E37FA27FDB0143EA5203F0
:10351000C3F30A03EB8294F82030E27F1B0143EAF5
:103520001213C3F30A032B8394F8216094F820103C
:1035300094F82230760046EAD11141EA4321C1F3E2
:103540000A01698394F8233094F822209B0143EA0E
:103550009203C3F30A03AB8394F8243094F8232036
:10356000DB0043EA5213EB83B8F1000F08D094F864
:10357000253094F82720134018BF012388F8003025
:1035800037B194F8253094F82820134002D13B70CD
:10359000BDE8F08101233B70BDE8F0812DE9F04FDB
:1035A0008FB00F4606A904460490FFF741FF05902F
:1035B00000284FD023466C3322460DF116010293AA
:1035C000AC3204F2171303910192009304F1F8094D
:1035D0004FF00008039B33F8020F03931DF04EFBDE
:1035E000029B53F8041F02931DF09CFB019B53F8B0
:1035F000041F01931DF08EFA009A12F8013F009209
:1036000004463860EBB1049B99F80060D3F8F030C1
:1036100053F8085015B3012E296811D94FF0010B4A
:10362000DA4620461DF07EFB55F82B101DF072FA8D
:103630000AF1010A5FFA8AFA56450146D346F0D8E4
:10364000396008F10408B8F1400F07F1040709F1E7
:103650000109BFD105980FB0BDE8F08F0021EFE759
:10366000F8B500EB410500EB8104E88D1DF002FB8D
:103670000646B5F84E001DF0FDFA31461DF048FA39
:10368000014607464FF080401DF000FC4FF07C5192
:103690000546206738461DF045FB31461DF03AFAD5
:1036A000294600F100401DF03DFBC4F8B000F8BD14
:1036B000CAB10129106815D92DE9F0410125164636
:1036C00098460F462C460146013440461DF02AFB21
:1036D000E4B256F825101DF01DFABC422546F2D37F
:1036E000BDE8F08170470020704700BF38B5044640
:1036F0000023264A26492748A361E36123626362C7
:10370000A362E362236363632264A2642265A0630D
:10371000E1636164E1644FF4A07016F0CBFE1E49D2
:103720000546FDF7D5FD25604FF4A07016F0C2FEEA
:103730001A490546FDF7CCFD65604FF4A07016F000
:10374000B9FE17490546FDF7C3FDA5604FF4A0700B
:1037500016F0B0FE13490546FDF7BAFDE5604FF4DB
:10376000A07016F0A7FE10490546FDF7B1FD2561D2
:103770004FF4A07016F09EFE0C490546FDF7A8FD1B
:103780000023656184F85C30204638BD0000A0400D
:103790000000A0C000007A44CC870200D487020059
:1037A000DC870200E4870200EC870200F487020055
:1037B00038B5044600681A4DFEF7D6FB6068FEF780
:1037C000D3FBA068FEF7D0FBE068FEF7CDFB2069D5
:1037D000FEF7CAFB6069FEF7C7FB616B2868FCF760
:1037E0007DFEA16B2868FCF779FEE16B2868FCF789
:1037F00075FE216C2868FCF771FE616C2868FCF787
:103800006DFEA16C2868FCF769FEE16C2868FCF786
:1038100065FE216D2868BDE83840FCF75FBE00BF3B
:103820006C01002038B5044600681D4DFEF72CFCE5
:103830006068FEF729FCA068FEF726FCE068FEF74A
:1038400023FC2069FEF720FC6069FEF71DFC286858
:10385000FCF77AFE60632868FCF776FEA0632868B0
:10386000FCF772FEE0632868FCF76EFE20642868AF
:10387000FCF76AFE60642868FCF766FEA0642868AE
:10388000FCF762FEE0642868FCF75EFE054B2065ED
:10389000012218680449BDE83840FEF7DFBE00BFCA
:1038A0006C0100207C010020FC8702002DE9F04320
:1038B000274B284F1A683B68274D83B00446111DDB
:1038C000C0680091083204F124010433FEF7F6F8D1
:1038D00026463B682A6856F81C0B4FF0000804F196
:1038E000180949460833C832CDF80080FEF7E6F8DB
:1038F0003B682A686068CDF8008031460C33CC32D2
:10390000FEF7DCF83B682A68A068CDF8008004F177
:1039100020011033D032FEF7D1F82A68206902F175
:10392000C8014B46009102F5FE7204F12801FEF732
:10393000C5F82A68606902F1CC010091334602F5AE
:10394000007204F12C01FEF7B9F803B0BDE8F08372
:10395000680100204C010020480100202DE9F043BF
:10396000B1B00C460891064600E0089425460134A3
:1039700028781DF05FFC0028F7D1202128461EF092
:103980001DFB099000287ED0284609A920F044F8A4
:1039900009A98046099820F03FF809A90746099827
:1039A00020F03AF808A90546099820F035F8089A59
:1039B000099B9A4204465CD9444B1B6893F831300A
:1039C0004BB9434B434918680122FEF747FE0120DB
:1039D00031B0BDE8F083D6F83490404649461DF03A
:1039E0003FFB00283AD0C6F82490D6F83C803846F1
:1039F00041461DF035FB38B3C6F82880776C284661
:103A000039461DF02DFBB0B1F762F56C2046294612
:103A10001DF026FB50B9356D204629461DF03EFBB2
:103A200020B90120346331B0BDE8F0830120356353
:103A300031B0BDE8F083B76C284639461DF02EFB47
:103A40000028E1D1F562E0E7D6F8408038464146EB
:103A50001DF024FB0028CFD1B762CFE7D6F838900D
:103A6000404649461DF01AFB0028BCD1C6F8248008
:103A7000BBE7174B184918680122FEF7EFFD01203C
:103A800031B0BDE8F083306B1CF0A2FCCDE906013B
:103A9000F06A1CF09DFCCDE90401B06A1CF098FCB2
:103AA000CDE90201706A1CF093FC0C4ACDE90001DB
:103AB0000AA896211EF034FA054B0AA918680122BB
:103AC000FEF7CCFD012031B0BDE8F08358010020A5
:103AD0007C010020248802003888020070880200DF
:103AE00070B5B8B00C461091064600E0109425461B
:103AF000013428781DF09EFB0028F7D120212846AC
:103B00001EF05CFA119040B311A928461FF084FF03
:103B100011A9706311981FF07FFF11A9B06311986C
:103B20001FF07AFF00F100433064F36311A911988C
:103B30001FF072FF00F10043B064736410A9119884
:103B40001FF06AFF109A119B30659A4200F1004005
:103B5000F06438D0012038B070BD306D1CF038FCF6
:103B6000CDE90E01F06C1CF033FCCDE90C01B06C1A
:103B70001CF02EFCCDE90A01706C1CF029FCCDE98B
:103B80000801306C1CF024FCCDE90601F06B1CF040
:103B90001FFCCDE90401B06B1CF01AFCCDE9020159
:103BA000706B1CF015FC0B4ACDE9000112A89621A0
:103BB0001EF0B6F9084B12A918680122FEF74EFD57
:103BC000012038B070BD044B044918680122FEF78B
:103BD00045FDBFE7C08802007C0100208488020008
:103BE00010B51A4C1A4920680122FEF737FD2068EB
:103BF00018490122FEF732FD206817490122FEF71D
:103C00002DFD206815490122FEF728FD2068144982
:103C10000122FEF723FD206812490122FEF71EFD56
:103C2000206811490122FEF719FD20680F49012281
:103C3000FEF714FD20680E490122FEF70FFD2068F3
:103C40000C490122BDE81040FEF708BD7C010020B0
:103C5000F088020008890200348902007C89020091
:103C6000C4890200FC890200448A02008C8A020096
:103C7000B88A02000C8B020038B5044600680D4675
:103C8000FDF796FB40B1184B184918680122012432
:103C9000FEF7E4FC204638BD29466068FDF788FB46
:103CA0000028F0D12946A068FDF782FB0028EAD160
:103CB0002946E068FDF77CFB0028E4D1294620690D
:103CC000FDF776FB0028DED160692946FDF770FB21
:103CD00004460028D7D1044B054918680122FEF795
:103CE000BDFC204638BD00BF7C010020448B020093
:103CF000348B020030B53A4B04460D4693E807007A
:103D0000C5B06B4603C300211A700DF1090040F2E3
:103D100005121DF0A9FE29462068FEF75FFBA8B139
:103D200020684FF4837202A9FDF7DEFD0830C0F56C
:103D300087722C4968441EF041FC2B4B6946186879
:103D40000122FEF78BFC012045B030BD294660689A
:103D5000FEF744FB38B160684FF4837202A9FDF7A7
:103D6000C3FD0830E3E72946A068FEF737FB60B9DA
:103D70002946E068FEF732FB78B1E0684FF48372C1
:103D800002A9FDF7B1FD0830D1E7A0684FF48372B6
:103D900002A9FDF7A9FD0830C9E729462069FEF709
:103DA0001DFB68B929466069FEF718FB054678B126
:103DB00060694FF4837202A9FDF796FD0830B6E7FB
:103DC00020694FF4837202A9FDF78EFD0830AEE73B
:103DD000054B064918680122FEF740FC2846B3E768
:103DE000BC860200549602007C010020508B020029
:103DF000F8B507460D462C46013520781DF01AFA15
:103E00000028F8D1202120461EF0D8F8D0B1451E58
:103E100015F8016F30461DF00DFA0028F8D1202E5C
:103E200010D921463846FFF727FF044644B9084B0E
:103E3000084918680122FEF711FC3846FFF7D0FE4A
:103E40002046F8BD21463846FFF754FF0446EDE70B
:103E50007C010020688B0200F8B504220C4607465E
:103E6000084626491EF05AFB98B1032224492046F1
:103E70001EF054FB80B30522224920461EF04EFB63
:103E800008B10020F8BD611D3846FFF729FE01206A
:103E9000F8BD04342546013428781DF0CBF90028FC
:103EA000F8D1202128461EF089F880B1441E14F86C
:103EB000016F30461DF0BEF90028F8D1202E06D93A
:103EC00029463846FFF7D8FE60B10120F8BD2946E3
:103ED0003846FFF70FFFF7E7E11C3846FFF73EFDD6
:103EE0000120F8BD084B094918680122FEF7B6FB0E
:103EF0003846FFF775FE0120F8BD00BF808B020039
:103F0000888B0200908B02007C010020688B0200ED
:103F100010B504460068FDF725FA6068FDF722FA3F
:103F2000A068FDF71FFAE068FDF71CFA2069FDF7AD
:103F300019FA6069FDF716FA0023A361E3612362B1
:103F40006362A362E362236310BD00BF38B590F8DB
:103F50005C30002B48D00446C0680378002B44D165
:103F6000324D20692B68626A5A600378002B44D175
:103F700060690023A3610378002B45D10023E3612E
:103F80002068226B03782262002B4AD12B68002222
:103F90009A6060680378002B3FD12B680022DA60BA
:103FA000A0680378002B33D12C6800232361656857
:103FB0001F4928461DF054F8B0B128461C491CF092
:103FC00065FF01460546A0681CF0ACFE2378A060A2
:103FD000032B09D02946E0681CF0A4FE2946E060C6
:103FE00020691CF09FFE206138BD0021FDF76EFDA9
:103FF00020690E4D0378002BBAD00021FDF766FD35
:1040000060690378002BB9D00021FDF75FFDB7E7A9
:104010000021FDF75BFD2C68C9E70021FDF756FD87
:10402000BEE70021FDF752FDB3E700BF4C010020C1
:10403000000048432DE9F041476B044638461646D8
:104040001D4688461DF02AF830B9A76B4046394610
:104050001DF024F8002831D06762E76B31463846FE
:104060001DF01CF828B9276C304639461DF016F8AB
:1040700010B3A762666C294630461DF00FF828B9C8
:10408000A66C284631461DF009F898B1E662E56C49
:10409000069928461DF002F848B9256D069829466C
:1040A0001CF0FCFF18B9069B2363BDE8F081256373
:1040B000BDE8F081E562EAE7A662DBE7C4F82480A8
:1040C000CBE700BF0FF096BC30B51E4C1E4B4367CC
:1040D0000546CFB020681D490122FEF7BFFAEA6904
:1040E0006B69009203A81A4A4FF496711DF018FFED
:1040F00003A920680122FEF7B1FA206815490122C0
:10410000FEF7ACFA144B0022CDE9002303A8134AB2
:104110004FF496711DF004FF03A920680122FEF7F9
:104120009DFA20680E490122FEF798FA20680D4991
:104130000122FEF793FA20680B490122FEF78EFA5E
:104140004FB030BD7C010020A016FF1F988B0200ED
:10415000A48B0200C08B020000000440DC8B020034
:10416000088C02003C8C0200588C0200F0B4012242
:104170001349144DC2600A2400224FF07E570026D6
:10418000076106620563C461C46302704270827095
:1041900082604261826142628262C26280F834203F
:1041A0008263C26580F8642080F86C204164C16439
:1041B00041650166816601674167F0BC704700BFD9
:1041C000A016FF1FA086010070B5374D374E0FCDEA
:1041D000CEB003AC0FC40FCD0FC40FCD0FC495E804
:1041E0000F0007C4324D24F8023B03A91B0C3068B2
:1041F00023700122FEF732FA0FCD03AC0FC40FCDAE
:104200000FC40FCD0FC495E8030044F8040B01223E
:1042100021803068274D03A9FEF720FA03A8612208
:1042200025491DF023FB03A930680122FEF716FA89
:104230000FCD03AC0FC40FCD0FC40FCD0FC495E845
:104240000F0007C424F8023B1B0C237003A930683D
:104250001A4D0122FEF702FA194B1A4A19684B69E6
:10426000C969009103A84FF496711DF059FE03A986
:1042700030680122FEF7F2F90FCD03AC0FC495E8C8
:104280000F0007C403A9306823800122FEF7E6F976
:1042900003A847220C491DF0E9FA03A9306801225E
:1042A000FEF7DCF94EB070BD708C02007C0100207E
:1042B000B08C02004C8D0200E88C0200BC8D020024
:1042C000800100208C8D0200DC8D020000B50023EF
:1042D0009BB08370074A4369642101A81DF020FE4A
:1042E000054B01A918680122FEF7B8F91BB05DF86B
:1042F00004FB00BF248E02007C01002030B5044680
:104300009DB000691CF064F800221F4B1CF0DEF920
:104310001BA3D3E900231CF0D9F91CF0A5FB1AF06C
:104320007FF91CF0DBFE194BE0601B68A3600125E0
:104330000023636184F8403084F8483084F85830B2
:1043400084F8503084F8643023704EF66022A570F3
:104350002B210F481DF088FBE368206902931CF0B5
:1043600037F80C4ACDE9000105A85A211DF0D8FD07
:10437000094B2A4605A91868FEF770F91DB030BD33
:104380007B14AE47E17A643F00408F40300100204B
:10439000A016FF1F488E02007C01002070B5044665
:1043A000B6B000692A4E1CF013F80022294B1CF00D
:1043B0008DF925A3D3E900231CF088F91CF054FBE8
:1043C0001AF02EF91CF08AFE234BE0601B68A360F4
:1043D00001250023636184F8403084F8483084F874
:1043E000583084F8503084F8643023704EF66022E0
:1043F000A5702B2119481DF037FBE3682069029353
:104400001BF0E6FF164ACDE9000104A85A211DF071
:1044100087FD2A4604A93068FEF720F940F253735D
:104420004EF66022E36184F8405004A80092C8214F
:104430000C4A1DF075FD2A4604A93068FEF70EF9F6
:1044400036B070BDAFF300807B14AE47E17A643FB5
:104450007C01002000408F4030010020A016FF1F8B
:10446000488E0200708E020090F85820034612B960
:1044700090F8482042B19A782AB90C495A610A68E2
:104480009A6001229A70704790F86420002AF2D155
:1044900090F85020002AEED190F84020002AEAD16E
:1044A00090F86C20002AE6D1FFF778BF3001002099
:1044B00070B58369591CDEB002463FD0466C10933C
:1044C0005D017419E0691BF083FFCDE90E01A0695D
:1044D0001BF07EFFCDE90C0120691BF079FFCDE9CF
:1044E0000A0160691BF074FFCDE90801E0681BF068
:1044F0006FFFCDE90601A0681BF06AFFCDE904015A
:1045000060681BF065FFCDE9020170591CF0B6FB35
:104510001BF05EFF2C4B00221CF0D8F82B4ACDE993
:10452000000113A84FF496711DF0FAFC284B13A953
:1045300018680122FEF792F85EB070BDC068556938
:10454000234C1BF033FF00221F4B1CF0BFF82B46FF
:10455000CDE900011F4A13A84FF496711DF0E0FC4D
:1045600013A920680122FEF779F820681A49012270
:10457000FEF774F8206819490122FEF76FF82068E9
:1045800017490122FEF76AF8206816490122FEF752
:1045900065F8206814490122FEF760F82068134985
:1045A0000122FEF75BF8206811490122FEF756F858
:1045B000206810490122FEF751F820680E490122B7
:1045C000FEF74CF85EB070BD00005940B08F02009D
:1045D0007C0100209C8E0200308202004482020096
:1045E000D48E0200108F0200408F02005C8F020008
:1045F000788F0200948F0200A88302001349144AA6
:1046000009681268F8B54369124D8468466C2D68D4
:1046100048786F685B01121BF418F250AB68A36016
:10462000676068B9B1F92C001CF028FBEE6DE969F0
:104630002A6E6B6EE361E06026616161A261F8BD84
:10464000B1F98C001CF01AFBF0E700BF4401002018
:1046500030010020400100202DE9F0418369591C00
:10466000ADF5047D02466DD0C66C03EB03139D00CF
:104670007419B4F93C302093206C1BF0A9FECDE9ED
:104680001E01606A1BF0A4FECDE91C01206A1BF02C
:104690009FFECDE91A01E0691BF09AFECDE91801F1
:1046A000606B1BF095FECDE91601A06B1BF090FE30
:1046B000CDE91401206B1BF08BFECDE91201A06A3D
:1046C0001BF086FECDE91001E06A1BF081FECDE90A
:1046D0000E01A0691BF07CFECDE90C0160691BF0A6
:1046E00077FECDE90A0120691BF072FECDE90801D1
:1046F000E0681BF06DFECDE90601A0681BF068FEC6
:10470000CDE9040160681BF063FECDE90201705938
:104710001CF0B4FA1BF05CFE714B00221BF0D6FFBC
:10472000704ACDE900014FF4AF712CA81DF0F8FBE1
:104730006D4B2CA918680122FDF790FF0DF5047D43
:10474000BDE8F081C0685469674DDFF8EC811BF06B
:104750002DFE61A3D3E900231BF08EFE0022634BE4
:104760001BF08AFE2346CDE90001614A4FF4AF7188
:104770002CA81DF0D5FB2CA901222868FDF76EFF9F
:10478000D8F800305B4A93F824324FF4AF712CA86C
:104790001DF0C6FB2CA928680122FDF75FFFD8F8A1
:1047A00000300DF18C0E03F1140403F1340720687E
:1047B0006168A268E36876460FC61034BC42B6460C
:1047C000F5D12068306025981BF002FECDE9040188
:1047D00024981BF0FDFDCDE9020123981BF0F8FDA4
:1047E000454ACDE900014FF4AF712CA81DF098FBAC
:1047F00001222CA92868FDF731FF28981BF0E8FD5D
:10480000CDE9040127981BF0E3FDCDE902012698CC
:104810001BF0DEFD394ACDE900014FF4AF712CA841
:104820001DF07EFB01222CA92868FDF717FFD8F8A0
:104830000030D3F810021BF0CBFD314ACDE9000166
:104840004FF4AF712CA81DF06BFB2CA90122286836
:10485000FDF704FF01222B492868FDF7FFFE012226
:1048600029492868FDF7FAFE012228492868FDF742
:10487000F5FE012226492868FDF7F0FE01222549B0
:104880002868FDF7EBFE012223492868FDF7E6FEC4
:10489000012222492868FDF7E1FE0122204928680B
:1048A000FDF7DCFE01221F492868FDF7D7FE012233
:1048B0001D492868FDF7D2FE01221C492868FDF732
:1048C000CDFE01221A492868FDF7C8FE286819495B
:1048D0000122FDF7C3FE31E77B14AE47E17A643F66
:1048E00000005940F49102007C01002000408F40FC
:1048F000E08F0200189002003890020058900200E9
:10490000789002003082020090900200A89002008D
:10491000C4900200E4900200089102002491020079
:1049200044910200689102008C910200B49102004F
:10493000D4910200A88302004801002070B504460B
:104940009CB00069264E1BF043FD0022254B1BF056
:10495000BDFE21A3D3E900231BF0B8FE1CF084F8B0
:1049600019F05EFE1CF0BAFB1F4BE0601B68A360F1
:1049700001250023636184F8403084F8483084F8CE
:10498000583084F8503084F8643023704EF660223A
:10499000A5702B2115481DF067F8E3682069029384
:1049A0001BF016FD124ACDE9000105A85A211DF0A1
:1049B000B7FA05A92A463068FDF750FE40F2723377
:1049C00084F848502A463068E3610A49FDF746FEFC
:1049D0001CB070BDAFF300807B14AE47E17A643F3A
:1049E0007C01002000408F4030010020A016FF1FF6
:1049F000488E02002C92020070B504469CB00069FB
:104A0000254E1BF0E5FC0022244B1BF05FFE20A38B
:104A1000D3E900231BF05AFE1CF026F819F000FE23
:104A20001CF05CFB1E4BE0601B68A36001250023AB
:104A3000636184F8403084F8483084F8583084F852
:104A4000503084F8643023704EF66022A5702B211C
:104A500014481DF009F8E368206902931BF0B8FCC4
:104A6000114ACDE9000105A85A211DF059FA05A9FE
:104A70002A463068FDF7F2FD40F2DC5384F85850C6
:104A80002A463068E3610949FDF7E8FD1CB070BDB6
:104A90007B14AE47E17A643F7C01002000408F40E8
:104AA00030010020A016FF1F488E0200489202002D
:104AB000F8B5274A4369274CC16C2568806812689D
:104AC000D5F81062D5F8BCE0D5F8C07003EB03133D
:104AD0009B00CC18121ACA50D5F8C400D5F8CC20C7
:104AE000D5F8C810D5F8D030C4F804E0A760E0606D
:104AF0002161D5F808026261A36131461CF008F813
:104B0000154B164A1B681268D3F800C0D3F808E0AA
:104B10005768D5F8F011D5F8F421D5F8F831C4F874
:104B20002CC0C4F834E0A0622262B5F9660063626A
:104B30002663A763E1611BF039FC094B00221BF0DF
:104B40009BFC1BF091FFD5F82032A3872064F8BDB1
:104B50003001002048010020680100206001002091
:104B60000000B03F2DE9F0410B78B8B0202B059143
:104B700005460C4604D114F8013F202BFBD00594C8
:104B800003229F4920461DF0C9FC002800F0DB806D
:104B900003229C4920461DF0C1FC002800F0B6808D
:104BA0000023EB65202120461DF008FA059058B13E
:104BB00005A91EF031FF4FF07E5106461CF050FA59
:104BC000002840F015812E6105228F4920461DF0F6
:104BD000A5FC0646002800F0398104228B492046B6
:104BE0001DF09CFC0646002800F0B780052288498D
:104BF00020461DF093FC0646002800F0CE810422DA
:104C0000844920461DF08AFC0646002800F01082E8
:104C10000322814920461DF081FC0646002800F051
:104C2000528203227D4920461DF078FC064600286A
:104C300000F0638105227A4920461DF06FFC0028B0
:104C400040F0A882774B1B681B68EB65002B46D0B1
:104C50002869754F1BF0BCFB0022744B1BF036FD1E
:104C600065A3D3E900231BF031FD1BF0FDFE19F015
:104C7000D7FC1CF033FA6E4BE8601B68AB60012672
:104C800000234EF660226B6185F8403085F848308D
:104C900085F8583085F8503085F864302B702B211A
:104CA000AE7064481CF0E0FEEB68286902931BF0CC
:104CB0008FFB614ACDE900015A2106A81DF030F9A9
:104CC00006A932463868FDF7C9FC40F2DC5385F886
:104CD000586032463868EB615849FDF7BFFCAB7845
:104CE00083B1286902941BF073FB554ACDE900019A
:104CF000642106A81DF014F94B4B06A9186801227F
:104D0000FDF7ACFC012038B0BDE8F081033420464B
:104D100005941DF095FB0428F4D905A90A22204624
:104D20001EF038FF05A9A8630A2205981EF032FF7D
:104D3000AB6BE86313B1002840F0DB80002385F8FB
:104D400034300120DFE701204FF0FF33687085F831
:104D50003400AB6138B0BDE8F0812869DFF8C88065
:104D60001BF036FB0022314B1BF0B0FC22A3D3E931
:104D700000231BF0ABFC1BF077FE19F051FC1CF07C
:104D8000ADF92B4BE8601B68AB6001274EF6602243
:104D90002B216E6185F8406085F8486085F8586081
:104DA00085F8506085F864602E70AF7021481CF063
:104DB0005BFEEB68286902931BF00AFB1E4ACDE9F3
:104DC00000015A2106A81DF0ABF806A93A46D8F80A
:104DD0000000FDF743FC4FF47A73EB6185F85070E7
:104DE0003A46D8F800001749FDF738FCEB6D2DE77F
:104DF000154B2B61E8E600BF7B14AE47E17A643FB8
:104E000064920200689202006C92020074920200A6
:104E1000F4870200B8920200E0920200E4920200DD
:104E2000CC870200500100207C01002000408F4010
:104E300030010020A016FF1F488E02004892020099
:104E40004C9302007C920200000020402869DFF8A9
:104E500040831BF0BDFA0022C34B1BF037FCC0A3FC
:104E6000D3E900231BF032FC1BF0FEFD19F0D8FB48
:104E70001CF034F9BD4BE8601B68AB6001274EF6AF
:104E800060222B216E6185F8406085F8486085F8C6
:104E9000586085F8506085F864602E70AF70B44833
:104EA0001CF0E2FDEB68286902931BF091FAB14A0D
:104EB000CDE900015A2106A81DF032F83A4606A9AC
:104EC000D8F80000FDF7CAFB40F253734EF660229B
:104ED000EB6185F84070C821009206A8A64A1DF033
:104EE0001FF83A4606A9D8F80000FDF7B7FBEB6DAE
:104EF000ACE6012085F8340005E72869DFF89082E8
:104F00001BF066FA0022984B1BF0E0FB94A3D3E958
:104F100000231BF0DBFB1BF0A7FD19F081FB1CF04D
:104F2000DDF8924BE8601B68AB6001274EF660220B
:104F30002B216E6185F8406085F8486085F85860DF
:104F400085F8506085F864602E70AF7088481CF05A
:104F50008BFDEB68286902931BF03AFA854ACDE98C
:104F600000015A2106A81CF0DBFF06A93A46D8F832
:104F70000000FDF773FB814B2F701B68AB674EF68B
:104F8000602142F21073E961EB60D8F800007C49BF
:104F90003A46FDF763FBEB6D58E62869DFF8F081D0
:104FA0001BF016FA0022704B1BF090FB6CA3D3E9A8
:104FB00000231BF08BFB1BF057FD19F031FB1CF09D
:104FC0008DF86A4BE8601B68AB6001274EF66022E3
:104FD0002B216E6185F8406085F8486085F858603F
:104FE00085F8506085F864602E70AF7060481CF0E2
:104FF0003BFDEB68286902931BF0EAF95D4ACDE9B5
:1050000000015A2106A81CF08BFF06A93A46D8F8E1
:105010000000FDF723FB40F65E03EB6185F864704A
:105020003A46D8F800005749FDF718FBEB6D0DE63E
:105030002869DFF85C811BF0CBF900224A4B1BF09A
:1050400045FB47A3D3E900231BF040FB1BF00CFDFD
:1050500019F0E6FA1CF042F8444BE8601B68AB60BC
:1050600001274EF660222B216E6185F8406085F89D
:10507000486085F8586085F8506085F864602E7047
:10508000AF703B481CF0F0FCEB68286902931BF002
:105090009FF9384ACDE900015A2106A81CF040FFCB
:1050A00006A93A46D8F80000FDF7D8FA40F2A9332D
:1050B000EB6185F86C703A46D8F800003249FDF78C
:1050C000CDFAEB6DC2E52869DFF8C4801BF080F9EA
:1050D0000022254B1BF0FAFA21A3D3E900231BF091
:1050E000F5FA1BF0C1FC19F09BFA1BF0F7FF1F4B00
:1050F000E8601B68AB6001274EF660222B216E61D1
:1051000085F8406085F8486085F8586085F85060FB
:1051100085F864602E70AF7015481CF0A5FCEB6834
:10512000286902931BF054F9124ACDE900015A2173
:1051300006A81CF0F5FE06A93A46D8F80000FDF7CF
:105140008DFA40F27233EB6185F848703A46D8F830
:1051500000000E49FDF782FAEB6D77E5AFF30080B2
:105160007B14AE47E17A643F00408F40300100205D
:10517000A016FF1F488E0200708E0200340100202E
:10518000E892020098920200C09202002C92020063
:105190007C0100200422254920461DF0BFF920B9DA
:1051A000234B1B681B69EB6550E50622214920460D
:1051B0001DF0B4F950B104221F4920461DF0AEF98C
:1051C00048B91B4B1B689B68EB653FE5184B1B6898
:1051D0005B68EB653AE50622184920461DF09EF90A
:1051E00020B9134B1B68DB68EB652FE504221449DB
:1051F00020461DF093F950B92846FFF767F8114B88
:10520000114918680122FDF729FAEB6D1EE52346C6
:105210000E4A642106A81CF083FE0A4B06A91868F2
:105220000122FDF71BFA00206DE500BFEC870200AC
:1052300050010020D4870200DC870200E4870200CE
:10524000049302007C0100200C93020020930200D2
:105250000146C06D20B1CB684A69096EFDF7F2B80E
:10526000704700BF4369074A016E126810B403EB30
:1052700083038468C06DDB00121BCA5010BC194444
:10528000FDF7BCB83001002070B504469CB0006941
:10529000254E1BF09DF80022244B1BF017FA20A38B
:1052A000D3E900231BF012FA1BF0DEFB19F0B8F96A
:1052B0001BF014FF1E4BE0601B68A3600125002358
:1052C000636184F8403084F8483084F8583084F8BA
:1052D000503084F8643023704EF66022A5702B2184
:1052E00014481CF0C1FBE368206902931BF070F8BE
:1052F000114ACDE9000105A85A211CF011FE05A9AB
:105300002A463068FDF7AAF94FF47A7384F85050B2
:105310002A463068E3610949FDF7A0F91CB070BD69
:105320007B14AE47E17A643F7C01002000408F404F
:1053300030010020A016FF1F488E02007C92020060
:105340004369234A23491268F0B5C3EB0313466D42
:1053500084680D68204995F8327009689B00121B1B
:10536000F418F25027714369446D2F781B4A1C4D85
:1053700012681C4EC3EB031304EB83035F71446993
:10538000436DD1F824E090685768C4EB041403EB34
:105390008403C3F808E08C6ADC60CC6A1C610C6B87
:1053A000D16812695C61D86119629F615A622A688A
:1053B0003168D2F8FC410D68D2F800028968D2F851
:1053C000D0205A639D62DC6218639963F0BD00BF10
:1053D0003001002058010020500100204C01002025
:1053E000480100206801002070B58369591CEAB0AB
:1053F000024662D0466DC3EB03139D007419A06B87
:105400001AF0E6FFCDE91C01606B1AF0E1FFCDE96F
:105410001A01206B1AF0DCFFCDE91801E06A1AF0DE
:10542000D7FFCDE91601A06A1AF0D2FFCDE9140129
:10543000606A1AF0CDFFCDE91201206A1AF0C8FFA8
:10544000CDE91001E0691AF0C3FFCDE90E01A069B2
:105450001AF0BEFFCDE90C0160691AF0B9FFCDE981
:105460000A0120691AF0B4FFCDE90801E0681AF0DA
:10547000AFFFCDE90601A0681AF0AAFFCDE904014B
:10548000637903932379029370591BF0F7FB1AF0A9
:105490009FFF494B00221BF019F9484ACDE9000152
:1054A0001FA84FF496711CF03BFD454B1FA91868CF
:1054B0000122FDF7D3F86AB070BDC0685569404C51
:1054C0001AF074FF3AA3D3E900231AF0D5FF0022A3
:1054D0003C4B1AF0D1FF2B46CDE900013A4A1FA8F8
:1054E0004FF496711CF01CFD1FA920680122FDF7E6
:1054F000B5F8206835490122FDF7B0F82068344935
:105500000122FDF7ABF8206832490122FDF7A6F829
:10551000206831490122FDF7A1F820682F490122B6
:10552000FDF79CF820682E490122FDF797F82068C6
:105530002C490122FDF792F820682B490122FDF742
:105540008DF8206829490122FDF788F8206828494C
:105550000122FDF783F8206826490122FDF77EF835
:10556000206825490122FDF779F8206823490122A6
:10557000FDF774F8206822490122FDF76FF82068D2
:1055800020490122FDF76AF820681F490122FDF732
:1055900065F820681D490122FDF760F820681C4964
:1055A0000122FDF75BF86AB070BD00BFAFF3008069
:1055B0007B14AE47E17A643F000059400896020030
:1055C0007C01002000408F40809302003082020066
:1055D000C0930200D4930200089402004894020091
:1055E0006C94020088940200A4940200C09402000B
:1055F000F4940200189502003C95020060950200A8
:1056000088950200A4950200C0950200E095020072
:105610000096020070B504469CB0016108461AF07D
:10562000D7FE0022244B254E1BF050F820A3D3E9CF
:1056300000231BF04BF81BF017FA18F0F1FF1BF0DA
:105640004DFD1F4BE0601B68A360012500236361D3
:1056500084F8403084F8483084F8583084F850306A
:1056600084F8643023704EF66022A5702B21154813
:105670001CF0FAF9E368206902931AF0A9FE124AB5
:10568000CDE9000105A85A211CF04AFC05A92A46CB
:105690003068FCF7E3FF40F65E0384F864502A4666
:1056A0003068E3610949FCF7D9FF1CB070BD00BF49
:1056B0007B14AE47E17A643F00408F407C010020BC
:1056C00030010020A016FF1F488E020098920200B1
:1056D0004369184A18491268F0B4C3EBC303866ED5
:1056E00085680C68154994F8327009689B00521B54
:1056F000F518F2502F714369826E2578104E114CC7
:1057000037682468C3EBC30302EB83035D7143690D
:10571000826ECE6A056AE468D7F80002C3EBC30361
:1057200002EB83039E60CA69DA605D611C61986167
:10573000F0BC7047300100205801002050010020CB
:10574000480100204C01002070B58369591CDAB073
:1057500002463AD0866EC3EBC3039C003519A86994
:105760001AF036FECDE90C0128691AF031FECDE9B8
:105770000A0168691AF02CFECDE90801E8681AF000
:1057800027FECDE90601A8681AF022FECDE9040142
:105790006B7903932B79029330591BF06FFA1AF04F
:1057A00017FE354B00221AF091FF344ACDE9000173
:1057B0000FA84FF496711CF0B3FB314B0FA918687A
:1057C0000122FCF74BFF5AB070BDC06855692C4CE4
:1057D0001AF0ECFD26A3D3E900231AF04DFE0022B7
:1057E000284B1AF049FE2B46CDE90001264A0FA8A6
:1057F0004FF496711CF094FB0FA920680122FCF76E
:105800002DFF206821490122FCF728FF206820494C
:105810000122FCF723FF20681E490122FCF71EFF2E
:1058200020681D490122FCF719FF20681B4901224D
:10583000FCF714FF20681A490122FCF70FFF2068CB
:1058400018490122FCF70AFF206817490122FCF7DA
:1058500005FF206815490122FCF700FF2068144964
:105860000122FCF7FBFE5AB070BD00BFAFF3008011
:105870007B14AE47E17A643F000059404C97020028
:105880007C01002000408F405896020030820200C8
:10589000C0930200D493020008940200989602007C
:1058A000B8960200E09602000C97020030970200C2
:1058B0000096020070B504469CB0016108461AF0DB
:1058C00087FD0022244B254E1AF000FF20A3D3E9C8
:1058D00000231AF0FBFE1BF0C7F818F0A1FE1BF026
:1058E000FDFB1F4BE0601B68A36001250023636183
:1058F00084F8403084F8483084F8583084F85030C8
:1059000084F8643023704EF66022A5702B21154870
:105910001CF0AAF8E368206902931AF059FD124AB4
:10592000CDE9000105A85A211CF0FAFA05A92A467A
:105930003068FCF793FE40F2A93384F86C502A4695
:105940003068E3610949FCF789FE1CB070BD00BFF7
:105950007B14AE47E17A643F00408F407C01002019
:1059600030010020A016FF1F488E0200C0920200E6
:10597000214B224A1B6812682149F0B44469066F22
:105980008568204F09683F68A4015D1B33193551B4
:10599000566B956B946A5E60D66ADD60156B1C6110
:1059A000D46B5E61966C1E629D61D66C156DDC6178
:1059B000146C526C1F81D1F8C8705E629D62DC620B
:1059C0001A63D1F83422D1F8986083F83C204569F5
:1059D000026FD1F82C425F639E6302EB851383F85C
:1059E0003D404469036FD1F8302203EB841383F800
:1059F0003E20F0BC704700BF300100204001002075
:105A000048010020780100202DE9F041A84B9EB00C
:105A1000044618680D4607F027FA00284DD0A678EE
:105A2000002E4FD1A34B23614FF0814018F0F8FDB9
:105A30001BF054FBA04BE0601B68A36001274EF6EF
:105A400060222B21666184F8406084F8486084F805
:105A5000586084F8506084F864602670A770974896
:105A6000DFF878821CF000F8E368206902931AF0EE
:105A7000AFFC934ACDE900015A2105A81CF050FA69
:105A800005A93A46D8F80000FCF7E8FD4FF47A7310
:105A90003A46E3618B4984F85070D8F80000FCF76F
:105AA000DDFD3A468849D8F80000FCF7D7FDD8F864
:105AB0000000864A8649FCF78BFEA37813B91EB016
:105AC000BDE8F081E668012E67DDB5FBF6F394F8DA
:105AD000647006FB1355B5FA85F56D09AFB1701EFC
