:10000000F8FF022099010000A15A0100595A01008D
:10001000595A0100595A0100595A0100595A010010
:10002000595A0100595A0100595A0100A15A0100B8
:10003000A15A0100595A0100319E0100A1A30100FB
:10004000A15A0100A15A0100A15A0100A15A0100C0
:10005000A15A0100A15A0100A15A0100A15A0100B0
:10006000A15A0100A15A0100A15A0100A15A0100A0
:10007000A15A0100A15A0100A15A0100A15A010090
:10008000A15A0100A15A0100A15A0100A15A010080
:10009000A15A0100A15A0100A15A0100A15A010070
:1000A00079E00100B1E10100A15A0100A15A01006B
:1000B000A15A0100A15A0100A15A0100F94801000A
:1000C000A15A01001D610100A15A0100B9F7000009
:1000D000A15A01001D0B0100A15A0100F177000097
:1000E000A15A0100A15A0100A15A0100A15A010020
:1000F000A15A0100A15A0100A15A0100A15A010010
:10010000957B0100A97B0100BD7B0100D17B010033
:100110006DD5010099FA0000A15A0100A15A010011
:10012000A15A0100A15A0100A15A0100A15A0100DF
:10013000A15A0100A15A0100A15A0100A15A0100CF
:10014000C17F0100A15A0100D56C0100A15A010034
:10015000CD380100A15A0100A15A0100A15A0100A5
:10016000A15A01005D780000F1E20100A15A0100EE
:10017000A15A0100A15A0100A15A0100A15A01008F
:10018000A15A0100A15A0100A15A0100A15A01007F
:10019000A15A0100A15A0100584B4CF2205210B54F
:1001A0001A804DF628121A8000BF00BF15F07CFCA3
:1001B000534B4FF030621A60524A9A60524ADA60EA
:1001C000524B4FF470021A60514A136813F4807353
:1001D00004D150490B604FF4A85313604E4B1A786A
:1001E000110703D51A7842F008021A704B4B4C499C
:1001F0002A221A704B4A4C4B8B4204D252F8040FFD
:1002000043F8040BF8E7494B494900228B4202D2DC
:1002100043F8042BFAE74749474A002352F82300E2
:1002200041F823000133662BF8D1444B444A802126
:1002300003F8011B9342FBD1424B3E4A1A60424BEA
:100240008A221A70A3F5805324225A70A0221A70B1
:100250009A799207FCD59A79D406FCD43B4A9379D3
:1002600003F00C03082B394BF9D103221A714622F3
:100270005A719A799006FCD5344A9179334B4906E4
:10028000FBD5334A4FF08271116009215160202261
:100290001A709A7902F00C020C2AFAD12D4B2E4AD0
:1002A0001A602E4B2E4A1A6000225A60072243F829
:1002B000042C2C4AC3F80C2D62B610F0E7FD154B48
:1002C0001B68DA0705D5284810F09AFD274B284A05
:1002D0001A60284B1B785B0609D5244C244B2268F6
:1002E0009A4204D1204810F08BFD0023236020F0B7
:1002F00025FF15F0DFFB17F0A7FEFEE70E200540F7
:1003000030800440823F04000100002B88ED00E0B3
:1003100010D0034014D0034002D0074000E0074053
:100320006016FF1F04C50200F806FF1F6016FF1FBE
:10033000D40600200002FF1F0000000000E400E0DF
:1003400056E400E008ED00E00050064000400640A2
:100350004480044004800440C010050014E000E024
:10036000BFD401000000202000DD68501CE00340E5
:10037000A5C3945A00F00740FFFFFFFFFFFFFFFFF8
:10038000FFFFFFFFFFFFFFFFFFFFFFFFFFFFFFFF7D
:10039000FFFFFFFFFFFFFFFFFFFFFFFFFFFFFFFF6D
:1003A000FFFFFFFFFFFFFFFFFFFFFFFFFFFFFFFF5D
:1003B000FFFFFFFFFFFFFFFFFFFFFFFFFFFFFFFF4D
:1003C000FFFFFFFFFFFFFFFFFFFFFFFFFFFFFFFF3D
:1003D000FFFFFFFFFFFFFFFFFFFFFFFFFFFFFFFF2D
:1003E000FFFFFFFFFFFFFFFFFFFFFFFFFFFFFFFF1D
:1003F000FFFFFFFFFFFFFFFFFFFFFFFFFFFFFFFF0D
:10040000FFFFFFFFFFFFFFFFFFFFFFFFDEF9FFFF23
:1004100010B5054C237833B9044B13B10448AFF33E
:1004200000800123237010BD6016FF1F0000000034
:1004300000C50200084B10B51BB108490848AFF3CE
:1004400000800848036803B910BD074B002BFBD0A0
:10045000BDE81040184700BF000000006416FF1FF1
:1004600000C502006016FF1F00000000704700BFBB
:1004700070B5164E164D17493068C0B0012202F013
:10048000EDF80FCD01AC0FC40FCD0FC40FCD0FC4CD
:1004900095E8070003C4104D227001A930680122BD
:1004A00002F0DCF80FCD01AC0FC40FCD0FC40FCD9F
:1004B0000FC42B6824F8023B01A91B0C3068237081
:1004C000012202F0CBF840B070BD00BF7C010020DB
:1004D000847D0200587D0200C07D020038B50446CC
:1004E0000D4613F001FC0028FBD02068B0F5805FBA
:1004F00003DA294613F0F0FC20680430206038BD90
:1005000038B504460D4613F0EFFB0028FBD02068F9
:10051000B0F5805F03DA294613F0EEFB2068013066
:10052000206038BD38B504460D4613F0DDFB0028C9
:10053000FBD02068B0F5805F03DA294613F042FC57
:1005400020680230206038BD38B504680546204672
:10055000043413F00BFB2C6038BD00BF38B50468C1
:1005600005462046013413F051FA2C6038BD00BF17
:1005700038B5046805462046023413F09DFA2C6015
:1005800038BD00BF2DE9F043494D86230360B5B067
:100590000446286802F054F8064613F0A5FB00282C
:1005A000FBD02368B3F5805F04DA1846314613F0B8
:1005B00093FC23683F4A404E1068043323600BF0DD
:1005C000F7FF01223D49286802F048F83C4B1868C3
:1005D00009F0CEFD01223B49286802F03FF83A4B72
:1005E000186803F0E5F8394B18680CF04FFC384BED
:1005F00018680EF0ADFB306807F0E4F8354B18686A
:100600000AF0C8F8344B186800F030FB334B186818
:1006100006F0B2FB324B186808F0AEF83368D4F835
:1006200000909B688222002B226020DDA9F18206C7
:1006300013F05AFB0028FBD02068B0F5805F31DB57
:1006400004304FF480510DF108082060254A0091D4
:1006500033464046C82121F027FCC4F800904146AB
:100660002868012201F0FAFF35B0BDE8F08313F0ED
:100670003BFB0028FBD02068B0F5805F02DA002148
:1006800013F02AFC184F0FCF0DF1080846460FC68D
:100690000FCF0FC60FCF0FC63B6826F8023B1B0CCF
:1006A0003370DAE7314613F017FC2068C8E700BF63
:1006B0007C0100204401002058010020F47D02004C
:1006C000480100200C7E020050010020540100204F
:1006D0005C01002068010020600100204C01002026
:1006E00040010020547E0200207E02002DE9F041EE
:1006F00004468220B6B0206013F038FA0646862001
:10070000206013F033FA4D4D8A2307462360286892
:1007100001F096FF33460190494A0097C82104A88A
:1007200021F0C2FB012204A9286801F097FF721E84
:1007300040F6FE739A4200D87FB9424A0097C8211A
:10074000334604A821F0B0FB04A92868012201F077
:1007500085FF012036B0BDE8F081286801F070FF08
:10076000B8421FD0286801F06BFF804638461FF062
:10077000D1FD0022344B1FF06DFFCDE90201404650
:100780001FF0D8FD0022304B1FF064FF2F4ACDE947
:100790000001C82104A821F087FB012204A92868D0
:1007A00001F05CFF2A4B18680BF022FF294B1868F8
:1007B00009F03EFC284B186803F034F8274B186802
:1007C0000CF080FB264B18680EF0C4FA254B186815
:1007D00006F0D6FF244B186809F0CEFF234B1868AB
:1007E00000F036FA224B186806F0CEFA214B186852
:1007F00007F0A8FF2368823BB342AAD0822323607C
:1008000013F072FA0028FBD02068B0F5805F03DA9D
:10081000002113F061FB2068174A04302060334642
:100820000090C82104A821F03FFB04A928680122F8
:1008300001F014FF002036B0BDE8F0817C010020FB
:10084000807E0200587F020000002440C87E020023
:1008500044010020480100205001002054010020E4
:100860005C01002058010020680100206001002088
:100870004C010020400100200C7F020038B503220B
:100880000C46054608460B4921F008FE60B120469B
:100890000322094921F002FE08B1002038BD284694
:1008A000FFF770FE012038BD2846FFF71FFF01202B
:1008B00038BD00BFA47F0200A87F0200036870B5A6
:1008C0001446234440F2FD7293420FDC05460E4667
:1008D00013F00AFA0028FBD030462246296813F0AC
:1008E000BDFB2B681C442C60012070BD002070BD36
:1008F000F8B5036817463B4440F2FD72934215DC9D
:1009000006460D4613F0F0F90028FBD0002FC8BFB3
:100910007F1909DD3468204613F078F8013434601B
:1009200005F8010BBD42F5D10120F8BD0020F8BD4E
:1009300013F024B8FFFFFFFF30B40122074D084C2D
:1009400002610021002245618461C163027042633B
:1009500080F83820027730BC704700BF0000C040EC
:10096000BF0E1C3E10B5044643F2D4000FF036FE15
:1009700010200FF093FE10F05FF80023E36010BD2D
:1009800030B5BFB00378044680690A931FF0E4FCD9
:10099000CDE9080160691FF0DFFC2569144AFA23DC
:1009A00003FB05F382FB0352DB17CDE90601C3EB22
:1009B00062101FF0BFFC0F4B00221FF04BFECDE971
:1009C0000401A0681FF0C8FCCDE9020160681FF0B7
:1009D000C3FC094ACDE900010CA8C82121F064FA42
:1009E000064B0CA91868012201F038FE3FB030BD5B
:1009F0001F85EB5100408F40AC7F02007C0100203E
:100A000010B5094C09492068012201F027FE206831
:100A10000749012201F022FE206806490122BDE8B3
:100A2000104001F01BBE00BF7C010020D07F0200FF
:100A3000F47F02005080020070B50322BEB00C4665
:100A4000054608462A4921F029FDD0B10522294949
:100A5000204621F023FD18B1002318463EB070BD9A
:100A60003EAE601D46F8C80D314622F095FF314676
:100A700068610C9822F090FF0123A86118463EB0EF
:100A800070BD2B78A8690A931FF066FCCDE90801B8
:100A900068691FF061FC2C69174AFA2303FB04F311
:100AA00082FB0342DB17CDE90601C3EB62101FF0A6
:100AB00041FC124B00221FF0CDFDCDE90401A868D6
:100AC0001FF04AFCCDE9020168681FF045FC0C4AA2
:100AD000CDE900010CA8C82121F0E6F9094B0CA9C9
:100AE0001868012201F0BAFD012318463EB070BD1E
:100AF000A0800200A88002001F85EB5100408F40BB
:100B0000AC7F02007C010020F8B504460FF0AEFF78
:100B100080B94B4BE2681B68013B9B1AC62B94BF04
:100B200001230023237004D900232061A3606360A4
:100B3000F8BDF8BD656B0FF0A5FF25442877636B02
:100B4000E218117F0D2916D05BB194F838207AB9DC
:100B5000092BC9BF0023E2186363224600231377E1
:100B6000F8BD217F52295ED094F838100029F5D0C5
:100B700001336363ECE70021117794F83820002AF1
:100B80004AD0023B052B47D82D48E26803682D4D1B
:100B90000068E0609A1AFA2303FB02F385FB030561
:100BA000DB17C3EB65156B1EB3F5F97F226133D8F4
:100BB0000A2204F11D0022F0ADFF1FF0BBFB1EA3B3
:100BC000D3E900231FF01CFC1FF012FFE16B064667
:100BD0001FF062FFA169E663074630461FF05CFF25
:100BE000626B606004F11C01013204F1260020F008
:100BF00001FE27F00040144920F0F6F9B8B128466C
:100C000020F000F80146384620F004F90F4920F0A2
:100C10004DF80122A06000E000220023227084F839
:100C200038306363F8BD012284F83820A0E7002340
:100C3000A3600122F1E700BFA60A462575029A3F8C
:100C4000340100201F85EB510000A04100007A44D0
:100C500038B5054D04462868FFF776FCA061286882
:100C6000FFF772FC606138BD6C01002038B5064C9E
:100C7000816905462068FFF731FC69692068BDE895
:100C80003840FFF72BBC00BF6C010020FFFFFFFFC7
:100C90000449C1604FF07E520021017082604260C1
:100CA000704700BF0AD7233B2DE9F041416004465D
:100CB0000F4682600021184690461E4620F09EF99D
:100CC00078B90346002523703046294620F096F96E
:100CD00050B94FF07E5325616561A361E361BDE8C2
:100CE000F0814FF00103EDE7414640461FF0D6FE8C
:100CF000E668314680461FF0D1FE41460546A061B8
:100D000030461FF0C9FE294620F084F83946E061DC
:100D100038461FF0C3FE0146074630461FF0BEFEB0
:100D2000294620F077F83946206130461FF0B4FE9E
:100D3000294620F06FF86061BDE8F081F8B50378CE
:100D40003BB94FF07E5200238261C261036143616F
:100D5000F8BD8168044608461FF0A0FEE6683146EB
:100D600007461FF09BFE39460546A06130461FF03E
:100D700093FE294620F04EF86168E06108461FF0B6
:100D80008DFE0146074630461FF088FE294620F0BA
:100D900041F83946206130461FF07EFE294620F09A
:100DA00039F86061F8BD00BF0023036243628362CB
:100DB000C3627047037870B5044613B90020A0627F
:100DC00070BDC069E16A256A00F100401FF06EFF46
:100DD0002169064628461FF069FF014630461FF08C
:100DE0005DFE616A064660691FF060FF014630469D
:100DF0001FF054FE6562E062A06270BD2DE9F04311
:100E00000E4683B0044601A93046002222F082FE3D
:100E1000019D031C18BF0123AE4223700ED303BBF8
:100E20004FF07E520023A261E26123616361AE4212
:100E300034BF2846002003B0BDE8F083284601A94E
:100E400022F0AAFD2F46019D6060AF422E4632D2AD
:100E5000284601A922F0A0FD2378019DA060002B67
:100E6000DED0A16808461FF019FED4F80C80414678
:100E700081461FF013FE49460746A06140461FF019
:100E80000BFE39461FF0C6FF6168E06108461FF09F
:100E900005FE0146814640461FF000FE39461FF020
:100EA000B9FF4946206140461FF0F6FD39461FF064
:100EB000B1FF6061BBE73E462378B0E7F0B504467A
:100EC00085B08068277816460D461FF045FACDE9B3
:100ED000020160681FF040FA3B46CDE90001054A77
:100EE0003146284620F0E0FF284605B0BDE8F04036
:100EF00021F066BAB080020038B5037803B938BD76
:100F0000054D416804462868FFF7E8FA2868A1689B
:100F1000BDE83840FFF7E2BA6C010020F8B503786D
:100F200004463BB94FF07E520023A261E261236187
:100F30006361F8BD194D2868FFF706FB60602868FB
:100F4000FFF702FB2378A060002BEBD001461FF0D7
:100F5000A5FDE668314607461FF0A0FD3946054667
:100F6000A06130461FF098FD29461FF053FF6168CD
:100F7000E06108461FF092FD0146074630461FF02B
:100F80008DFD29461FF046FF3946206130461FF08F
:100F900083FD29461FF03EFF6061F8BD6C01002013
:100FA00030B4074A074C82604FF07E550022012181
:100FB0004560C46041700270027430BC704700BF6D
:100FC0000AD7233B0024744938B50478C2604160D5
:100FD0003CB94FF07E520023C261026243618361DB
:100FE00038BD0446084615461FF058FD0A4B2362DB
:100FF0000146E061A0681FF00DFF08496061A06133
:1010000028461FF0F1FF4FF0010308B1237438BDEB
:101010000346237438BD00BF000080BF0000C642F5
:101020002DE9F04383B002AF0E4647F8041D044695
:1010300039463046002222F06DFD019D003018BF78
:101040000120AE42207010D32378002B32D14FF014
:101050007E520023E26122626361A361AE4234BF2B
:101060002846002003B0BDE8F0832846394622F028
:1010700093FCA846019D6060A845A94641D2284638
:10108000394622F089FC2049E06005461FF0ACFF9C
:1010900048BB019D2E46A94531D22846394600223B
:1010A00022F038FD2378019D003018BF01206070C8
:1010B000002BCCD0616808461FF0F0FC134B236274
:1010C0000146E061A0681FF0A5FE11496061A061C2
:1010D000E0681FF089FF4FF0010308B12374BDE7FA
:1010E00003462374BAE7284600211FF091FF019DB3
:1010F00018B101232E462374CDE72E46CBE74E468A
:10110000A2E74646A0E700BF00247449000080BF64
:101110000000C64270B5037C86B004460D461646F4
:10112000CBB1C0681FF018F902460B4661786068C1
:101130000491CDE902231FF00FF923780A4ACDE983
:1011400000013146284620F0AFFE284606B0BDE833
:10115000704021F035B902A3D3E90023E6E700BFD0
:101160000000000080842E41BC80020003783BB95F
:101170004FF07E520023C261026243618361704777
:10118000416810B5044608461FF088FC0A4B2362EC
:101190000146E061A0681FF03DFE08496061A06162
:1011A000E0681FF021FF4FF0010308B1237410BD68
:1011B0000346237410BD00BF000080BF0000C6427C
:1011C000002343628362C36203637047F8B5037808
:1011D0003BB30446006A216B676A00F100401FF0D0
:1011E00065FD6169054638461FF060FD01462846E9
:1011F0001FF054FCA16A0546A0691FF057FD014687
:1012000028461FF04BFC237CE062054633B1E668BC
:1012100031461FF007FF38B1E66235462563A76205
:10122000F8BD0023C362F8BD06F1004631462846EA
:101230001FF0DAFE0028EFD1F0E700BF38B50378E1
:1012400003B938BD054D416804462868FFF746F9E3
:101250002868E168BDE83840FFF740B96C0100201C
:1012600038B5037804463BB94FF07E520023E26163
:1012700022626361A36138BD124D2868FFF764F9EB
:1012800060602868FFF760F92378E0600546002B6E
:10129000EAD0616808461FF001FC0B4B236201464F
:1012A000E061A0681FF0B6FD08496061A0612846B2
:1012B0001FF09AFE4FF0010308B1237438BD0346B6
:1012C000237438BD6C010020000080BF0000C642BE
:1012D000F8B5044601254FF07E561F4B1F4A84F88F
:1012E0006950002700251E4820626267E26167613D
:1012F00063642367C4F8A830C4F8D830C4F8083150
:1013000084F8385084F8685084F8785084F89C50F9
:1013100084F8CC5084F8FC50257025762664E6636A
:10132000E666C4F8A460C4F8A060C4F8D460C4F849
:10133000D060C4F80461C4F80061E660A01C082213
:1013400021F0FCF8257466616562A562E56225639B
:1013500084F834502046F8BD0AD7233B0024744952
:10136000002474C900238365C36503664366C0F81F
:101370008C30C0F89030C0F89430C0F89830C0F885
:10138000BC30C0F8C030C0F8C430C0F8C830C0F8B5
:10139000EC30C0F8F030C0F8F430C0F8F830C0F8E5
:1013A0001C31C0F82031C0F82431C0F82831704712
:1013B0002DE9F04784B00F46019106460C4600E047
:1013C00001942546013428781FF0F8FE0028F7D153
:1013D00006F10208404620F0F3FF4146024604466B
:1013E000384621F05BF8B0F100080CBF0127002758
:1013F00003D0384604B0BDE8F08725440A222846C9
:1014000002A9019522F086FB029B019A003018BFC9
:10141000012093423070ECD9184602A9019322F0C2
:10142000BBFA0299019BF0609942E2D906F168008B
:10143000FFF7F6FD04460190002800F0DE804246EA
:1014400003A922F067FB039D031C18BF0123AC42D4
:1014500086F89C30A846C0F0BB80002B40F08C8101
:101460004FF07E520023C6F8B420C6F8B820C6F864
:10147000AC30C6F8B030A542A84640F220820195B3
:10148000002D00F02B822846002203A922F042FB07
:10149000039C031C18BF0123A04586F8CC302546C9
:1014A000C0F08180002B40F00D814FF07E52002370
:1014B000C6F8E420C6F8E820C6F8DC30C6F8E0300C
:1014C0004445F36A40F2F4810194002B00F0BE81A0
:1014D00096F8CC304FF00008C6F8D080002B40F0D2
:1014E0007B814FF07E53C6F8DC80C6F8E08025464D
:1014F000C6F8E430C6F8E830002D00F0DE810022A6
:1015000003A9284622F006FB039C031C18BF0123F5
:10151000AC4286F83830A04632D8002B40F0028129
:101520004FF07E52002332657265B364F364AC42BF
:101530008CBF204600200190002800F0BE810022D0
:1015400002A922F0E7FA019B003018BF0120307693
:1015500013B10298984252D81A7832B9B24BB349B3
:101560001868012201F07AF843E718460A220021A0
:1015700022F0D0FA003018BF012086F8340038E796
:10158000204603A922F008FA039DF063A8452C46E3
:1015900080F0A68103A9284622F0FEF996F838309B
:1015A000039C3064B9E7204603A922F0F5F9039CB7
:1015B000C6F8D000A542A04680F08881204603A945
:1015C00022F0EAF996F8CC30039CC6F8D40069E71B
:1015D000284603A922F0E0F9039DC6F8A000A8451B
:1015E0002C4680F07781284603A922F0D5F996F899
:1015F0009C30039DC6F8A4002FE70346ACE702A980
:1016000022F0CAF902A90446029822F0C5F905465B
:10161000014620461FF006FD002800F0098104F174
:10162000004325461C46019B3462F561002B93D094
:101630000298984290D90A2201A922F06BFA003050
:1016400018BF0120307401A9019822F093F91FF00E
:10165000CFF9019D70610022284603A922F05AFAB1
:10166000039C031C18BF0123A54286F8FC30A0464A
:1016700013D3002B40F0EC804FF07E520023C6F8CD
:101680001421C6F81821C6F80C31C6F81031AC4246
:101690008CBF2346002301935EE7204603A922F076
:1016A0007BF9039CC6F80001A045254680F00A811D
:1016B000204603A922F070F996F8FC30039CC6F886
:1016C0000401D6E7D6F8D41008461FF0E7F9D6F89B
:1016D000D890494682461FF0E1F951460546C6F8C2
:1016E000E40048461FF0D8F929461FF093FBD6F8CE
:1016F000D010C6F8E80008461FF0D0F9014682462F
:1017000048461FF0CBF929461FF084FB5146C6F826
:10171000DC0048461FF0C0F929461FF07BFBC6F8E5
:10172000E000CDE6316C08461FF0B8F9D6F84490D9
:10173000494682461FF0B2F9514680463065484618
:101740001FF0AAF941461FF065FBF16B7065084672
:101750001FF0A4F90146824648461FF09FF9414612
:101760001FF058FB5146B06448461FF095F94146BA
:101770001FF050FBF064DAE6D6F8A41008461FF01C
:101780008DF9D6F8A890494682461FF087F9514650
:101790008046C6F8B40048461FF07EF941461FF067
:1017A00039FBD6F8A010C6F8B80008461FF076F945
:1017B0000146824648461FF071F941461FF02AFB58
:1017C0005146C6F8AC0048461FF066F941461FF086
:1017D00021FBC6F8B0004EE6D6F8D41008461FF03C
:1017E0005DF9D6F8D850294682461FF057F9514680
:1017F0008146C6F8E40028461FF04EF949461FF01E
:1018000009FB4146C6F8E80028461FF047F949465B
:101810001FF000FB4946C6F8DC0028461FF0FAFA24
:101820002546C6F8E00067E67C010020CC80020077
:10183000294620461FF0CEFB00283FF4F4AE4FF0BF
:101840007E5128461FF028F90446ECE6254653E66B
:10185000D6F8041108461FF021F9D6F80891494638
:1018600082461FF01BF951468046C6F814014846CF
:101870001FF012F941461FF0CDFAD6F80011C6F854
:10188000180108461FF00AF90146824648461FF033
:1018900005F941461FF0BEFA5146C6F80C0148460C
:1018A0001FF0FAF841461FF0B5FAC6F81001EEE64F
:1018B00000240194002B7FF40BAE00234CE60023A0
:1018C0000193FAE7454696F8FC30D2E6A84696F82A
:1018D000CC30E7E5444696F89C30BEE52B463BE627
:1018E000454696F8383018E62DE9F043054687B0AE
:1018F000C06817460E461EF02FFD2A780092CDE9EB
:101900000201AB1C39463046674A20F0CDFA95F803
:101910007830044606EB0008C0EB0709002B00F006
:10192000BB80686F1EF018FD02460B4695F86910E3
:10193000E86E0491CDE902231EF00EFD95F86830A3
:101940005A4ACDE900014946404620F0ADFA4046EA
:1019500020F036FD0444D5F8A40095F89C901EF0C4
:10196000FBFCCDE90201D5F8A0001EF0F5FC06EB6A
:1019700004083A1B4B46CDE90001114640464C4A4B
:1019800020F092FA404620F01BFD0444D5F8D40024
:1019900095F8CC901EF0E0FCCDE90201D5F8D0001E
:1019A0001EF0DAFC06EB04083A1B4B46CDE90001B9
:1019B000114640463E4A20F077FA404620F000FDAE
:1019C0000444286C95F838901EF0C6FCCDE902015D
:1019D000E86B1EF0C1FC06EB04083A1B4B46CDE950
:1019E000000111464046324A20F05EFA404620F09F
:1019F000E7FC0444E86995F818801EF0ADFCCDE9D9
:101A00000201286A1EF0A8FCC4EB070E3219CDE9CA
:101A10000001434671461046254A20F045FA044429
:101A2000686995F810801EF097FCC4EB070E321918
:101A30004346CDE90001714610461E4A20F034FAB3
:101A40000444D5F8040195F8FC901EF085FCCDE91E
:101A50000201D5F800011EF07FFC06EB04083A1BDA
:101A6000CDE900014B4611464046114A20F01CFAD0
:101A7000404620F0A5FCE96A95F834300E4A0D1C6A
:101A8000044418BF0125391B3019009520F00CFAC9
:101A9000204407B0BDE8F08301A3D3E9002345E764
:101AA0000000000080842E410C810200BC800200F6
:101AB000B0800200188102002081020010B4019C55
:101AC000C46241628262036310BC70472DE9F84F23
:101AD000037C0446002B33D090F8FC30002B00F040
:101AE0004481436A416918681FF0E0F80546D4F85C
:101AF0001801D4F82811C4F81C5100F100401FF05F
:101B0000D5F8D4F80C11064628461FF0CFF8014648
:101B100030461EF0C3FFD4F820110646D4F8100159
:101B20001FF0C4F8014630461EF0B8FF2378C4F811
:101B30002051C4F82401C4F828013BB9BDE8F88F4E
:101B40000023C0F824312378002BF7D094F83830E4
:101B5000002B40F0DB80636A1D6894F8CC30C4F839
:101B60002C51002B00F0F880E36A002B00F0548128
:101B7000A76A1968D4F8D0001FF098F839681EF0E9
:101B80008DFF0546D4F8E800D4F8F810C4F8EC50FE
:101B900000F100401FF08AF8D4F8DC100646284611
:101BA0001FF084F8014630461EF078FFD4F8F0109C
:101BB0000646D4F8E0001FF079F8014630461EF0E2
:101BC0006DFFC4F8F05094F834A0D4F82C51C4F848
:101BD000F4000646C4F8F800C4F83001BAF1000F6A
:101BE00024D0396828461EF057FF1EF0B5FBA4A389
:101BF000D3E90023804689461EF092FE002840F07B
:101C0000E88040464946A0A3D3E900231EF06AFEBF
:101C100060B128461EF0A0FB9DA3D3E900231EF06F
:101C20003DFA1EF0E5FE0546C4F82C013146284673
:101C30001EF032FFE1681FF039F894F89C30C4F8C8
:101C4000340105463BB3D4F8B800D4F8C810C4F842
:101C5000BC5000F100401FF029F8D4F8AC10064643
:101C600028461FF023F8014630461EF017FFD4F82F
:101C7000C0100646D4F8B0001FF018F801463046F0
:101C80001EF00CFFC4F8C050C4F8C400C4F8C8006B
:101C9000C4F83401054694F86830002B6DD06378A1
:101CA000C4F88C50002B40F08A80D4F88800D4F817
:101CB000981000F100401EF0F9FFE16F064628463B
:101CC0001EF0F4FF014630461EF0E8FED4F89010F6
:101CD0000646D4F880001EF0E9FF014630461EF0AB
:101CE000DDFE94F87830C4F8940006464BB1676F77
:101CF00039461FF097F9002800F08480C4F89470EA
:101D00003E46C4F89860C4F890505AE0636A606D2B
:101D10001E68616EA66500F100401EF0C7FFA16C51
:101D2000054630461EF0C2FF014628461EF0B6FEAC
:101D3000E16D0546E06C1EF0B9FF014628461EF035
:101D4000ADFE94F8CC30E665054620666066C4F8C2
:101D50002C01002B7FF408AFA76A94F834A03E68EA
:101D6000D4F82C51C4F8306138E7436A41691868E7
:101D70001EF09CFFC4F82401E5E6C4F8385128465B
:101D8000D4F824111EF08AFE237EC4F83C010546D7
:101D900083B1E66931461FF045F940BB266A284603
:101DA00031461FF021F9226B38B3012316606370AE
:101DB000BDE8F88F226B10606370BDE8F88FD4F82F
:101DC0009460284631461EF069FE0546C4F8380185
:101DD000D5E728461EF0C0FA2DA3D3E900231EF054
:101DE0005BF91EF005FE0546C4F82C011EE7226BC8
:101DF000012316606370BDE8F88F002315606370DF
:101E0000BDE8F88F07F10047394630461FF0ECF87F
:101E100000287FF473AF74E794F834A0A76ABAF18E
:101E2000000F39D1D4F8F810D7F800B0D4F8F0602A
:101E3000D4F8E830C4F8ECB003F100401EF036FFEF
:101E4000D4F8DC10804658461EF030FF014640466C
:101E50001EF024FED4F8E010804630461EF026FF27
:101E6000014640461EF01AFEC4F8F0B00646C4F81B
:101E7000F400C4F8F800C4F83001AFE6AFF3008016
:101E8000182D4454FB210940182D4454FB2109C04E
:101E9000182D4454FB211940D4F8F060D7F800B055
:101EA000314658461EF0F8FD1EF056FA28A3D3E935
:101EB0000023804689461EF033FDE8B130461EF00F
:101EC0004BFA25A3D3E900231EF0E8F81EF090FD9D
:101ED000C4F8F0000646D4F8F8001EF03DFA1EA340
:101EE000D3E900231EF0DAF81EF082FDC4F8F800F2
:101EF0000146D7F800B09BE74046494618A3D3E90E
:101F000000231EF0EFFC10B9D4F8F81090E730462B
:101F10001EF022FA10A3D3E900231EF0BDF81EF034
:101F200067FDC4F8F0000646D4F8F8001EF014FA75
:101F300009A3D3E900231EF0AFF81EF059FDC4F841
:101F4000F8000146D7F800B072E700BFAFF3008099
:101F5000182D4454FB210940182D4454FB211940ED
:101F6000182D4454FB2109C090F86830017870B5F1
:101F700004460BB141F0020194F89C300BB141F0E2
:101F8000040194F8CC300BB141F0080194F83830DA
:101F90000BB141F01001237E0BB141F02001237CF5
:101FA0000BB141F0400194F8FC300BB141F08001DD
:101FB00094F834300BB141F48071324D2868FEF74B
:101FC000B1FA237863B9237E03B970BD216A28680A
:101FD000FEF784FAE1692868BDE87040FEF77EBA32
:101FE000E1682868FEF77AFA94F86830002B3FD150
:101FF00094F89C30002B30D194F8CC3013BB94F87B
:102000003830B3B9237C002BDDD0616928681D4EC0
:10201000FEF764FA94F8FC30002BD4D0D4F8001109
:102020003068FEF75BFA3068D4F80411FEF756FA10
:10203000C9E7E16B2868FEF751FA216C2868FEF7C2
:102040004DFADFE7D4F8D0102868FEF747FAD4F845
:10205000D4102868FEF742FAD1E7D4F8A010286817
:10206000FEF73CFAD4F8A4102868FEF737FAC3E765
:10207000E16E2868FEF732FA616F2868FEF72EFAE3
:10208000B6E700BF6C0100202DE9F041B14D0446D8
:102090002868FEF76DFAC0F3800200F00106C0F375
:1020A0004001C0F3C00384F89C20C0F30022C0F3B9
:1020B0000017267084F86810C0F38016C0F3C011B2
:1020C00084F8CC3084F83420C0F34013C20784F87D
:1020D0003870267484F8FC1023760AD43BB1286843
:1020E000FEF732FA20622868FEF72EFAE061BDE8BA
:1020F000F0812868FEF728FA94F86830E060002B39
:1021000038D14FF07E520023C4F88420C4F88820D0
:10211000E367C4F8803094F89C30002B40F0DB80FB
:102120004FF07E520023C4F8B420C4F8B820C4F89D
:10213000AC30C4F8B03094F8CC30002B40F08E8036
:102140004FF07E520023C4F8E420C4F8E820C4F81D
:10215000DC30C4F8E03094F83830002B4AD14FF02E
:102160007E52002322656265A364E364237C53BB33
:10217000237EB3E72868FEF7E7F9E0662868FEF7F4
:10218000E3F994F8683060670646002BB9D0E16E39
:1021900008461EF083FC704BC4F888300146C4F832
:1021A0008400206F1EF036FE6C49E067C4F88000A2
:1021B00030461EF019FF4FF00103002800F0C880E0
:1021C00084F87830A7E72868624EFEF7BDF994F8E6
:1021D000FC306061002B40F0C3804FF07E51002244
:1021E000237EC4F81411C4F81811C4F80C21C4F8E3
:1021F000102173E72868FEF7A7F9E0632868FEF767
:10220000A3F994F838302064002BA8D001461EF0C2
:1022100045FC676C394680461EF040FC4146064648
:10222000206538461EF038FC31461EF0F3FDE16BA8
:10223000606508461EF032FC0146804638461EF0B6
:102240002DFC31461EF0E6FD4146A06438461EF0E6
:1022500023FC31461EF0DEFDE06487E72868FEF7C8
:1022600073F9C4F8D0002868FEF76EF994F8CC3002
:10227000C4F8D400002B3FF463AF01461EF00EFCFF
:10228000D4F8D870394680461EF008FC4146064610
:10229000C4F8E40038461EF0FFFB31461EF0BAFDDC
:1022A000D4F8D010C4F8E80008461EF0F7FB014649
:1022B000804638461EF0F2FB31461EF0ABFD41462B
:1022C000C4F8DC0038461EF0E7FB31461EF0A2FDE4
:1022D000C4F8E0003FE72868FEF736F9C4F8A0002C
:1022E0002868FEF731F994F89C30C4F8A400002B5C
:1022F0003FF416AF01461EF0D1FBD4F8A870394662
:1023000080461EF0CBFB41460646C4F8B400384672
:102310001EF0C2FB31461EF07DFDD4F8A010C4F8BB
:10232000B80008461EF0BAFB0146804638461EF04B
:10233000B5FB31461EF06EFD4146C4F8AC00384690
:102340001EF0AAFB31461EF065FDC4F8B000F2E6AF
:10235000034635E76C010020000080BF0000C64244
:102360003068FEF7F1F8C4F800013068FEF7ECF8C9
:1023700094F8FC30C4F80401002B3FF42EAF014662
:102380001EF08CFBD4F80871394680461EF086FB9F
:1023900041460646C4F8140138461EF07DFB31461E
:1023A0001EF038FDD4F80011C4F8180108461EF0DC
:1023B00075FB0146804638461EF070FB31461EF024
:1023C00029FD4146C4F80C0138461EF065FB314634
:1023D0001EF020FD237EC4F810017FE638B5841C72
:1023E00020460D461FF0ECFF29460246204620F00D
:1023F00055F8B0FA80F0400938BD00BF70B5054609
:10240000436AD5F830611B68D0F82C0188600C460F
:102410004B6031461EF040FBE9681EF047FC2B6B19
:10242000D5F89420D5F834112161E06062611A6812
:10243000AB6AA2611A68D5F8243163622662E26150
:1024400070BD00BF2DE9F041E0B0002A00F0C78068
:102450000C46002900F0C380654E05461746984695
:10246000644AAB1C4FF4967115A81FF01DFD0122A4
:1024700015A9306800F0F2F840461DF05BFF00221D
:102480005D4B1EF0E7F83B46CDE900015B4A4FF497
:10249000967115A81FF008FD15A90122306800F0FB
:1024A000DDF8EB6A564A003318BF01234FF49671EA
:1024B00015A81FF0F9FC15A90122306800F0CEF82C
:1024C00050493068012200F0C9F84F4930680122B4
:1024D00000F0C4F84D493068012200F0BFF84C49C3
:1024E0003068012200F0BAF84A493068012200F051
:1024F000B5F849493068012200F0B0F84749306822
:10250000012200F0ABF846493068012200F0A6F83D
:1025100044493068012200F0A1F8434930680122A3
:1025200000F09CF841493068012200F097F83068CB
:102530003F49012200F092F8002FC8BF002546DD78
:10254000606A1DF009FFCDE91201206A1DF004FF49
:10255000CDE91001E0691DF0FFFECDE90E01A06993
:102560001DF0FAFECDE90C0160691DF0F5FECDE924
:102570000A0120691DF0F0FECDE90801E0681DF0B8
:10258000EBFECDE90601A0681DF0E6FECDE90401F1
:1025900060681DF0E1FECDE9020154F8280B1EF041
:1025A00031FB1DF0D9FE144B00221EF053F8214AD6
:1025B000CDE900014FF4967115A81FF075FC0135A7
:1025C000012215A9306800F049F8AF42B8D130684F
:1025D0001949012200F042F860B0BDE8F081044BD7
:1025E00016491868012200F039F860B0BDE8F081A2
:1025F0007C0100203C810200000059405081020013
:1026000080810200B0810200C4810200D8810200F2
:1026100008820200288202004482020078820200BE
:1026200098820200C4820200DC820200048302005D
:1026300028830200408302003083020028810200C8
:1026400008B50A220021044821F064FA00EB80005A
:102650004000013080B208BD848302002DE9F047BC
:1026600090F90090B9F1010F84B00C4647D0DFF823
:1026700008813D4F03AD20461FF0A2FE061E70DD0F
:10268000A0192246002312F8011B82420B44FAD102
:10269000364883FB00011944DA17C2EBA11202EBA2
:1026A000420202EB42129B1A0133314ADFF8B89022
:1026B000042128461FF0F8FB03212846D8F80080A3
:1026C00014F01AFC3146204614F016FC3868837862
:1026D0008BB103787BB10123294600930322434643
:1026E000002503F0D3FDD9F800000095434632469B
:1026F000214603F0CBFD012004B0BDE8F087C3788C
:10270000064603AD1BB9DFF87080174FB3E71823F7
:10271000174ADFF86480144F042128461FF0C4FBD9
:1027200003212846D8F800A014F0E6FB0221114846
:1027300014F0E2FB3868837883B1037873B15346B1
:1027400003222946CDF8009003F0A0FD002238684E
:10275000084900925346022203F098FD0023F370CB
:1027600089E70123A1E700BF8001002003B57EA512
:10277000A88302003C9302003401002010B50A2215
:102780009CB0044600210F4821F0C4F900EB800002
:102790004000013080B21EF031FA1DF0DDFD0A4B21
:1027A00000221DF057FF094ACDE9000103A864216A
:1027B0001FF07AFB03A920460122FFF74FFF1CB050
:1027C00010BD00BF8483020000002440B0830200DB
:1027D00010B5E8B0104B03921B68029104461846EE
:1027E0001EF00CFA1DF0B8FD09A3D3E900231DF07B
:1027F00007FE0A4ACDE9000104A84FF4C8711FF092
:1028000053FB04A920460022FFF728FF68B010BD43
:102810007B14AE47E17A643F30010020C0830200A0
:102820002DE9F04F0622D3B00C4606460846B249C1
:102830001FF034FE002800F0A1800722AF49204697
:102840001FF02CFE68B9E379202B04F1070403D1B3
:1028500014F8013F202BFBD00122A9493046FFF795
:10286000FDFEA84D2146286801F0F6FA10B153B0DC
:10287000BDE8F08FA44F214638680AF0B7F8002869
:10288000F5D1DFF8DC822146D8F8000004F02EFEF6
:102890000028ECD1DFF8CC922146D9F8000003F0F3
:1028A00041FE0028E3D1DFF8C0A22146DAF800009B
:1028B00009F06AF90028DAD1DFF8B0B22146DBF876
:1028C00000000CF05FF90028D1D1904B2146186828
:1028D000FEF7B2F80028CAD18D4B214618680BF0DC
:1028E00023FE0028C3D18B4B2146186807F048FD12
:1028F0000028BCD1884B2146186805F071FE0028DD
:10290000B5D1864B2146186806F04AFE0028AED1A4
:10291000834B21461868FDF7B1FF0028A7D1814BF2
:102920002146186809F0AAFD019000289FD10422D1
:102930007D4920461FF0B2FD019B78B362783D2AA5
:1029400000F0B8800622794920461FF0A7FD054611
:10295000002840F09D80201D3D211FF0F3FA002843
:1029600000F09480294601300A2221F0D3F800308B
:1029700018BF01200023B070737078E701226C4902
:102980003046FFF76BFEA379202B04F106047FF499
:1029900068AF14F8013F202BFBD062E7D8F8003075
:1029A000644A0C3302A84FF4A0711FF07DFA02A90B
:1029B00001223046FFF752FE96F900305E4A02A827
:1029C0004FF4A0711FF070FA02A901223046FFF700
:1029D00045FE02A84D2259491EF00CFF02A9012212
:1029E0003046FFF73BFE564B564A02A84FF4A07103
:1029F0001FF05AFA02A901223046FFF72FFEDFF836
:102A000070E1BEE80F0002AC0FC4BEE80F000FC4B7
:102A1000DEF8003024F8023B1B0C02A901222370CF
:102A20003046FFF71BFE3D4B186805F015FF3A4B8B
:102A3000186804F0DBFF444B186801F0C5FB2868F8
:102A400001F0CEF8D9F8000003F042FD386809F033
:102A50009FFFD8F8000004F0DDFCDAF8000009F070
:102A600079F8DBF800000CF053F8284B1868FDF7F4
:102A7000C7FF274B18680BF01FFD264B186807F09F
:102A80005DFC274B1868FDF7F3FCF0E601206EE7CC
:102A900004222E4920461FF001FD08B307222C49CD
:102AA00020461FF0FBFC78B1224630462949FFF74B
:102AB0008FFEDCE62278692A18D11946A01C0A226A
:102AC00021F028F83070D2E602A81D4B224A782166
:102AD0001FF0EAF902A930460122FFF7BFFDC6E662
:102AE000194B211D186802F03DF8C0E62246304619
:102AF0001A49FFF76DFEBAE6D0830200F8830200A0
:102B000000840200500100205401002060010020D8
:102B100064010020680100204001002048010020DD
:102B20006C01002044010020208402007485020012
:102B3000D88302002884020058840200C484020062
:102B40007483020014850200800100207C8502004D
:102B5000848502009C850200908502005085020059
:102B6000580100204C010020840100205C0100205D
:102B70002C85020070B5D0F8CC3084B004469BB9E7
:102B80003E4A1F291268C0F8D02027D894F9003097
:102B9000012B1AD00A2932D00D2930D0D4F8CC30EC
:102BA000C62B20DC04B070BD1F29EFD9C218C62B7C
:102BB000117114DD0023012280F8D420C0F8CC303C
:102BC000037194F90030012BE4D16378002BE1D13B
:102BD0000846039114F058FA0399DBE701710133B9
:102BE000C4F8CC30D2E7234400251D7101222449CA
:102BF0002046FFF733FDC4F8CC5004B070BD94F804
:102C0000D43053BBD4F8CC20002A1DDD1D4B1868EE
:102C100003788BB183787BB1A3180A211971251D24
:102C20004FF0FF36D4F8D03000960132294603F039
:102C30002DFBD4F8CC2000E0251D2244002329469A
:102C400013712046FFF7ECFD94F90050012D0DD0D3
:102C50000023C4F8CC3004B070BD002384F8D43015
:102C6000012209492046FFF7F9FCF1E72A46074906
:102C70002046FFF7F3FCE570EAE700BF34010020CF
:102C8000CC85020080010020A8850200C4850200D6
:102C9000F8B5074614F0B2F8142804DC00280646FC
:102CA00010D001DCF8BD1426002414F06BF8051ECA
:102CB00004F10104A5F10A0306DB752B05D9B44222
:102CC000F3DBF8BD7B78BBB1F8BD7B7843B10A2D4F
:102CD00001D00D2D04D1012215493846FFF7BEFC65
:102CE000144A00231268C7F8D820E9B27B7038462E
:102CF000BDE8F840FFF73EBFBB78002BE4D00D4A9B
:102D0000D7F8D81013685B1AB3F57A6F0ED997F914
:102D100000301268C7F8D82013B101237B70F8BDCA
:102D2000012205493846FFF799FCF6E7F8BD00BFD8
:102D30002886020034010020E8850200F0B5151E47
:102D400085B00C463BDD48190A46002312F8011BEA
:102D500082420B44FAD11B4883FB00011944DA1765
:102D6000C2EBA11202EB420202EB42129B1A0133A8
:102D7000154A164E042103A81FF096F8144B0321A0
:102D800003A81F6814F0B8F82946204614F0B4F8D8
:102D90003068837883B1037873B1012303A900936A
:102DA00003223B4603F072FA306800263B462A466F
:102DB0002146009603F06AFA012005B0F0BD012318
:102DC000D6E700BF03B57EA5A883020080010020DE
:102DD0003401002010F0D2BDF0B541F658320F2476
:102DE000DFF830E0C0F8381108270021AC2640F2A7
:102DF000137582600422C0F800E080F828704685D0
:102E000085850471C47141714173827180F82720F6
:102E1000F0BD00BFA08601002DE9F047478D0023DB
:102E20000446037338461DF0E9FEA68D8046304601
:102E30001DF0E4FE41461DF02FFE814601464FF095
:102E400080401DF0E7FF4FF07C51054648461DF0DD
:102E50002DFF41461DF022FE294600F100401DF0E5
:102E600025FFE7850346C4F8B000C4F8B400C4F8F1
:102E7000B800C4F8BC00C4F8C000A4F84E602786AF
:102E8000A4F850606786A4F85260A786A4F854603E
:102E9000E786A4F856602787A4F858602567656719
:102EA000A567E567C4F88050C4F88450C4F8C4002E
:102EB000C4F8C800C4F8CC00C4F8D000C4F8D400EA
:102EC000C4F8D800C4F8DC00C4F8E000C4F8E4009A
:102ED0006787A4F85A60A787A4F85C60E787A4F81E
:102EE0005E60A4F84070A4F86060A4F84270A4F892
:102EF0006260A4F84470A4F86460A4F84670A4F872
:102F00006660A4F84870A4F86860C4F88850C4F8F3
:102F10008C50C4F89050C4F89450C4F89850C4F839
:102F20009C50C4F8A050C4F8A450A4F84A70D4F837
:102F30003801A4F86A60A4F84C70A4F86C60C4F876
:102F4000A850C4F8E830C4F8AC50C4F8EC300368BA
:102F500021681B6A4FF49B72BDE8F047184700BF19
:102F600030B43C4B02791A70002966D00A885A7036
:102F70000A884C88C2F3022242EAC4029A704A8844
:102F80008C88C2F3451242EA8412A410DA701C71D4
:102F90008C88CA88C4F3802444EA42045C710C899A
:102FA000C2F3C31242EA04129A714A89C4F30614A6
:102FB00044EAC21455101D72DC718C89C2F341229F
:102FC00042EA84025A72CA89C4F3841444EA42145D
:102FD000D2109C72DA720A8A1A734C8AC2F30222E5
:102FE00042EAC4025A738A8AC4F3451444EA82143A
:102FF00095109C73DD73CD8AC2F3802242EA4502AC
:103000001A740C8BC5F3C31545EA04155D744A8B1D
:10301000C4F3061444EAC21455109C74DD748C8BFE
:10302000C2F3412242EA84021A75CA8BC4F38414A3
:1030300044EA4214D2105C759A750022DA7542791E
:10304000D0F838011A76036802495B68192230BC4F
:10305000184700BF7C16FF1F2DE9F04F8FB00F46B9
:103060000590202206A800211EF0C2FC002F56D099
:10307000059A02F2271304931346AC3203921A46C0
:103080006C3302930DF11603019302F584794FF02E
:1030900000081BE03868039B53F8041F03931DF0DE
:1030A000FBFC029B53F8041F02931DF0B3FE1DF0BE
:1030B000FFFF019B08F1040823F8020FB8F1400F4D
:1030C00007F1040709F10109019328D0049A12F8C5
:1030D000013F0492002BDDD0059B99F80050D3F8F6
:1030E000F43053F80840BCB1012D206812D94FF0DC
:1030F000010B3E68DA4601460AF1010A30461DF02E
:10310000D5FD5FFA8AFA54F82B101DF0C7FC55451F
:10311000D346F0D83860BEE700203860BBE706A988
:103120000598FFF71DFF0FB0BDE8F08FF8B50D460D
:1031300000EB41010446CA85A1F84E3010461F46F7
:103140001DF05CFD064638461DF058FD31461DF069
:10315000A3FC014607464FF080401DF05BFE04EBE8
:1031600085044FF07C510546206738461DF09EFDD2
:1031700031461DF093FC294600F100401DF096FDFC
:10318000C4F8B000F8BD00BF3AB133B100EB410163
:10319000C88D1080B1F84E201A807047D2B32DE947
:1031A000F843D0F8F060144698468946074696B32F
:1031B0000FFA89F556F8250028B31EF045F84FEAB6
:1031C0008800D7F8F0601EF037F846F82500B8F10F
:1031D000000F10D0D7F8F03008F1FF3653F8255023
:1031E000F6B2043D04EB8606221F52F8044F45F860
:1031F000044FB242F9D14F44012387F8F88087F891
:103200001831BDE8F8834FEA88001EF015F846F83B
:103210002500DCE7704740201EF00EF8C7F8F000EC
:103220000646C5E7D2B130B4451895F8F840A4B1C8
:103230009BB1D0F8F00050F82100043A0438002186
:1032400001E08B4209D050F8044F42F8044F01319D
:1032500095F8F840C9B28C42F3D830BC704700BF33
:10326000D2B32DE9F843D0F8F46014469846894665
:10327000074696B30FFA89F556F8250028B31DF0D6
:10328000E3FF4FEA8800D7F8F4601DF0D5FF46F859
:103290002500B8F1000F10D0D7F8F43008F1FF3650
:1032A00053F82550F6B2043D04EB8606221F52F86F
:1032B000044F45F8044FB242F9D14F44012387F837
:1032C000088187F82831BDE8F8834FEA88001DF0AF
:1032D000B3FF46F82500DCE7704740201DF0ACFF47
:1032E000C7F8F4000646C5E7D2B130B4451895F8E2
:1032F0000841A4B19BB1D0F8F40050F82100043A81
:103300000438002101E08B4209D050F8044F42F804
:10331000044F013195F80841C9B28C42F3D830BC52
:10332000704700BF38B5D0F8F030054663B10024CF
:103330001859043418B11DF087FFD5F8F030402C2F
:10334000F6D118461DF080FFD5F8F43063B10024A3
:103350001859043418B11DF077FFD5F8F430402C1B
:10336000F6D118461DF070FF284638BDF8B52F4D30
:10337000EB69DB07044646D50FF0C8FC2B6AA26850
:10338000C01A82423CBF0023237300260127D4F8D1
:10339000380103681B699847002832DD0FF0B6FC3E
:1033A000D4F8383128621A68184653699847237B45
:1033B000C0B2A0738BB92379834202D026736073A5
:1033C000E5E7627B6379934204D0E379A179134006
:1033D0009942F3D127736073D9E7182B04DCE21804
:1033E0000133DBB290732373192BE8D163798342E5
:1033F00017D0E379A2791840824212D000202073BE
:10340000F8BD0020F8BD05F11C0012F081FB00287A
:10341000B2D00FF07BFC286205F11C0012F07EFB9D
:10342000AAE7002323730120F8BD00BF7C16FF1F0D
:103430002DE9F0410D46174698460446FFF796FFE2
:10344000002800F0A580002D00F08E80227CE37B18
:1034500043EA0223C3F30A032B80637C227C5B01D3
:1034600043EAD203C3F30A036B80A27C637CE17C52
:10347000920042EA931343EA8123C3F30A03AB8029
:10348000237DE27CDB0143EA5203C3F30A03EB80B2
:10349000637D227D1B0143EA1213C3F30A032B81D0
:1034A000A27D637DE17D520042EAD31343EA4123CA
:1034B000C3F30A036B81237EE27D9B0143EA9203FF
:1034C000C3F30A03AB81637E227EDB0043EA52131F
:1034D000EB81E27EA37E43EA0223C3F30A032B823D
:1034E000237FE27E5B0143EAD203C3F30A036B82CC
:1034F000217F637FA27F9B0043EA911141EA8221F1
:10350000C1F30A01A982E37FA27FDB0143EA5203F0
:10351000C3F30A03EB8294F82030E27F1B0143EAF5
:103520001213C3F30A032B8394F8216094F820103C
:1035300094F82230760046EAD11141EA4321C1F3E2
:103540000A01698394F8233094F822209B0143EA0E
:103550009203C3F30A03AB8394F8243094F8232036
:10356000DB0043EA5213EB83B8F1000F08D094F864
:10357000253094F82720134018BF012388F8003025
:1035800037B194F8253094F82820134002D13B70CD
:10359000BDE8F08101233B70BDE8F0812DE9F04FDB
:1035A0008FB00F4606A904460490FFF741FF05902F
:1035B00000284FD023466C3322460DF116010293AA
:1035C000AC3204F2171303910192009304F1F8094D
:1035D0004FF00008039B33F8020F03931DF012FB1A
:1035E000029B53F8041F02931DF060FB019B53F8EC
:1035F000041F01931DF052FA009A12F8013F009245
:1036000004463860EBB1049B99F80060D3F8F030C1
:1036100053F8085015B3012E296811D94FF0010B4A
:10362000DA4620461DF042FB55F82B101DF036FA05
:103630000AF1010A5FFA8AFA56450146D346F0D8E4
:10364000396008F10408B8F1400F07F1040709F1E7
:103650000109BFD105980FB0BDE8F08F0021EFE759
:10366000F8B500EB410500EB8104E88D1DF0C6FACA
:103670000646B5F84E001DF0C1FA31461DF00CFAB1
:10368000014607464FF080401DF0C4FB4FF07C51CF
:103690000546206738461DF009FB31461DF0FEF94E
:1036A000294600F100401DF001FBC4F8B000F8BD50
:1036B000CAB10129106815D92DE9F0410125164636
:1036C00098460F462C460146013440461DF0EEFA5E
:1036D000E4B256F825101DF0E1F9BC422546F2D3BC
:1036E000BDE8F08170470020704700BF38B5044640
:1036F0000023264A26492748A361E36123626362C7
:10370000A362E362236363632264A2642265A0630D
:10371000E1636164E1644FF4A07016F08FFE1E490E
:103720000546FDF7D5FD25604FF4A07016F086FE26
:103730001A490546FDF7CCFD65604FF4A07016F000
:103740007DFE17490546FDF7C3FDA5604FF4A07047
:1037500016F074FE13490546FDF7BAFDE5604FF417
:10376000A07016F06BFE10490546FDF7B1FD25610E
:103770004FF4A07016F062FE0C490546FDF7A8FD57
:103780000023656184F85C30204638BD0000A0400D
:103790000000A0C000007A444C8702005487020059
:1037A0005C870200648702006C8702007487020055
:1037B00038B5044600681A4DFEF7D6FB6068FEF780
:1037C000D3FBA068FEF7D0FBE068FEF7CDFB2069D5
:1037D000FEF7CAFB6069FEF7C7FB616B2868FCF760
:1037E0007DFEA16B2868FCF779FEE16B2868FCF789
:1037F00075FE216C2868FCF771FE616C2868FCF787
:103800006DFEA16C2868FCF769FEE16C2868FCF786
:1038100065FE216D2868BDE83840FCF75FBE00BF3B
:103820006C01002038B5044600681D4DFEF72CFCE5
:103830006068FEF729FCA068FEF726FCE068FEF74A
:1038400023FC2069FEF720FC6069FEF71DFC286858
:10385000FCF77AFE60632868FCF776FEA0632868B0
:10386000FCF772FEE0632868FCF76EFE20642868AF
:10387000FCF76AFE60642868FCF766FEA0642868AE
:10388000FCF762FEE0642868FCF75EFE054B2065ED
:10389000012218680449BDE83840FEF7DFBE00BFCA
:1038A0006C0100207C0100207C8702002DE9F043A0
:1038B000274B284F1A683B68274D83B00446111DDB
:1038C000C0680091083204F124010433FEF7F6F8D1
:1038D00026463B682A6856F81C0B4FF0000804F196
:1038E000180949460833C832CDF80080FEF7E6F8DB
:1038F0003B682A686068CDF8008031460C33CC32D2
:10390000FEF7DCF83B682A68A068CDF8008004F177
:1039100020011033D032FEF7D1F82A68206902F175
:10392000C8014B46009102F5FE7204F12801FEF732
:10393000C5F82A68606902F1CC010091334602F5AE
:10394000007204F12C01FEF7B9F803B0BDE8F08372
:10395000680100204C010020480100202DE9F043BF
:10396000B1B00C460891064600E0089425460134A3
:1039700028781DF023FC0028F7D1202128461EF0CE
:10398000E1FA099000287ED0284609A920F004F821
:1039900009A9804609981FF0FFFF09A90746099861
:1039A0001FF0FAFF08A9054609981FF0F5FF089ACD
:1039B000099B9A4204465CD9444B1B6893F831300A
:1039C0004BB9434B434918680122FEF747FE0120DB
:1039D00031B0BDE8F083D6F83490404649461DF03A
:1039E00003FB00283AD0C6F82490D6F83C8038462D
:1039F00041461DF0F9FA38B3C6F82880776C28469E
:103A000039461DF0F1FAB0B1F762F56C204629464F
:103A10001DF0EAFA50B9356D204629461DF002FB2B
:103A200020B90120346331B0BDE8F0830120356353
:103A300031B0BDE8F083B76C284639461DF0F2FA84
:103A40000028E1D1F562E0E7D6F8408038464146EB
:103A50001DF0E8FA0028CFD1B762CFE7D6F838904A
:103A6000404649461DF0DEFA0028BCD1C6F8248045
:103A7000BBE7174B184918680122FEF7EFFD01203C
:103A800031B0BDE8F083306B1CF066FCCDE9060177
:103A9000F06A1CF061FCCDE90401B06A1CF05CFC2A
:103AA000CDE90201706A1CF057FC0C4ACDE9000117
:103AB0000AA896211EF0F8F9054B0AA918680122F8
:103AC000FEF7CCFD012031B0BDE8F08358010020A5
:103AD0007C010020A4870200B8870200F087020062
:103AE00070B5B8B00C461091064600E0109425461B
:103AF000013428781DF062FB0028F7D120212846E8
:103B00001EF020FA119040B311A928461FF044FF7F
:103B100011A9706311981FF03FFF11A9B0631198AC
:103B20001FF03AFF00F100433064F36311A91198CC
:103B30001FF032FF00F10043B064736410A91198C4
:103B40001FF02AFF109A119B30659A4200F1004045
:103B5000F06438D0012038B070BD306D1CF0FCFB33
:103B6000CDE90E01F06C1CF0F7FBCDE90C01B06C57
:103B70001CF0F2FBCDE90A01706C1CF0EDFBCDE905
:103B80000801306C1CF0E8FBCDE90601F06B1CF07D
:103B9000E3FBCDE90401B06B1CF0DEFBCDE90201D3
:103BA000706B1CF0D9FB0B4ACDE9000112A89621DD
:103BB0001EF07AF9084B12A918680122FEF74EFD93
:103BC000012038B070BD044B044918680122FEF78B
:103BD00045FDBFE7408802007C0100200488020008
:103BE00010B51A4C1A4920680122FEF737FD2068EB
:103BF00018490122FEF732FD206817490122FEF71D
:103C00002DFD206815490122FEF728FD2068144982
:103C10000122FEF723FD206812490122FEF71EFD56
:103C2000206811490122FEF719FD20680F49012281
:103C3000FEF714FD20680E490122FEF70FFD2068F3
:103C40000C490122BDE81040FEF708BD7C010020B0
:103C50007088020088880200B4880200FC88020094
:103C6000448902007C890200C48902000C8A020097
:103C7000388A02008C8A020038B5044600680D4676
:103C8000FDF796FB40B1184B184918680122012432
:103C9000FEF7E4FC204638BD29466068FDF788FB46
:103CA0000028F0D12946A068FDF782FB0028EAD160
:103CB0002946E068FDF77CFB0028E4D1294620690D
:103CC000FDF776FB0028DED160692946FDF770FB21
:103CD00004460028D7D1044B054918680122FEF795
:103CE000BDFC204638BD00BF7C010020C48A020014
:103CF000B48A020030B53A4B04460D4693E80700FB
:103D0000C5B06B4603C300211A700DF1090040F2E3
:103D100005121DF06DFE29462068FEF75FFBA8B175
:103D200020684FF4837202A9FDF7DEFD0830C0F56C
:103D300087722C4968441EF001FC2B4B69461868B9
:103D40000122FEF78BFC012045B030BD294660689A
:103D5000FEF744FB38B160684FF4837202A9FDF7A7
:103D6000C3FD0830E3E72946A068FEF737FB60B9DA
:103D70002946E068FEF732FB78B1E0684FF48372C1
:103D800002A9FDF7B1FD0830D1E7A0684FF48372B6
:103D900002A9FDF7A9FD0830C9E729462069FEF709
:103DA0001DFB68B929466069FEF718FB054678B126
:103DB00060694FF4837202A9FDF796FD0830B6E7FB
:103DC00020694FF4837202A9FDF78EFD0830AEE73B
:103DD000054B064918680122FEF740FC2846B3E768
:103DE0003C860200D49502007C010020D08A0200AB
:103DF000F8B507460D462C46013520781DF0DEF952
:103E00000028F8D1202120461EF09CF8D0B1451E94
:103E100015F8016F30461DF0D1F90028F8D1202E99
:103E200010D921463846FFF727FF044644B9084B0E
:103E3000084918680122FEF711FC3846FFF7D0FE4A
:103E40002046F8BD21463846FFF754FF0446EDE70B
:103E50007C010020E88A0200F8B504220C460746DF
:103E6000084626491EF01AFB98B103222449204631
:103E70001EF014FB80B30522224920461EF00EFBE3
:103E800008B10020F8BD611D3846FFF729FE01206A
:103E9000F8BD04342546013428781DF08FF9002838
:103EA000F8D1202128461EF04DF880B1441E14F8A8
:103EB000016F30461DF082F90028F8D1202E06D976
:103EC00029463846FFF7D8FE60B10120F8BD2946E3
:103ED0003846FFF70FFFF7E7E11C3846FFF73EFDD6
:103EE0000120F8BD084B094918680122FEF7B6FB0E
:103EF0003846FFF775FE0120F8BD00BF008B0200B9
:103F0000088B0200108B02007C010020E88A02006E
:103F100010B504460068FDF725FA6068FDF722FA3F
:103F2000A068FDF71FFAE068FDF71CFA2069FDF7AD
:103F300019FA6069FDF716FA0023A361E3612362B1
:103F40006362A362E362236310BD00BF38B590F8DB
:103F50005C30002B48D00446C0680378002B44D165
:103F6000324D20692B68626A5A600378002B44D175
:103F700060690023A3610378002B45D10023E3612E
:103F80002068226B03782262002B4AD12B68002222
:103F90009A6060680378002B3FD12B680022DA60BA
:103FA000A0680378002B33D12C6800232361656857
:103FB0001F4928461DF018F8B0B128461C491CF0CE
:103FC00029FF01460546A0681CF070FE2378A0601A
:103FD000032B09D02946E0681CF068FE2946E06002
:103FE00020691CF063FE206138BD0021FDF76EFDE5
:103FF00020690E4D0378002BBAD00021FDF766FD35
:1040000060690378002BB9D00021FDF75FFDB7E7A9
:104010000021FDF75BFD2C68C9E70021FDF756FD87
:10402000BEE70021FDF752FDB3E700BF4C010020C1
:10403000000048432DE9F041476B044638461646D8
:104040001D4688461CF0EEFF30B9A76B4046394646
:104050001CF0E8FF002831D06762E76B3146384634
:104060001CF0E0FF28B9276C304639461CF0DAFF17
:1040700010B3A762666C294630461CF0D3FF28B9FE
:10408000A66C284631461CF0CDFF98B1E662E56C7F
:10409000069928461CF0C6FF48B9256D06982946A2
:1040A0001CF0C0FF18B9069B2363BDE8F0812563AF
:1040B000BDE8F081E562EAE7A662DBE7C4F82480A8
:1040C000CBE700BF0FF05ABC30B51E4C1E4B436708
:1040D0000546CFB020681D490122FEF7BFFAEA6904
:1040E0006B69009203A81A4A4FF496711DF0DCFE2A
:1040F00003A920680122FEF7B1FA206815490122C0
:10410000FEF7ACFA144B0022CDE9002303A8134AB2
:104110004FF496711DF0C8FE03A920680122FEF736
:104120009DFA20680E490122FEF798FA20680D4991
:104130000122FEF793FA20680B490122FEF78EFA5E
:104140004FB030BD7C010020A016FF1F188B02006D
:10415000248B0200408B0200000004405C8B0200B4
:10416000888B0200BC8B0200D88B0200F0B40122C5
:104170001349144DC2600A2400224FF07E570026D6
:10418000076106620563C461C46302704270827095
:1041900082604261826142628262C26280F834203F
:1041A0008263C26580F8642080F86C204164C16439
:1041B00041650166816601674167F0BC704700BFD9
:1041C000A016FF1FA086010070B5374D374E0FCDEA
:1041D000CEB003AC0FC40FCD0FC40FCD0FC495E804
:1041E0000F0007C4324D24F8023B03A91B0C3068B2
:1041F00023700122FEF732FA0FCD03AC0FC40FCDAE
:104200000FC40FCD0FC495E8030044F8040B01223E
:1042100021803068274D03A9FEF720FA03A8612208
:1042200025491DF0E7FA03A930680122FEF716FAC6
:104230000FCD03AC0FC40FCD0FC40FCD0FC495E845
:104240000F0007C424F8023B1B0C237003A930683D
:104250001A4D0122FEF702FA194B1A4A19684B69E6
:10426000C969009103A84FF496711DF01DFE03A9C2
:1042700030680122FEF7F2F90FCD03AC0FC495E8C8
:104280000F0007C403A9306823800122FEF7E6F976
:1042900003A847220C491DF0ADFA03A9306801229A
:1042A000FEF7DCF94EB070BDF08B02007C010020FF
:1042B000308C0200CC8C0200688C02003C8D020025
:1042C000800100200C8D02005C8D020000B50023EF
:1042D0009BB08370074A4369642101A81DF0E4FD87
:1042E000054B01A918680122FEF7B8F91BB05DF86B
:1042F00004FB00BFA48D02007C01002030B5044601
:104300009DB000691CF028F800221F4B1CF0A2F998
:104310001BA3D3E900231CF09DF91CF069FB1AF0E4
:1043200043F91CF09FFE194BE0601B68A360012558
:104330000023636184F8403084F8483084F85830B2
:1043400084F8503084F8643023704EF66022A570F3
:104350002B210F481DF04CFBE368206902931BF0F2
:10436000FBFF0C4ACDE9000105A85A211DF09CFD78
:10437000094B2A4605A91868FEF770F91DB030BD33
:104380007B14AE47E17A643F00408F40300100204B
:10439000A016FF1FC88D02007C01002070B50446E6
:1043A000B6B000692A4E1BF0D7FF0022294B1CF043
:1043B00051F925A3D3E900231CF04CF91CF018FB9C
:1043C0001AF0F2F81CF04EFE234BE0601B68A3606D
:1043D00001250023636184F8403084F8483084F874
:1043E000583084F8503084F8643023704EF66022E0
:1043F000A5702B2119481DF0FBFAE3682069029390
:104400001BF0AAFF164ACDE9000104A85A211DF0AD
:104410004BFD2A4604A93068FEF720F940F2537399
:104420004EF66022E36184F8405004A80092C8214F
:104430000C4A1DF039FD2A4604A93068FEF70EF932
:1044400036B070BDAFF300807B14AE47E17A643FB5
:104450007C01002000408F4030010020A016FF1F8B
:10446000C88D0200F08D020090F85820034612B962
:1044700090F8482042B19A782AB90C495A610A68E2
:104480009A6001229A70704790F86420002AF2D155
:1044900090F85020002AEED190F84020002AEAD16E
:1044A00090F86C20002AE6D1FFF778BF3001002099
:1044B00070B58369591CDEB002463FD0466C10933C
:1044C0005D017419E0691BF047FFCDE90E01A06999
:1044D0001BF042FFCDE90C0120691BF03DFFCDE947
:1044E0000A0160691BF038FFCDE90801E0681BF0A4
:1044F00033FFCDE90601A0681BF02EFFCDE90401D2
:1045000060681BF029FFCDE9020170591CF07AFBAD
:104510001BF022FF2C4B00221CF09CF82B4ACDE90B
:10452000000113A84FF496711DF0BEFC284B13A98F
:1045300018680122FEF792F85EB070BDC068556938
:10454000234C1BF0F7FE00221F4B1CF083F82B4678
:10455000CDE900011F4A13A84FF496711DF0A4FC89
:1045600013A920680122FEF779F820681A49012270
:10457000FEF774F8206819490122FEF76FF82068E9
:1045800017490122FEF76AF8206816490122FEF752
:1045900065F8206814490122FEF760F82068134985
:1045A0000122FEF75BF8206811490122FEF756F858
:1045B000206810490122FEF751F820680E490122B7
:1045C000FEF74CF85EB070BD00005940308F02001D
:1045D0007C0100201C8E0200B0810200C481020018
:1045E000548E0200908E0200C08E0200DC8E02000B
:1045F000F88E0200148F0200288302001349144A27
:1046000009681268F8B54369124D8468466C2D68D4
:1046100048786F685B01121BF418F250AB68A36016
:10462000676068B9B1F92C001CF0ECFAEE6DE9692D
:104630002A6E6B6EE361E06026616161A261F8BD84
:10464000B1F98C001CF0DEFAF0E700BF4401002055
:1046500030010020400100202DE9F0418369591C00
:10466000ADF5047D02466DD0C66C03EB03139D00CF
:104670007419B4F93C302093206C1BF06DFECDE929
:104680001E01606A1BF068FECDE91C01206A1BF068
:1046900063FECDE91A01E0691BF05EFECDE9180169
:1046A000606B1BF059FECDE91601A06B1BF054FEA8
:1046B000CDE91401206B1BF04FFECDE91201A06A79
:1046C0001BF04AFECDE91001E06A1BF045FECDE982
:1046D0000E01A0691BF040FECDE90C0160691BF0E2
:1046E0003BFECDE90A0120691BF036FECDE9080149
:1046F000E0681BF031FECDE90601A0681BF02CFE3E
:10470000CDE9040160681BF027FECDE90201705974
:104710001CF078FA1BF020FE714B00221BF09AFF70
:10472000704ACDE900014FF4AF712CA81DF0BCFB1D
:104730006D4B2CA918680122FDF790FF0DF5047D43
:10474000BDE8F081C0685469674DDFF8EC811BF06B
:10475000F1FD61A3D3E900231BF052FE0022634B5D
:104760001BF04EFE2346CDE90001614A4FF4AF71C4
:104770002CA81DF099FB2CA901222868FDF76EFFDB
:10478000D8F800305B4A93F824324FF4AF712CA86C
:104790001DF08AFB2CA928680122FDF75FFFD8F8DD
:1047A00000300DF18C0E03F1140403F1340720687E
:1047B0006168A268E36876460FC61034BC42B6460C
:1047C000F5D12068306025981BF0C6FDCDE90401C5
:1047D00024981BF0C1FDCDE9020123981BF0BCFD1C
:1047E000454ACDE900014FF4AF712CA81DF05CFBE8
:1047F00001222CA92868FDF731FF28981BF0ACFD99
:10480000CDE9040127981BF0A7FDCDE90201269808
:104810001BF0A2FD394ACDE900014FF4AF712CA87D
:104820001DF042FB01222CA92868FDF717FFD8F8DC
:104830000030D3F810021BF08FFD314ACDE90001A2
:104840004FF4AF712CA81DF02FFB2CA90122286872
:10485000FDF704FF01222B492868FDF7FFFE012226
:1048600029492868FDF7FAFE012228492868FDF742
:10487000F5FE012226492868FDF7F0FE01222549B0
:104880002868FDF7EBFE012223492868FDF7E6FEC4
:10489000012222492868FDF7E1FE0122204928680B
:1048A000FDF7DCFE01221F492868FDF7D7FE012233
:1048B0001D492868FDF7D2FE01221C492868FDF732
:1048C000CDFE01221A492868FDF7C8FE286819495B
:1048D0000122FDF7C3FE31E77B14AE47E17A643F66
:1048E00000005940749102007C01002000408F407C
:1048F000608F0200988F0200B88F0200D88F0200EC
:10490000F88F0200B081020010900200289002008F
:10491000449002006490020088900200A49002007B
:10492000C4900200E89002000C9102003491020051
:1049300054910200288302004801002070B504460B
:104940009CB00069264E1BF007FD0022254B1BF092
:1049500081FE21A3D3E900231BF07CFE1CF048F864
:1049600019F022FE1CF07EFB1F4BE0601B68A36069
:1049700001250023636184F8403084F8483084F8CE
:10498000583084F8503084F8643023704EF660223A
:10499000A5702B2115481DF02BF8E36820690293C0
:1049A0001BF0DAFC124ACDE9000105A85A211DF0DE
:1049B0007BFA05A92A463068FDF750FE40F27233B3
:1049C00084F848502A463068E3610A49FDF746FEFC
:1049D0001CB070BDAFF300807B14AE47E17A643F3A
:1049E0007C01002000408F4030010020A016FF1FF6
:1049F000C88D0200AC91020070B504469CB00069FD
:104A0000254E1BF0A9FC0022244B1BF023FE20A303
:104A1000D3E900231BF01EFE1BF0EAFF19F0C4FDD2
:104A20001CF020FB1E4BE0601B68A36001250023E7
:104A3000636184F8403084F8483084F8583084F852
:104A4000503084F8643023704EF66022A5702B211C
:104A500014481CF0CDFFE368206902931BF07CFC36
:104A6000114ACDE9000105A85A211DF01DFA05A93A
:104A70002A463068FDF7F2FD40F2DC5384F85850C6
:104A80002A463068E3610949FDF7E8FD1CB070BDB6
:104A90007B14AE47E17A643F7C01002000408F40E8
:104AA00030010020A016FF1FC88D0200C89102002F
:104AB000F8B5274A4369274CC16C2568806812689D
:104AC000D5F81062D5F8BCE0D5F8C07003EB03133D
:104AD0009B00CC18121ACA50D5F8C400D5F8CC20C7
:104AE000D5F8C810D5F8D030C4F804E0A760E0606D
:104AF0002161D5F808026261A36131461BF0CCFF49
:104B0000154B164A1B681268D3F800C0D3F808E0AA
:104B10005768D5F8F011D5F8F421D5F8F831C4F874
:104B20002CC0C4F834E0A0622262B5F9660063626A
:104B30002663A763E1611BF0FDFB094B00221BF01C
:104B40005FFC1BF055FFD5F82032A3872064F8BD29
:104B50003001002048010020680100206001002091
:104B60000000B03F2DE9F0410B78B8B0202B059143
:104B700005460C4604D114F8013F202BFBD00594C8
:104B800003229F4920461DF089FC002800F0DB80AD
:104B900003229C4920461DF081FC002800F0B680CD
:104BA0000023EB65202120461DF0CCF9059058B17B
:104BB00005A91EF0F1FE4FF07E5106461CF014FAD6
:104BC000002840F015812E6105228F4920461DF0F6
:104BD00065FC0646002800F0398104228B492046F6
:104BE0001DF05CFC0646002800F0B78005228849CD
:104BF00020461DF053FC0646002800F0CE8104221A
:104C0000844920461DF04AFC0646002800F0108228
:104C10000322814920461DF041FC0646002800F091
:104C2000528203227D4920461DF038FC06460028AA
:104C300000F0638105227A4920461DF02FFC0028F0
:104C400040F0A882774B1B681B68EB65002B46D0B1
:104C50002869754F1BF080FB0022744B1BF0FAFC97
:104C600065A3D3E900231BF0F5FC1BF0C1FE19F08E
:104C70009BFC1CF0F7F96E4BE8601B68AB600126EB
:104C800000234EF660226B6185F8403085F848308D
:104C900085F8583085F8503085F864302B702B211A
:104CA000AE7064481CF0A4FEEB68286902931BF008
:104CB00053FB614ACDE900015A2106A81DF0F4F822
:104CC00006A932463868FDF7C9FC40F2DC5385F886
:104CD000586032463868EB615849FDF7BFFCAB7845
:104CE00083B1286902941BF037FB554ACDE90001D6
:104CF000642106A81DF0D8F84B4B06A918680122BC
:104D0000FDF7ACFC012038B0BDE8F081033420464B
:104D100005941DF055FB0428F4D905A90A22204664
:104D20001EF0F8FE05A9A8630A2205981EF0F2FEFF
:104D3000AB6BE86313B1002840F0DB80002385F8FB
:104D400034300120DFE701204FF0FF33687085F831
:104D50003400AB6138B0BDE8F0812869DFF8C88065
:104D60001BF0FAFA0022314B1BF074FC22A3D3E9AA
:104D700000231BF06FFC1BF03BFE19F015FC1CF030
:104D800071F92B4BE8601B68AB6001274EF660227F
:104D90002B216E6185F8406085F8486085F8586081
:104DA00085F8506085F864602E70AF7021481CF063
:104DB0001FFEEB68286902931BF0CEFA1E4ACDE96C
:104DC00000015A2106A81DF06FF806A93A46D8F846
:104DD0000000FDF743FC4FF47A73EB6185F85070E7
:104DE0003A46D8F800001749FDF738FCEB6D2DE77F
:104DF000154B2B61E8E600BF7B14AE47E17A643FB8
:104E0000E4910200E8910200EC910200F4910200AA
:104E100074870200389202006092020064920200DD
:104E20004C870200500100207C01002000408F4090
:104E300030010020A016FF1FC88D0200C89102009B
:104E4000CC920200FC910200000020402869DFF8AB
:104E500040831BF081FA0022C34B1BF0FBFBC0A375
:104E6000D3E900231BF0F6FB1BF0C2FD19F09CFBFD
:104E70001CF0F8F8BD4BE8601B68AB6001274EF6EC
:104E800060222B216E6185F8406085F8486085F8C6
:104E9000586085F8506085F864602E70AF70B44833
:104EA0001CF0A6FDEB68286902931BF055FAB14A85
:104EB000CDE900015A2106A81CF0F6FF3A4606A9E2
:104EC000D8F80000FDF7CAFB40F253734EF660229B
:104ED000EB6185F84070C821009206A8A64A1CF034
:104EE000E3FF3A4606A9D8F80000FDF7B7FBEB6DE3
:104EF000ACE6012085F8340005E72869DFF89082E8
:104F00001BF02AFA0022984B1BF0A4FB94A3D3E9D0
:104F100000231BF09FFB1BF06BFD19F045FB1CF001
:104F2000A1F8924BE8601B68AB6001274EF6602247
:104F30002B216E6185F8406085F8486085F85860DF
:104F400085F8506085F864602E70AF7088481CF05A
:104F50004FFDEB68286902931BF0FEF9854ACDE905
:104F600000015A2106A81CF09FFF06A93A46D8F86E
:104F70000000FDF773FB814B2F701B68AB674EF68B
:104F8000602142F21073E961EB60D8F800007C49BF
:104F90003A46FDF763FBEB6D58E62869DFF8F081D0
:104FA0001BF0DAF90022704B1BF054FB6CA3D3E921
:104FB00000231BF04FFB1BF01BFD19F0F5FA1CF052
:104FC00051F86A4BE8601B68AB6001274EF660221F
:104FD0002B216E6185F8406085F8486085F858603F
:104FE00085F8506085F864602E70AF7060481CF0E2
:104FF000FFFCEB68286902931BF0AEF95D4ACDE92E
:1050000000015A2106A81CF04FFF06A93A46D8F81D
:105010000000FDF723FB40F65E03EB6185F864704A
:105020003A46D8F800005749FDF718FBEB6D0DE63E
:105030002869DFF85C811BF08FF900224A4B1BF0D6
:1050400009FB47A3D3E900231BF004FB1BF0D0FCB2
:1050500019F0AAFA1CF006F8444BE8601B68AB6034
:1050600001274EF660222B216E6185F8406085F89D
:10507000486085F8586085F8506085F864602E7047
:10508000AF703B481CF0B4FCEB68286902931BF03E
:1050900063F9384ACDE900015A2106A81CF004FF43
:1050A00006A93A46D8F80000FDF7D8FA40F2A9332D
:1050B000EB6185F86C703A46D8F800003249FDF78C
:1050C000CDFAEB6DC2E52869DFF8C4801BF044F926
:1050D0000022254B1BF0BEFA21A3D3E900231BF0CD
:1050E000B9FA1BF085FC19F05FFA1BF0BBFF1F4BF0
:1050F000E8601B68AB6001274EF660222B216E61D1
:1051000085F8406085F8486085F8586085F85060FB
:1051100085F864602E70AF7015481CF069FCEB6870
:10512000286902931BF018F9124ACDE900015A21AF
:1051300006A81CF0B9FE06A93A46D8F80000FDF70B
:105140008DFA40F27233EB6185F848703A46D8F830
:1051500000000E49FDF782FAEB6D77E5AFF30080B2
:105160007B14AE47E17A643F00408F40300100205D
:10517000A016FF1FC88D0200F08D02003401002030
:10518000689202001892020040920200AC91020064
:105190007C0100200422254920461DF07FF920B91A
:1051A000234B1B681B69EB6550E50622214920460D
:1051B0001DF074F950B104221F4920461DF06EF90C
:1051C00048B91B4B1B689B68EB653FE5184B1B6898
:1051D0005B68EB653AE50622184920461DF05EF94A
:1051E00020B9134B1B68DB68EB652FE504221449DB
:1051F00020461DF053F950B92846FFF767F8114BC8
:10520000114918680122FDF729FAEB6D1EE52346C6
:105210000E4A642106A81CF047FE0A4B06A918682E
:105220000122FDF71BFA00206DE500BF6C8702002C
:1052300050010020548702005C870200648702004E
:10524000849202007C0100208C920200A092020055
:105250000146C06D20B1CB684A69096EFDF7F2B80E
:10526000704700BF4369074A016E126810B403EB30
:1052700083038468C06DDB00121BCA5010BC194444
:10528000FDF7BCB83001002070B504469CB0006941
:10529000254E1BF061F80022244B1BF0DBF920A304
:1052A000D3E900231BF0D6F91BF0A2FB19F07CF91F
:1052B0001BF0D8FE1E4BE0601B68A3600125002395
:1052C000636184F8403084F8483084F8583084F8BA
:1052D000503084F8643023704EF66022A5702B2184
:1052E00014481CF085FBE368206902931BF034F836
:1052F000114ACDE9000105A85A211CF0D5FD05A9E8
:105300002A463068FDF7AAF94FF47A7384F85050B2
:105310002A463068E3610949FDF7A0F91CB070BD69
:105320007B14AE47E17A643F7C01002000408F404F
:1053300030010020A016FF1FC88D0200FC91020062
:105340004369234A23491268F0B5C3EB0313466D42
:1053500084680D68204995F8327009689B00121B1B
:10536000F418F25027714369446D2F781B4A1C4D85
:1053700012681C4EC3EB031304EB83035F71446993
:10538000436DD1F824E090685768C4EB041403EB34
:105390008403C3F808E08C6ADC60CC6A1C610C6B87
:1053A000D16812695C61D86119629F615A622A688A
:1053B0003168D2F8FC410D68D2F800028968D2F851
:1053C000D0205A639D62DC6218639963F0BD00BF10
:1053D0003001002058010020500100204C01002025
:1053E000480100206801002070B58369591CEAB0AB
:1053F000024662D0466DC3EB03139D007419A06B87
:105400001AF0AAFFCDE91C01606B1AF0A5FFCDE9E7
:105410001A01206B1AF0A0FFCDE91801E06A1AF01A
:105420009BFFCDE91601A06A1AF096FFCDE91401A1
:10543000606A1AF091FFCDE91201206A1AF08CFF20
:10544000CDE91001E0691AF087FFCDE90E01A069EE
:105450001AF082FFCDE90C0160691AF07DFFCDE9F9
:105460000A0120691AF078FFCDE90801E0681AF016
:1054700073FFCDE90601A0681AF06EFFCDE90401C3
:10548000637903932379029370591BF0BBFB1AF0E5
:1054900063FF494B00221BF0DDF8484ACDE90001CB
:1054A0001FA84FF496711CF0FFFC454B1FA918680C
:1054B0000122FDF7D3F86AB070BDC0685569404C51
:1054C0001AF038FF3AA3D3E900231AF099FF00221B
:1054D0003C4B1AF095FF2B46CDE900013A4A1FA834
:1054E0004FF496711CF0E0FC1FA920680122FDF723
:1054F000B5F8206835490122FDF7B0F82068344935
:105500000122FDF7ABF8206832490122FDF7A6F829
:10551000206831490122FDF7A1F820682F490122B6
:10552000FDF79CF820682E490122FDF797F82068C6
:105530002C490122FDF792F820682B490122FDF742
:105540008DF8206829490122FDF788F8206828494C
:105550000122FDF783F8206826490122FDF77EF835
:10556000206825490122FDF779F8206823490122A6
:10557000FDF774F8206822490122FDF76FF82068D2
:1055800020490122FDF76AF820681F490122FDF732
:1055900065F820681D490122FDF760F820681C4964
:1055A0000122FDF75BF86AB070BD00BFAFF3008069
:1055B0007B14AE47E17A643F0000594088950200B1
:1055C0007C01002000408F4000930200B081020067
:1055D000409302005493020088930200C893020093
:1055E000EC9302000894020024940200409402000C
:1055F0007494020098940200BC940200E0940200AB
:105600000895020024950200409502006095020072
:105610008095020070B504469CB0016108461AF0FE
:105620009BFE0022244B254E1BF014F820A3D3E947
:1056300000231BF00FF81BF0DBF918F0B5FF1BF08F
:1056400011FD1F4BE0601B68A3600125002363610F
:1056500084F8403084F8483084F8583084F850306A
:1056600084F8643023704EF66022A5702B21154813
:105670001CF0BEF9E368206902931AF06DFE124A2D
:10568000CDE9000105A85A211CF00EFC05A92A4607
:105690003068FCF7E3FF40F65E0384F864502A4666
:1056A0003068E3610949FCF7D9FF1CB070BD00BF49
:1056B0007B14AE47E17A643F00408F407C010020BC
:1056C00030010020A016FF1FC88D020018920200B2
:1056D0004369184A18491268F0B4C3EBC303866ED5
:1056E00085680C68154994F8327009689B00521B54
:1056F000F518F2502F714369826E2578104E114CC7
:1057000037682468C3EBC30302EB83035D7143690D
:10571000826ECE6A056AE468D7F80002C3EBC30361
:1057200002EB83039E60CA69DA605D611C61986167
:10573000F0BC7047300100205801002050010020CB
:10574000480100204C01002070B58369591CDAB073
:1057500002463AD0866EC3EBC3039C003519A86994
:105760001AF0FAFDCDE90C0128691AF0F5FDCDE932
:105770000A0168691AF0F0FDCDE90801E8681AF03D
:10578000EBFDCDE90601A8681AF0E6FDCDE90401BC
:105790006B7903932B79029330591BF033FA1AF08B
:1057A000DBFD354B00221AF055FF344ACDE90001EC
:1057B0000FA84FF496711CF077FB314B0FA91868B6
:1057C0000122FCF74BFF5AB070BDC06855692C4CE4
:1057D0001AF0B0FD26A3D3E900231AF011FE00222F
:1057E000284B1AF00DFE2B46CDE90001264A0FA8E2
:1057F0004FF496711CF058FB0FA920680122FCF7AA
:105800002DFF206821490122FCF728FF206820494C
:105810000122FCF723FF20681E490122FCF71EFF2E
:1058200020681D490122FCF719FF20681B4901224D
:10583000FCF714FF20681A490122FCF70FFF2068CB
:1058400018490122FCF70AFF206817490122FCF7DA
:1058500005FF206815490122FCF700FF2068144964
:105860000122FCF7FBFE5AB070BD00BFAFF3008011
:105870007B14AE47E17A643F00005940CC960200A9
:105880007C01002000408F40D8950200B0810200CA
:10589000409302005493020088930200189602007D
:1058A00038960200609602008C960200B0960200C4
:1058B0008095020070B504469CB0016108461AF05C
:1058C0004BFD0022244B254E1AF0C4FE20A3D3E941
:1058D00000231AF0BFFE1BF08BF818F065FE1BF0DA
:1058E000C1FB1F4BE0601B68A360012500236361BF
:1058F00084F8403084F8483084F8583084F85030C8
:1059000084F8643023704EF66022A5702B21154870
:105910001CF06EF8E368206902931AF01DFD124A2C
:10592000CDE9000105A85A211CF0BEFA05A92A46B6
:105930003068FCF793FE40F2A93384F86C502A4695
:105940003068E3610949FCF789FE1CB070BD00BFF7
:105950007B14AE47E17A643F00408F407C01002019
:1059600030010020A016FF1FC88D020040920200E7
:10597000214B224A1B6812682149F0B44469066F22
:105980008568204F09683F68A4015D1B33193551B4
:10599000566B956B946A5E60D66ADD60156B1C6110
:1059A000D46B5E61966C1E629D61D66C156DDC6178
:1059B000146C526C1F81D1F8C8705E629D62DC620B
:1059C0001A63D1F83422D1F8986083F83C204569F5
:1059D000026FD1F82C425F639E6302EB851383F85C
:1059E0003D404469036FD1F8302203EB841383F800
:1059F0003E20F0BC704700BF300100204001002075
:105A000048010020780100202DE9F041A84B9EB00C
:105A1000044618680D4607F0EBF900284DD0A6782B
:105A2000002E4FD1A34B23614FF0814018F0BCFDF5
:105A30001BF018FBA04BE0601B68A36001274EF62B
:105A400060222B21666184F8406084F8486084F805
:105A5000586084F8506084F864602670A770974896
:105A6000DFF878821BF0C4FFE368206902931AF024
:105A700073FC934ACDE900015A2105A81CF014FAE1
:105A800005A93A46D8F80000FCF7E8FD4FF47A7310
:105A90003A46E3618B4984F85070D8F80000FCF76F
:105AA000DDFD3A468849D8F80000FCF7D7FDD8F864
:105AB0000000864A8649FCF78BFEA37813B91EB016
:105AC000BDE8F081E668012E67DDB5FBF6F394F8DA
:105AD000647006FB1355B5FA85F56D09AFB1701EFC
