:10000000F8FF02209901000031000100E9FF000023
:10001000E9FF0000E9FF0000E9FF0000E9FF000040
:10002000E9FF0000E9FF0000E9FF000031000100E6
:1000300031000100E9FF000039790100A97E0100CB
:1000400031000100310001003100010031000100E8
:1000500031000100310001003100010031000100D8
:1000600031000100310001003100010031000100C8
:1000700031000100310001003100010031000100B8
:1000800031000100310001003100010031000100A8
:100090003100010031000100310001003100010098
:1000A0007DDE0100B5DF01003100010031000100FB
:1000B000310001003100010031000100212F010059
:1000C000310001003946010031000100A54B01005B
:1000D000310001009551010031000100117D000047
:1000E0003100010031000100310001003100010048
:1000F0003100010031000100310001003100010038
:100100005181010065810100798101008D8101002B
:1001100071D30100BD5F0100310001003100010019
:100120003100010031000100310001003100010007
:1001300031000100310001003100010031000100F7
:100140005173010031000100C95601003100010066
:10015000FD5B0100310001003100010031000100B0
:10016000310001007D7D0000F5E00100310001005B
:1001700031000100310001003100010031000100B7
:1001800031000100310001003100010031000100A7
:100190003100010031000100584B4CF2205210B5E3
:1001A0001A804DF628121A8000BF00BF0FF044FFDE
:1001B000534B4FF030621A60524A9A60524ADA60EA
:1001C000524B4FF470021A60514A136813F4807353
:1001D00004D150490B604FF4A85313604E4B1A786A
:1001E000110703D51A7842F008021A704B4B4C499C
:1001F0002A221A704B4A4C4B8B4204D252F8040FFD
:1002000043F8040BF8E7494B494900228B4202D2DC
:1002100043F8042BFAE74749474A002352F82300E2
:1002200041F823000133662BF8D1444B444A802126
:1002300003F8011B9342FBD1424B3E4A1A60424BEA
:100240008A221A70A3F5805324225A70A0221A70B1
:100250009A799207FCD59A79D406FCD43B4A9379D3
:1002600003F00C03082B394BF9D103221A714622F3
:100270005A719A799006FCD5344A9179334B4906E4
:10028000FBD5334A4FF08271116009215160202261
:100290001A709A7902F00C020C2AFAD12D4B2E4AD0
:1002A0001A602E4B2E4A1A6000225A60072243F829
:1002B000042C2C4AC3F80C2D62B610F05BFA154BD7
:1002C0001B68DA0705D5284810F00EFA274B284A94
:1002D0001A60284B1B785B0609D5244C244B2268F6
:1002E0009A4204D1204810F0FFF90023236020F047
:1002F00029FE0FF0A7FE19F021FFFEE70E200540B2
:1003000030800440823F04000100002B88ED00E0B3
:1003100010D0034014D0034002D0074000E0074053
:100320005816FF1F64C20200F806FF1F5816FF1F71
:10033000C40600200002FF1F0000000000E400E0EF
:1003400056E400E008ED00E00050064000400640A2
:100350004480044004800440C010050014E000E024
:10036000BFD401000000202000DD68501CE00340E5
:10037000A5C3945A00F00740FFFFFFFFFFFFFFFFF8
:10038000FFFFFFFFFFFFFFFFFFFFFFFFFFFFFFFF7D
:10039000FFFFFFFFFFFFFFFFFFFFFFFFFFFFFFFF6D
:1003A000FFFFFFFFFFFFFFFFFFFFFFFFFFFFFFFF5D
:1003B000FFFFFFFFFFFFFFFFFFFFFFFFFFFFFFFF4D
:1003C000FFFFFFFFFFFFFFFFFFFFFFFFFFFFFFFF3D
:1003D000FFFFFFFFFFFFFFFFFFFFFFFFFFFFFFFF2D
:1003E000FFFFFFFFFFFFFFFFFFFFFFFFFFFFFFFF1D
:1003F000FFFFFFFFFFFFFFFFFFFFFFFFFFFFFFFF0D
:10040000FFFFFFFFFFFFFFFFFFFFFFFFDEF9FFFF23
:1004100010B5054C237833B9044B13B10448AFF33E
:1004200000800123237010BD5816FF1F000000003C
:1004300060C20200084B10B51BB108490848AFF371
:1004400000800848036803B910BD074B002BFBD0A0
:10045000BDE81040184700BF000000005C16FF1FF9
:1004600060C202005816FF1F0000000030B40849A7
:10047000016000224FF07E554FF06C540021456022
:10048000446180F824108260C260026130BC704711
:10049000CDCCCC3D2DE9F04F044693B008464949F8
:1004A00016461D4620F006FB46498146304620F0A0
:1004B00001FB44498246284620F0FCFAA668E5681C
:1004C00027698346494606F1004020F0F3FA2946A1
:1004D0008046504620F0EEFA0146404620F0E0F912
:1004E00039468046584620F0E5FA0146404620F05D
:1004F000D7F94FF07C5120F0DDFAD4F80480039056
:100500004146484620F0D6FA29460090584620F049
:10051000D1FA009B0146184620F0C4F939460090F4
:10052000504620F0C7FA009B0146184620F0B8F963
:100530004FF07C5120F0BEFA41460490504620F026
:10054000B9FA31460090584620F0B4FA009B0146B3
:10055000184620F0A5F939460090484620F0AAFA3E
:10056000009B0146184620F09DF94FF07C5120F089
:10057000A1FA41460590584620F09CFA3146834640
:10058000504620F097FA0146584620F08BF929464C
:100590008246484620F08EFA0146504620F080F907
:1005A0004FF07C5120F086FA002106901C9820F034
:1005B00015FC48B100211D9820F010FC002840F0E7
:1005C0007E8201E039FA8E3C1C99084620F072FACE
:1005D0001D998146084620F06DFA0146484620F0F4
:1005E00061F91E998146084620F064FA01464846A2
:1005F00020F058F981464FEA6909C9F1BE494FF028
:100600007C5109F55D1920F055FA09F5CE5909F12B
:100610001F094946824620F04DFA494620F04AFA21
:1006200001464FF07F5020F03BF9494620F042FA56
:1006300081460146504620F03DFA494620F03AFAFC
:1006400001464FF07F5020F02BF9494620F032FA56
:10065000814601461C9820F02DFA494600901D98CD
:1006600020F028FA494601901E9820F023FA4146CE
:100670000990404620F016F931460A90304620F0A5
:1006800011F929460B90284620F00CF939460C90B8
:10069000384620F007F94FF081410D90404620F098
:1006A00009FA4FF081418246304620F003FA4FF0BC
:1006B00081418146284620F0FDF94FF0824110909B
:1006C000304620F0F7F94FF082418346284620F06B
:1006D000F1F931460E90304620F0ECF929460290AF
:1006E000284620F0E7F939460790384620F0E2F92D
:1006F00007990F90504620F0DDF90C99089000986A
:1007000020F0D8F9089B0146184620F0CBF8029952
:100710000890504620F0CEF9089B0146184620F07C
:10072000C1F80B998246019820F0C4F90146504661
:1007300020F0B6F841460890404620F0BBF94FF053
:10074000814120F0B7F90F998246484620F0B2F96E
:100750000D991190009820F0ADF9119B01461846B3
:1007600020F09EF851461190304620F0A3F9119BDD
:100770000146184620F096F80A991190019820F049
:1007800099F9119B0146184620F08AF8494620F055
:1007900087F802991190584620F08CF9119B014678
:1007A000184620F07FF807991190584620F082F9FA
:1007B000119B0146184620F075F849468346099872
:1007C00020F078F90146584620F06CF85146119017
:1007D000284620F06FF90A998146009820F06AF9BE
:1007E0000146484620F05EF8DDF840B00F9981469A
:1007F000584620F05FF90146484620F053F80D991D
:100800008146019820F056F90146484620F048F804
:10081000594620F045F8029981460E9820F04AF991
:100820000146484620F03EF8DDF81CA081465146BE
:100830000E9820F03FF90146484620F033F859461B
:100840008146099820F036F90146484620F02AF8FA
:100850004FF081418346029820F02CF9394620F070
:1008600029F90B998146009820F024F90146484661
:1008700020F016F84FF081418146504620F01AF9D9
:10088000394620F017F90146484620F00BF80C993C
:100890008146019820F00EF90146484620F000F804
:1008A000089B00901946184620F004F9119B01930B
:1008B00019468146184620F0FDF8014648461FF0CB
:1008C000F1FF59468146584620F0F4F80146484663
:1008D0001FF0E8FF009A81461146104620F0EAF822
:1008E000014648461FF0DEFF81464FEA6909C9F11B
:1008F000BE494FF07C5109F55D1920F0DBF809F590
:10090000CE5909F11F094946824620F0D3F84946DD
:1009100020F0D0F801464FF07F501FF0C1FF49464C
:1009200020F0C8F881460146504620F0C3F84946F9
:1009300020F0C0F801464FF07F501FF0B1FF49464C
:1009400020F0B8F8D4F8009082460146089820F0CC
:10095000B1F8494620F0AEF8014603981FF0A0FF19
:10096000019B03905146184620F0A4F8494620F018
:10097000A1F8014604981FF093FF51460490584691
:1009800020F098F8494620F095F8014605981FF0A8
:1009900087FF009A05905146104620F08BF8494693
:1009A00020F088F8014606981FF07AFF0690D4F8E8
:1009B00014900398494620F07DF841461FF072FFDD
:1009C00049468046049820F075F831461FF06AFFCA
:1009D00049460646059820F06DF829461FF062FF4B
:1009E00049468246069820F065F839461FF05AFFBE
:1009F00041460746404620F05DF831460546304600
:100A000020F058F8014628461FF04CFF5146054695
:100A1000504620F04FF8014628461FF043FF394664
:100A20000546384620F046F8014628461FF03AFFB2
:100A300005466D10C5F1BE454FF07C5105F55D15BD
:100A400020F038F805F5CE551F352946814620F0AF
:100A500031F8294620F02EF801464FF07F501FF064
:100A60001FFF294620F026F805460146484620F09B
:100A700021F8294620F01EF801464FF07F501FF064
:100A80000FFF294620F016F805460146404620F0A3
:100A900011F829466060304620F00CF82946A06025
:100AA000504620F007F82946E060384620F002F86A
:100AB0000023206184F8243013B0BDE8F08F0021BA
:100AC0001E9820F08BF900283FF47EAD6FE700BF41
:100AD0002DE9F04F9FB00E46289C0594299C069462
:100AE0002A9C0B942C9CDDF8AC90029427462D9CFC
:100AF000019000214846A046039415461C4620F06C
:100B00006DF930B10021384620F068F9002840F036
:100B10006585304649491FF0CDFF484906462846BD
:100B20001FF0C8FF4549074620461FF0C3FF019A42
:100B3000D2F808A0D2F80CB01469804631460AF108
:100B400000401FF0B7FF5946054638461FF0B2FF78
:100B5000014628461FF0A4FE2146054640461FF0E8
:100B6000A9FF014628461FF09BFE4FF07C511FF065
:100B7000A1FF01990C904D68304629461FF09AFF5D
:100B80005946049040461FF095FF049B01461846C5
:100B90001FF088FE2146049038461FF08BFF049B0F
:100BA000014618461FF07CFE4FF07C511FF082FF7B
:100BB00029460D9038461FF07DFF5146049040466F
:100BC0001FF078FF049B014618461FF069FE21467E
:100BD000049030461FF06EFF049B014618461FF03C
:100BE00061FE4FF07C511FF065FF29460E90404694
:100BF0001FF060FF5146804638461FF05BFF0146FC
:100C000040461FF04FFE5946074630461FF052FF40
:100C1000014638461FF044FE4FF07C511FF04AFF5A
:100C200000210F90059820F0D9F848B100210698CE
:100C300020F0D4F8002840F0C88401E039FA8E3C56
:100C4000059B194618461FF035FF069B06461946B8
:100C500018461FF02FFF014630461FF023FE0B9B66
:100C60000646194618461FF025FF014630461FF07C
:100C700019FE06467610C6F1BE464FF07C5106F5C9
:100C80005D161FF017FF06F5CE561F363146074694
:100C90001FF010FF31461FF00DFF01464FF07F504F
:100CA0001FF0FEFD31461FF005FF0646014638469F
:100CB0001FF000FF31461FF0FDFE01464FF07F5050
:100CC0001FF0EEFD31461FF0F5FE494610904846F4
:100CD0001FF0F0FE029B0646194618461FF0EAFE7A
:100CE000014630461FF0DEFD039B064619461846B6
:100CF0001FF0E0FE014630461FF0D4FD0646761098
:100D0000C6F1BE464FF07C5106F55D161FF0D2FECF
:100D100006F5CE561F36314607461FF0CBFE31464C
:100D20001FF0C8FE01464FF07F501FF0B9FD31465D
:100D30001FF0C0FE0646014638461FF0BBFE314696
:100D40001FF0B8FE01464FF07F501FF0A9FD31465D
:100D50001FF0B0FE0646014648461FF0ABFE314686
:100D6000804602981FF0A6FE3146074603981FF002
:100D7000A1FE2946814628461FF094FD06460146FD
:100D800040461FF097FE3146129038461FF092FE03
:100D900031461390484611961FF08CFE5146064688
:100DA00050461FF07FFD014607904046CDF80C806D
:100DB0001FF080FE5946149058461FF073FD2146DF
:100DC000804620461FF06EFD1199159058461FF081
:100DD00071FE414617902046CDF820801FF06AFE34
:100DE0002946189028461FF065FE29468046504641
:100DF0001FF060FE29460A9058461FF05BFE294608
:100E0000169020461FF056FE5146199050461FF08E
:100E100051FE5946049050461FF04CFE21461A9050
:100E200050461FF047FE5946099058461FF042FEB3
:100E30002146029058461FF03DFE21461B90204659
:100E40001FF038FE4146054603981FF033FE139904
:100E50001C9020461FF02EFE1C9B014618461FF0DA
:100E60001FFD31461C9058461FF024FE1C9B014676
:100E700018461FF017FD04991C9003981FF01AFEE6
:100E80001C9B014618461FF00DFD07991C90384623
:100E90001FF010FE59461FF00DFE1C9B0146184620
:100EA0001FF000FD07991C9048461FF003FE2146E5
:100EB0001FF000FE1C9B014618461FF0F3FC029930
:100EC0001C9003981FF0F6FD1C9B014618461FF06E
:100ED000E7FC29461C9003981FF0ECFD1C9B014683
:100EE00018461FF0DDFC12991D9020461FF0E2FD10
:100EF00041461C9038461FF0DDFD1C9A0146104605
:100F00001FF0D0FC31461C9050461FF0D3FD1C9AB8
:100F1000014610461FF0C4FC1499064658461FF0BF
:100F2000C9FD014630461FF0BDFC0499064638460F
:100F30001FF0C0FD014630461FF0B2FC0299064684
:100F400038461FF0B7FD014630461FF0ABFC08994C
:100F5000064648461FF0AEFD21461FF0ABFD014698
:100F600030461FF09FFC2946044638461FF0A2FD7C
:100F7000014620461FF094FC1D9B06461946184664
:100F80001FF098FD3146044630461FF093FD0146A0
:100F900020461FF087FC1DF0D3FA019AD2F80CB05E
:100FA0001469D2F808A0129A0646594602F1004088
:100FB0001FF080FD5146129013981FF07BFD129B8D
:100FC000014618461FF06EFC4146129048461FF03D
:100FD00071FD129B014618461FF064FC21468046B5
:100FE00014981FF067FD014640461FF05BFC049912
:100FF000804648461FF05EFD014640461FF050FC0B
:101000000899804638461FF055FD21461FF052FDD5
:10101000014640461FF046FC0299804648461FF0B4
:1010200049FD014640461FF03BFC294680464846A4
:101030001FF040FD014640461FF034FC014680464B
:101040001FF030FC099A1490114610461FF02AFC3C
:1010500017991FF025FC1099129005981FF02AFD92
:10106000129B014618461FF01BFCDDF828E0059096
:10107000714670461FF016FC18991FF013FC10996A
:10108000129006981FF016FD129B014618461FF09D
:1010900007FC4146069058461FF00CFD0299179038
:1010A0004FF07C501FF0FCFB29461FF0F9FB314646
:1010B0001FF000FD1699054609981FF0F1FB414607
:1010C0001FF0F8FC014628461FF0ECFB03991FF0C7
:1010D000E7FB4146039050461FF0ECFC199918902D
:1010E0001A981FF0DDFB31461FF0E4FC1B99054602
:1010F0000A981FF0D7FB41461FF0DCFC014628464A
:101100001FF0D0FB39461FF0CBFB59460A90304602
:101110001FF0D0FC049907464FF07C501FF0C0FB35
:1011200002991FF0BDFB41461FF0C4FC099905461A
:1011300016981FF0B7FB31461FF0BCFC014628464D
:101140001FF0B0FB49461FF0ABFB089A059981469A
:1011500002F100401FF0AEFC0699054607981FF00B
:10116000A9FC014628461FF09DFB039905461798E8
:101170001FF0A0FC06F100420146284613921FF022
:101180008FFB1399054620461FF094FC18991FF019
:1011900089FB0A991FF08EFC014628461FF082FB4E
:1011A000494605463846CDF824901FF083FC014699
:1011B00028461FF077FB0499129008461FF072FB37
:1011C00001464FF07E501FF06BFB02990546084622
:1011D0001FF068FB014628461FF062FB1099054688
:1011E0000B981FF067FC014628461FF059FB41464B
:1011F000029020461FF05EFC019B5D6881462946F7
:1012000040461FF057FC0599049015981FF052FCBA
:101210000699804611981FF04DFC014640461FF08C
:1012200041FB4FF08141804650461FF043FC02993C
:101230001FF040FC014640461FF032FB4946804605
:1012400003981FF037FC014640461FF02BFB049922
:10125000804638461FF026FB0A991FF02BFC0146FA
:1012600040461FF01FFB2146074630461FF022FC78
:101270001499804650461FF01DFC014640461FF061
:101280000FFB09991FF016FC014638461FF00AFBB8
:101290003146109030461FF005FB514600F10048E2
:1012A00030461FF007FC119A0599074602F10040ED
:1012B0001FF000FC06990B9015981FF0FBFB0B9A92
:1012C000014610461FF0EEFA4FF081410B90584650
:1012D0001FF0F0FB02991FF0EDFB0B9A0146104640
:1012E0001FF0DEFA4146029058461FF0E3FB0499D6
:1012F0001FF0D6FA03991FF0DDFB029A0146104653
:101300001FF0D0FA3946029048461FF0CBFA0A99EE
:101310001FF0D0FB029A014610461FF0C3FA29467F
:10132000814630461FF0C6FB1499064658461FF00A
:10133000C1FB014630461FF0B3FA09991FF0BAFB12
:10134000014648461FF0AEFA0599064607981FF079
:10135000B1FB0699814608981FF0ACFB0146484650
:101360001FF0A0FA4146814620461FF0A3FB1899C2
:101370001FF098FA03991FF09DFB014648461FF0A5
:1013800091FA2946804613981FF094FB17991FF095
:1013900089FA0A991FF08EFB014640461FF082FA37
:1013A0003946804609981FF085FB014640461FF0EC
:1013B00079FA129A8146114610461FF07BFB109B6A
:1013C00002931946074618461FF074FB014638463B
:1013D0001FF068FA3146074630461FF06BFB0146A6
:1013E00038461FF05FFA4946074648461FF062FB41
:1013F000014638461FF056FA07467F10C7F1BE4730
:101400004FF07C5107F55D171FF054FB07F5CE57E1
:101410001F37394680461FF04DFB39461FF04AFB07
:1014200001464FF07F501FF03BFA39461FF042FB58
:101430000746014640461FF03DFB39461FF03AFB88
:1014400001464FF07F501FF02BFA39461FF032FB58
:10145000019B1F688046014612981FF02BFB3946FE
:101460001FF028FB01460C981FF01AFA0C90029B03
:10147000414618461FF01EFB39461FF01BFB014674
:101480000D981FF00DFA41460D9030461FF012FBEB
:1014900039461FF00FFB01460E981FF001FA414636
:1014A0000E9048461FF006FB39461FF003FB01462D
:1014B0000F981FF0F5F90F90019B0C985E6931466B
:1014C0001FF0F8FA29461FF0EDF9314605460D9850
:1014D0001FF0F0FA51461FF0E5F9314607460E9825
:1014E0001FF0E8FA59461FF0DDF9314680460F98A3
:1014F0001FF0E0FA21461FF0D5F929460646284696
:101500001FF0D8FA3946044638461FF0D3FA014690
:1015100020461FF0C7F94146044640461FF0CAFA6C
:10152000014620461FF0BEF93146044630461FF002
:10153000C1FA014620461FF0B5F904466410C4F113
:10154000BE444FF07C5104F55D141FF0B3FA04F56E
:10155000CE541F34214681461FF0ACFA21461FF0BD
:10156000A9FA01464FF07F501FF09AF921461FF06B
:10157000A1FA0446014648461FF09CFA21461FF096
:1015800099FA01464FF07F501FF08AF921461FF06B
:1015900091FA0446014628461FF08CFA019D214627
:1015A000686038461FF086FA2146A86040461FF062
:1015B00081FA2146E86030461FF07CFA002328615A
:1015C00085F824301FB0BDE8F08F00210B981FF084
:1015D00005FC00287FF470AFFFF732BB00214046C6
:1015E0001FF0FCFB00283FF494AA0B9B2A93069B58
:1015F00029930198059B28932A46234631461FB01C
:10160000BDE8F04FFEF746BF38B54FF07C510446B9
:101610001FF050FA114BA3EB6404214605461FF05E
:1016200049FA21461FF046FA01464FF07F501FF05D
:1016300037F921461FF03EFA0446014628461FF0BE
:1016400039FA21461FF036FA01464FF07F501FF05D
:1016500027F921461FF02EFA38BD00BFDF59375F4A
:10166000F8B58668C5680446314630461FF022FA50
:1016700001464FF07C501FF013F9294607462846D3
:101680001FF018FA014638461FF00AF9616807464C
:1016900030461FF00FFA2169064628461FF00AFA65
:1016A000014630461FF0FEF839461CF047FF21691D
:1016B000A061A0681FF0FEF9E168054660681FF0B0
:1016C000F9F9014628461FF0EBF84FF040411FF0B2
:1016D000F1F91CF0E1FEE668E061314630461FF0AA
:1016E000E9F901464FF07C501FF0DAF8256907460A
:1016F000294628461FF0DEF9014638461FF0D0F88B
:10170000A168074630461FF0D5F9616806462846AD
:101710001FF0D0F9014630461FF0C4F839461CF0DE
:101720000DFF012384F824302062F8BDF0B541F6A6
:1017300058320F24DFF830E0C0F8381108270021B4
:10174000AC2640F2137582600422C0F800E080F8F5
:101750002870468585850471C47141714173827119
:1017600080F82720F0BD00BFA08601002DE9F047DA
:10177000478D00230446037338461FF043F9A68DB6
:10178000804630461FF03EF941461FF089F88146F9
:1017900001464FF080401FF041FA4FF07C51054662
:1017A00048461FF087F941461FF07CF8294600F1B2
:1017B00000401FF07FF9E7850346C4F8B000C4F885
:1017C000B400C4F8B800C4F8BC00C4F8C000A4F861
:1017D0004E602786A4F850606786A4F85260A786FA
:1017E000A4F85460E786A4F856602787A4F85860E8
:1017F00025676567A567E567C4F88050C4F884501D
:10180000C4F8C400C4F8C800C4F8CC00C4F8D000C0
:10181000C4F8D400C4F8D800C4F8DC00C4F8E00070
:10182000C4F8E4006787A4F85A60A787A4F85C604E
:10183000E787A4F85E60A4F84070A4F86060A4F89C
:101840004270A4F86260A4F84470A4F86460A4F83C
:101850004670A4F86660A4F84870A4F86860C4F8FC
:101860008850C4F88C50C4F89050C4F89450C4F810
:101870009850C4F89C50C4F8A050C4F8A450A4F8E0
:101880004A70D4F83801A4F86A60A4F84C70A4F83F
:101890006C60C4F8A850C4F8E830C4F8AC50C4F880
:1018A000EC30036821681B6A4FF49B72BDE8F04777
:1018B000184700BF30B43C4B02791A70002966D03B
:1018C0000A885A700A884C88C2F3022242EAC4028B
:1018D0009A704A888C88C2F3451242EA8412A41096
:1018E000DA701C718C88CA88C4F3802444EA4204EC
:1018F0005C710C89C2F3C31242EA04129A714A89DC
:10190000C4F3061444EAC21455101D72DC718C89AC
:10191000C2F3412242EA84025A72CA89C4F384148F
:1019200044EA4214D2109C72DA720A8A1A734C8A00
:10193000C2F3022242EAC4025A738A8AC4F34514EB
:1019400044EA821495109C73DD73CD8AC2F3802221
:1019500042EA45021A740C8BC5F3C31545EA041517
:101960005D744A8BC4F3061444EAC21455109C7487
:10197000DD748C8BC2F3412242EA84021A75CA8B51
:10198000C4F3841444EA4214D2105C759A750022A0
:10199000DA754279D0F838011A76036802495B6833
:1019A000192230BC184700BF7416FF1F2DE9F04FF5
:1019B0008FB00F460590202206A800211FF01CFFC3
:1019C000002F56D0059A02F2271304931346AC3227
:1019D00003921A466C3302930DF11603019302F53C
:1019E00084794FF000081BE03868039B53F8041F0C
:1019F00003931EF055FF029B53F8041F02931FF040
:101A00000DF91FF059FA019B08F1040823F8020FA1
:101A1000B8F1400F07F1040709F10109019328D03B
:101A2000049A12F8013F0492002BDDD0059B99F82F
:101A30000050D3F8F43053F80840BCB1012D2068B1
:101A400012D94FF0010B3E68DA4601460AF1010A4D
:101A500030461FF02FF85FFA8AFA54F82B101EF068
:101A600021FF5545D346F0D83860BEE700203860E6
:101A7000BBE706A90598FFF71DFF0FB0BDE8F08F83
:101A8000F8B50D4600EB41010446CA85A1F84E3079
:101A900010461F461EF0B6FF064638461EF0B2FF3F
:101AA00031461EF0FDFE014607464FF080401FF014
:101AB000B5F804EB85044FF07C51054620673846A5
:101AC0001EF0F8FF31461EF0EDFE294600F1004001
:101AD0001EF0F0FFC4F8B000F8BD00BF3AB133B15A
:101AE00000EB4101C88D1080B1F84E201A8070477C
:101AF000D2B32DE9F843D0F8F060144698468946F1
:101B0000074696B30FFA89F556F8250028B31FF05B
:101B10009FFA4FEA8800D7F8F0601FF091FA46F874
:101B20002500B8F1000F10D0D7F8F03008F1FF36DB
:101B300053F82550F6B2043D04EB8606221F52F8F6
:101B4000044F45F8044FB242F9D14F44012387F8BE
:101B5000F88087F81831BDE8F8834FEA88001FF055
:101B60006FFA46F82500DCE7704740201FF068FA5E
:101B7000C7F8F0000646C5E7D2B130B4451895F86D
:101B8000F840A4B19BB1D0F8F00050F82100043A1D
:101B90000438002101E08B4209D050F8044F42F88C
:101BA000044F013195F8F840C9B28C42F3D830BCEB
:101BB000704700BFD2B32DE9F843D0F8F460144663
:101BC00098468946074696B30FFA89F556F82500D8
:101BD00028B31FF03DFA4FEA8800D7F8F4601FF0F1
:101BE0002FFA46F82500B8F1000F10D0D7F8F430DE
:101BF00008F1FF3653F82550F6B2043D04EB860693
:101C0000221F52F8044F45F8044FB242F9D14F4415
:101C1000012387F8088187F82831BDE8F8834FEA67
:101C200088001FF00DFA46F82500DCE770474020D9
:101C30001FF006FAC7F8F4000646C5E7D2B130B483
:101C4000451895F80841A4B19BB1D0F8F40050F8BC
:101C50002100043A0438002101E08B4209D050F8F9
:101C6000044F42F8044F013195F80841C9B28C4243
:101C7000F3D830BC704700BF38B5D0F8F030054617
:101C800063B100241859043418B11FF0E1F9D5F8F4
:101C9000F030402CF6D118461FF0DAF9D5F8F430C0
:101CA00063B100241859043418B11FF0D1F9D5F8E4
:101CB000F430402CF6D118461FF0CAF9284638BD3A
:101CC000F8B52F4DEB69DB07044646D510F092FCC2
:101CD0002B6AA268C01A82423CBF002323730026ED
:101CE0000127D4F8380103681B699847002832DDC2
:101CF00010F080FCD4F8383128621A68184653690D
:101D00009847237BC0B2A0738BB92379834202D05A
:101D100026736073E5E7627B6379934204D0E379CD
:101D2000A17913409942F3D127736073D9E7182B37
:101D300004DCE2180133DBB290732373192BE8D172
:101D40006379834217D0E379A2791840824212D096
:101D500000202073F8BD0020F8BD05F11C000EF036
:101D60009FF90028B2D010F045FC286205F11C0054
:101D70000EF09CF9AAE7002323730120F8BD00BFF1
:101D80007416FF1F2DE9F0410D461746984604468C
:101D9000FFF796FF002800F0A580002D00F08E8050
:101DA000227CE37B43EA0223C3F30A032B80637C98
:101DB000227C5B0143EAD203C3F30A036B80A27C5B
:101DC000637CE17C920042EA931343EA8123C3F3EC
:101DD0000A03AB80237DE27CDB0143EA5203C3F3B9
:101DE0000A03EB80637D227D1B0143EA1213C3F3D8
:101DF0000A032B81A27D637DE17D520042EAD31369
:101E000043EA4123C3F30A036B81237EE27D9B01F6
:101E100043EA9203C3F30A03AB81637E227EDB00B5
:101E200043EA5213EB81E27EA37E43EA0223C3F32B
:101E30000A032B82237FE27E5B0143EAD203C3F3D2
:101E40000A036B82217F637FA27F9B0043EA91118B
:101E500041EA8221C1F30A01A982E37FA27FDB016B
:101E600043EA5203C3F30A03EB8294F82030E27F83
:101E70001B0143EA1213C3F30A032B8394F8216076
:101E800094F8201094F82230760046EAD11141EA05
:101E90004321C1F30A01698394F8233094F8222086
:101EA0009B0143EA9203C3F30A03AB8394F8243003
:101EB00094F82320DB0043EA5213EB83B8F1000FC0
:101EC00008D094F8253094F82720134018BF012338
:101ED00088F8003037B194F8253094F82820134062
:101EE00002D13B70BDE8F08101233B70BDE8F08179
:101EF0002DE9F04F8FB00F4606A904460490FFF776
:101F000041FF059000284FD023466C3322460DF147
:101F100016010293AC3204F217130391019200935D
:101F200004F1F8094FF00008039B33F8020F039304
:101F30001EF06CFD029B53F8041F02931EF0BAFDC5
:101F4000019B53F8041F01931EF0ACFC009A12F899
:101F5000013F009204463860EBB1049B99F80060A1
:101F6000D3F8F03053F8085015B3012E296811D971
:101F70004FF0010BDA4620461EF09CFD55F82B1061
:101F80001EF090FC0AF1010A5FFA8AFA56450146F2
:101F9000D346F0D8396008F10408B8F1400F07F1D2
:101FA000040709F10109BFD105980FB0BDE8F08F12
:101FB0000021EFE7F8B500EB410500EB8104E88D67
:101FC0001EF020FD0646B5F84E001EF01BFD314602
:101FD0001EF066FC014607464FF080401EF01EFED4
:101FE0004FF07C510546206738461EF063FD3146B0
:101FF0001EF058FC294600F100401EF05BFDC4F8BD
:10200000B000F8BDCAB10129106815D92DE9F04119
:102010000125164698460F462C4601460134404697
:102020001EF048FDE4B256F825101EF03BFCBC4201
:102030002546F2D3BDE8F08170470020704700BF0D
:1020400008B50A220021044821F064FC00EB80005E
:102050004000013080B208BD687B02002DE9F047E6
:1020600090F90090B9F1010F84B00C4647D0DFF829
:1020700008813D4F03AD204620F0A2F8061E70DD1A
:10208000A0192246002312F8011B82420B44FAD108
:10209000364883FB00011944DA17C2EBA11202EBA8
:1020A000420202EB42129B1A0133314ADFF8B89028
:1020B000042128461FF0FCFD03212846D8F80080A3
:1020C00014F01EFE3146204614F01AFE386883785C
:1020D0008BB103787BB10123294600930322434649
:1020E000002505F087F8D9F80000009543463246F0
:1020F000214605F07FF8012004B0BDE8F087C378E1
:10210000064603AD1BB9DFF87080174FB3E71823FD
:10211000174ADFF86480144F042128461FF0C8FDD9
:1021200003212846D8F800A014F0EAFD0221114846
:1021300014F0E6FD3868837883B1037873B15346B1
:1021400003222946CDF8009005F054F800223868A3
:10215000084900925346022205F04CF80023F37020
:1021600089E70123A1E700BF7801002003B57EA520
:102170008C7B0200389002002C01002010B50A224E
:102180009CB0044600210F4821F0C4FB00EB800006
:102190004000013080B21EF035FC1DF0E1FF0A4B1B
:1021A00000221EF05BF9094ACDE9000103A8642171
:1021B0001FF07EFD03A920460122FFF74FFF1CB050
:1021C00010BD00BF687B020000002440947B020029
:1021D00010B5E8B0104B03921B68029104461846F4
:1021E0001EF010FC1DF0BCFF09A3D3E900231EF074
:1021F0000BF80A4ACDE9000104A84FF4C8711FF09A
:1022000057FD04A920460022FFF728FF68B010BD43
:102210007B14AE47E17A643F28010020A47B0200D2
:102220002DE9F04F0622D3B00C4606460846B249C7
:1022300020F034F8002800F0A1800722AF492046A2
:1022400020F02CF868B9E379202B04F1070403D1BE
:1022500014F8013F202BFBD00122A9493046FFF79B
:10226000FDFEA84D2146286800F06CFE10B153B069
:10227000BDE8F08FA44F214638680BF0B1FC002870
:10228000F5D1DFF8DC822146D8F800000CF0DAF94D
:102290000028ECD1DFF8CC922146D9F8000005F0F7
:1022A000F3F80028E3D1DFF8C0A22146DAF80000F5
:1022B0000CF0D0FB0028DAD1DFF8B0B22146DBF811
:1022C000000008F003F80028D1D1904B214618688F
:1022D00008F066F90028CAD18D4B2146186807F02E
:1022E000C7FC0028C3D18B4B2146186807F0F8F9CA
:1022F0000028BCD1884B2146186806F001FC002854
:10230000B5D1864B214618680AF012FD0028AED1DF
:10231000834B2146186802F02FFE0028A7D1814B7D
:102320002146186806F08CFF019000289FD10422F6
:102330007D4920461FF0B2FF019B78B362783D2AA9
:1023400000F0B8800622794920461FF0A7FF054615
:10235000002840F09D80201D3D211FF0F7FC002843
:1023600000F09480294601300A2221F0D3FA00308F
:1023700018BF01200023B070737078E701226C4908
:102380003046FFF76BFEA379202B04F106047FF49F
:1023900068AF14F8013F202BFBD062E7D8F800307B
:1023A000644A0C3302A84FF4A0711FF081FC02A90B
:1023B00001223046FFF752FE96F900305E4A02A82D
:1023C0004FF4A0711FF074FC02A901223046FFF700
:1023D00045FE02A84D2259491FF010F902A9012219
:1023E0003046FFF73BFE564B564A02A84FF4A07109
:1023F0001FF05EFC02A901223046FFF72FFEDFF836
:1024000070E1BEE80F0002AC0FC4BEE80F000FC4BD
:10241000DEF8003024F8023B1B0C02A901222370D5
:102420003046FFF71BFE3D4B186809F0DDFD3A4BC7
:10243000186805F06BFD444B186802F079FE2868B7
:1024400000F044FCD9F8000004F0F4FF38680BF009
:1024500099FBD8F800000CF089F8DAF800000CF0CD
:10246000DFFADBF8000007F0F7FE284B186808F0E9
:102470007BF8274B186807F0C3FB264B186807F05A
:102480000DF9274B186802F071FBF0E601206EE7AA
:1024900004222E4920461FF001FF08B307222C49D1
:1024A00020461FF0FBFE78B1224630462949FFF74F
:1024B0008FFEDCE62278692A18D11946A01C0A2270
:1024C00021F028FA3070D2E602A81D4B224A78216A
:1024D0001FF0EEFB02A930460122FFF7BFFDC6E662
:1024E000194B211D186803F0F1FAC0E62246304668
:1024F0001A49FFF76DFEBAE6B47B0200DC7B0200EE
:10250000E47B0200480100204C010020580100201B
:102510005C01002060010020380100204001002003
:10252000640100203C010020047C0200587D020070
:10253000BC7B02000C7C02003C7C0200A87C0200F8
:10254000587B0200F87C020078010020607D0200C8
:10255000687D0200807D0200747D0200347D0200EF
:1025600050010020440100207C0100205401002083
:10257000107D020070B5D0F8CC3084B004469BB911
:102580003E4A1F291268C0F8D02027D894F900309D
:10259000012B1AD00A2932D00D2930D0D4F8CC30F2
:1025A000C62B20DC04B070BD1F29EFD9C218C62B82
:1025B000117114DD0023012280F8D420C0F8CC3042
:1025C000037194F90030012BE4D16378002BE1D141
:1025D0000846039114F05CFC0399DBE701710133B9
:1025E000C4F8CC30D2E7234400251D7101222449D0
:1025F0002046FFF733FDC4F8CC5004B070BD94F80A
:10260000D43053BBD4F8CC20002A1DDD1D4B1868F4
:1026100003788BB183787BB1A3180A211971251D2A
:102620004FF0FF36D4F8D03000960132294604F03E
:10263000E1FDD4F8CC2000E0251D224400232946EA
:1026400013712046FFF7ECFD94F90050012D0DD0D9
:102650000023C4F8CC3004B070BD002384F8D4301B
:10266000012209492046FFF7F9FCF1E72A4607490C
:102670002046FFF7F3FCE570EAE700BF2C010020DD
:10268000B07D0200780100208C7D0200A87D020050
:10269000F8B5074614F0B6FA142804DC00280646FC
:1026A00010D001DCF8BD1426002414F06FFA051ECA
:1026B00004F10104A5F10A0306DB752B05D9B44228
:1026C000F3DBF8BD7B78BBB1F8BD7B7843B10A2D55
:1026D00001D00D2D04D1012215493846FFF7BEFC6B
:1026E000144A00231268C7F8D820E9B27B70384634
:1026F000BDE8F840FFF73EBFBB78002BE4D00D4AA1
:10270000D7F8D81013685B1AB3F57A6F0ED997F91A
:1027100000301268C7F8D82013B101237B70F8BDD0
:10272000012205493846FFF799FCF6E7F8BD00BFDE
:102730000C7E02002C010020CC7D0200F0B5151E9D
:1027400085B00C463BDD48190A46002312F8011BF0
:1027500082420B44FAD11B4883FB00011944DA176B
:10276000C2EBA11202EB420202EB42129B1A0133AE
:10277000154A164E042103A81FF09AFA144B0321A0
:1027800003A81F6814F0BCFA2946204614F0B8FAD2
:102790003068837883B1037873B1012303A9009370
:1027A00003223B4604F026FD306800263B462A46BD
:1027B0002146009604F01EFD012005B0F0BD012366
:1027C000D6E700BF03B57EA58C7B02007801002010
:1027D0002C0100200CF0D8BF38B504460023264A4F
:1027E00026492748A361E36123626362A362E3622F
:1027F000236363632264A2642265A063E16361646E
:10280000E1644FF4A07017F0A1FC1E49054600F0EA
:10281000F3FF25604FF4A07017F098FC1A490546A5
:1028200000F0EAFF65604FF4A07017F08FFC1749C5
:10283000054600F0E1FFA5604FF4A07017F086FC9C
:102840001349054600F0D8FFE5604FF4A07017F07B
:102850007DFC1049054600F0CFFF25614FF4A070C4
:1028600017F074FC0C49054600F0C6FF00236561B3
:1028700084F85C30204638BD0000A0400000A0C0B5
:1028800000007A44307F0200387F0200407F02005F
:10289000487F0200507F0200587F020038B504468E
:1028A00000681A4D01F0F4FD606801F0F1FDA068C8
:1028B00001F0EEFDE06801F0EBFD206901F0E8FDBC
:1028C000606901F0E5FD616B286802F085F9A16B94
:1028D000286802F081F9E16B286802F07DF9216C2B
:1028E000286802F079F9616C286802F075F9A16C2A
:1028F000286802F071F9E16C286802F06DF9216D29
:102900002868BDE8384002F067B900BF64010020C4
:1029100038B5044600681D4D01F04AFE606801F0BC
:1029200047FEA06801F044FEE06801F041FE206926
:1029300001F03EFE606901F03BFE286802F082F97A
:102940006063286802F07EF9A063286802F07AF9D3
:10295000E063286802F076F92064286802F072F9D2
:102960006064286802F06EF9A064286802F06AF9D1
:10297000E064286802F066F9054B206501221868BA
:102980000449BDE83840FFF769BB00BF640100207F
:1029900074010020607F02002DE9F043274B284F8F
:1029A0001A683B68274D83B00446111DC06800912A
:1029B000083204F12401043301F014FB26463B687D
:1029C0002A6856F81C0B4FF0000804F11809494614
:1029D0000833C832CDF8008001F004FB3B682A6858
:1029E0006068CDF8008031460C33CC3201F0FAFA41
:1029F0003B682A68A068CDF8008004F120011033FC
:102A0000D03201F0EFFA2A68206902F1C8014B4682
:102A1000009102F5FE7204F1280101F0E3FA2A6840
:102A2000606902F1CC010091334602F5007204F1B5
:102A30002C0101F0D7FA03B0BDE8F083600100205B
:102A400044010020400100202DE9F043B1B00C46C4
:102A50000891064600E008942546013428781EF0C7
:102A6000B1FA0028F7D1202128461FF06FF909900C
:102A700000287ED0284609A920F08EFE09A98046AC
:102A8000099820F089FE09A90746099820F084FEDC
:102A900008A90546099820F07FFE089A099B9A42EA
:102AA00004465CD9444B1B6893F831304BB9434B17
:102AB000434918680122FFF7D1FA012031B0BDE87F
:102AC000F083D6F83490404649461EF091F900282C
:102AD0003AD0C6F82490D6F83C80384641461EF0DD
:102AE00087F938B3C6F82880776C284639461EF037
:102AF0007FF9B0B1F762F56C204629461EF078F9EF
:102B000050B9356D204629461EF090F920B90120B4
:102B1000346331B0BDE8F0830120356331B0BDE8E6
:102B2000F083B76C284639461EF080F90028E1D1C1
:102B3000F562E0E7D6F84080384641461EF076F967
:102B40000028CFD1B762CFE7D6F838904046494643
:102B50001EF06CF90028BCD1C6F82480BBE7174BE7
:102B6000184918680122FFF779FA012031B0BDE851
:102B7000F083306B1DF0F4FACDE90601F06A1DF028
:102B8000EFFACDE90401B06A1DF0EAFACDE90201DD
:102B9000706A1DF0E5FA0C4ACDE900010AA89621F9
:102BA0001FF086F8054B0AA918680122FFF756FAAC
:102BB000012031B0BDE8F0835001002074010020F5
:102BC000887F02009C7F0200D47F020070B5B8B0FD
:102BD0000C461091064600E01094254601342878F2
:102BE0001EF0F0F90028F7D1202128461FF0AEF89A
:102BF000119040B311A9284620F0CEFD11A97063B1
:102C0000119820F0C9FD11A9B063119820F0C4FDFE
:102C100000F100433064F36311A9119820F0BCFD6A
:102C200000F10043B064736410A9119820F0B4FD62
:102C3000109A119B30659A4200F10040F06438D040
:102C4000012038B070BD306D1DF08AFACDE90E015B
:102C5000F06C1DF085FACDE90C01B06C1DF080FA26
:102C6000CDE90A01706C1DF07BFACDE90801306CEA
:102C70001DF076FACDE90601F06B1DF071FACDE991
:102C80000401B06B1DF06CFACDE90201706B1DF010
:102C900067FA0B4ACDE9000112A896211FF008F847
:102CA000084B12A918680122FFF7D8F9012038B0A3
:102CB00070BD044B044918680122FFF7CFF9BFE744
:102CC0002480020074010020E87F020010B51A4C35
:102CD0001A4920680122FFF7C1F92068184901222A
:102CE000FFF7BCF9206817490122FFF7B7F9206800
:102CF00015490122FFF7B2F9206814490122FFF7B4
:102D0000ADF9206812490122FFF7A8F9206811499E
:102D10000122FFF7A3F920680F490122FFF79EF96E
:102D200020680E490122FFF799F920680C49012219
:102D3000BDE81040FFF792B97401002054800200F2
:102D40006C80020098800200E0800200288102006E
:102D500060810200A8810200F08102001C82020052
:102D60007082020038B5044600680D4600F0B4FDDC
:102D700040B1184B1849186801220124FFF76EF979
:102D8000204638BD2946606800F0A6FD0028F0D135
:102D90002946A06800F0A0FD0028EAD12946E06895
:102DA00000F09AFD0028E4D12946206900F094FD46
:102DB0000028DED16069294600F08EFD0446002817
:102DC000D7D1044B054918680122FFF747F920467F
:102DD00038BD00BF74010020A88202009882020062
:102DE00030B53A4B04460D4693E80700C5B06B4634
:102DF00003C300211A700DF1090040F205121EF004
:102E0000FBFC2946206801F07DFDA8B120684FF445
:102E1000837202A900F0FCFF0830C0F587722C49CC
:102E200068441FF08BFA2B4B694618680122FFF7A4
:102E300015F9012045B030BD2946606801F062FDFA
:102E400038B160684FF4837202A900F0E1FF0830E6
:102E5000E3E72946A06801F055FD60B92946E0681E
:102E600001F050FD78B1E0684FF4837202A900F0E0
:102E7000CFFF0830D1E7A0684FF4837202A900F0B9
:102E8000C7FF0830C9E72946206901F03BFD68B952
:102E90002946606901F036FD054678B160694FF456
:102EA000837202A900F0B4FF0830B6E720694FF43E
:102EB000837202A900F0ACFF0830AEE7054B06496B
:102EC00018680122FFF7CAF82846B3E7207E0200FF
:102ED000D092020074010020B4820200F8B50746C7
:102EE0000D462C46013520781EF06CF80028F8D1EC
:102EF000202120461EF02AFFD0B1451E15F8016F93
:102F000030461EF05FF80028F8D1202E10D9214657
:102F10003846FFF727FF044644B9084B08491868AC
:102F20000122FFF79BF83846FFF7D0FE2046F8BD98
:102F300021463846FFF754FF0446EDE774010020B0
:102F4000CC820200F8B504220C4607460846264902
:102F50001FF0A4F998B10322244920461FF09EF9DE
:102F600080B30522224920461FF098F908B10020BD
:102F7000F8BD611D3846FFF729FE0120F8BD043475
:102F80002546013428781EF01DF80028F8D12021AC
:102F900028461EF0DBFE80B1441E14F8016F304657
:102FA0001EF010F80028F8D1202E06D92946384600
:102FB000FFF7D8FE60B10120F8BD29463846FFF77B
:102FC0000FFFF7E7E11C3846FFF73EFD0120F8BD93
:102FD000084B094918680122FFF740F83846FFF707
:102FE00075FE0120F8BD00BFE4820200EC82020001
:102FF000F482020074010020CC82020010B5044665
:10300000006800F043FC606800F040FCA06800F03D
:103010003DFCE06800F03AFC206900F037FC606994
:1030200000F034FC0023A361E36123626362A362C6
:10303000E362236310BD00BF38B590F85C30002B0D
:1030400048D00446C0680378002B44D1324D206933
:103050002B68626A5A600378002B44D160690023B0
:10306000A3610378002B45D10023E3612068226B24
:1030700003782262002B4AD12B6800229A60606894
:103080000378002B3FD12B680022DA60A068037818
:10309000002B33D12C680023236165681F49284623
:1030A0001DF0A6FEB0B128461C491DF0B7FD014633
:1030B0000546A0681DF0FEFC2378A060032B09D014
:1030C0002946E0681DF0F6FC2946E06020691DF005
:1030D000F1FC206138BD002100F08CFF20690E4D0D
:1030E0000378002BBAD0002100F084FF60690378D8
:1030F000002BB9D0002100F07DFFB7E7002100F0E0
:1031000079FF2C68C9E7002100F074FFBEE70021B9
:1031100000F070FFB3E700BF440100200000484307
:103120002DE9F041476B0446384616461D46884651
:103130001DF07CFE30B9A76B404639461DF076FE87
:10314000002831D06762E76B314638461DF06EFECD
:1031500028B9276C304639461DF068FE10B3A762C7
:10316000666C294630461DF061FE28B9A66C2846DB
:1031700031461DF05BFE98B1E662E56C0699284683
:103180001DF054FE48B9256D069829461DF04EFEE7
:1031900018B9069B2363BDE8F0812563BDE8F08183
:1031A000E562EAE7A662DBE7C4F82480CBE700BF6C
:1031B0000CF0EABAFFFFFFFF0449C1604FF07E52F6
:1031C0000021017082604260704700BF0AD7233B34
:1031D0002DE9F041416004460F4682600021184607
:1031E00090461E461DF00EFE78B90346002523705A
:1031F000304629461DF006FE50B94FF07E5325613A
:103200006561A361E361BDE8F0814FF00103EDE783
:10321000414640461DF046FBE668314680461DF0BB
:1032200041FB41460546A06130461DF039FB294669
:103230001DF0F4FC3946E06138461DF033FB0146D1
:10324000074630461DF02EFB29461DF0E7FC3946A7
:10325000206130461DF024FB29461DF0DFFC606133
:10326000BDE8F081F8B503783BB94FF07E520023FA
:103270008261C26103614361F8BD8168044608460A
:103280001DF010FBE668314607461DF00BFB394682
:103290000546A06130461DF003FB29461DF0BEFC2B
:1032A0006168E06108461DF0FDFA014607463046B8
:1032B0001DF0F8FA29461DF0B1FC39462061304670
:1032C0001DF0EEFA29461DF0A9FC6061F8BD00BFB3
:1032D0000023036243628362C3627047037870B560
:1032E000044613B90020A06270BDC069E16A256A76
:1032F00000F100401DF0DEFB2169064628461DF066
:10330000D9FB014630461DF0CDFA616A0646606978
:103310001DF0D0FB014630461DF0C4FA6562E06244
:10332000A06270BD2DE9F0430E4683B0044601A9AA
:103330003046002220F0EEFA019D031C18BF012345
:10334000AE4223700ED303BB4FF07E520023A26126
:10335000E26123616361AE4234BF2846002003B0BE
:10336000BDE8F083284601A920F016FA2F46019DFA
:103370006060AF422E4632D2284601A920F00CFAF6
:103380002378019DA060002BDED0A16808461DF0C7
:1033900089FAD4F80C80414681461DF083FA4946EB
:1033A0000746A06140461DF07BFA39461DF036FC09
:1033B0006168E06108461DF075FA014681464046A5
:1033C0001DF070FA39461DF029FC4946206140463F
:1033D0001DF066FA39461DF021FC6061BBE73E46F0
:1033E0002378B0E7F0B5044685B0806827781646A4
:1033F0000D461CF0B5FECDE9020160681CF0B0FE80
:103400003B46CDE90001054A314628461EF050FCF6
:10341000284605B0BDE8F0401EF0D2BEFC82020096
:1034200038B5037803B938BD054D416804462868AE
:1034300001F0D2FB2868A168BDE8384001F0CCBBA0
:1034400064010020F8B5037804463BB94FF07E5282
:103450000023A261E26123616361F8BD194D286810
:1034600001F0F0FB6060286801F0ECFB2378A060BD
:10347000002BEBD001461DF015FAE66831460746F1
:103480001DF010FA39460546A06130461DF008FAD5
:1034900029461DF0C3FB6168E06108461DF002FA91
:1034A0000146074630461DF0FDF929461DF0B6FBE2
:1034B0003946206130461DF0F3F929461DF0AEFB78
:1034C0006061F8BD6401002030B4074A074C826097
:1034D0004FF07E55002201214560C46041700270AA
:1034E000027430BC704700BF0AD7233B00247449E4
:1034F00038B50478C26041603CB94FF07E52002379
:10350000C26102624361836138BD044608461546C4
:103510001DF0C8F90A4B23620146E061A0681DF066
:103520007DFB08496061A06128461DF061FC4FF0F9
:10353000010308B1237438BD0346237438BD00BFAE
:10354000000080BF0000C6422DE9F04383B002AF07
:103550000E4647F8041D044639463046002220F046
:10356000D9F9019D003018BF0120AE42207010D360
:103570002378002B32D14FF07E520023E261226289
:103580006361A361AE4234BF2846002003B0BDE8AA
:10359000F0832846394620F0FFF8A846019D606078
:1035A000A845A94641D22846394620F0F5F82049D9
:1035B000E06005461DF01CFC48BB019D2E46A94558
:1035C00031D228463946002220F0A4F92378019D03
:1035D000003018BF01206070002BCCD06168084615
:1035E0001DF060F9134B23620146E061A0681DF0F5
:1035F00015FB11496061A061E0681DF0F9FB4FF017
:10360000010308B12374BDE703462374BAE72846D3
:1036100000211DF001FC019D18B101232E462374E9
:10362000CDE72E46CBE74E46A2E74646A0E700BFD1
:1036300000247449000080BF0000C64270B5037CBE
:1036400086B004460D461646CBB1C0681CF088FD16
:1036500002460B46617860680491CDE902231CF0B4
:103660007FFD23780A4ACDE90001314628461EF045
:103670001FFB284606B0BDE870401EF0A1BD02A3A6
:10368000D3E90023E6E700BF0000000080842E415C
:103690000883020003783BB94FF07E520023C261D9
:1036A0000262436183617047416810B50446084671
:1036B0001DF0F8F80A4B23620146E061A0681DF096
:1036C000ADFA08496061A061E0681DF091FB4FF020
:1036D000010308B1237410BD0346237410BD00BF5D
:1036E000000080BF0000C642002343628362C362C1
:1036F00003637047F8B503783BB30446006A216B57
:10370000676A00F100401DF0D5F961690546384649
:103710001DF0D0F9014628461DF0C4F8A16A0546FF
:10372000A0691DF0C7F9014628461DF0BBF8237CAF
:10373000E062054633B1E66831461DF077FB38B1EB
:10374000E66235462563A762F8BD0023C362F8BD73
:1037500006F10046314628461DF04AFB0028EFD10D
:10376000F0E700BF38B5037803B938BD054D4168AF
:103770000446286801F030FA2868E168BDE838405E
:1037800001F02ABA6401002038B5037804463BB939
:103790004FF07E520023E26122626361A36138BD73
:1037A000124D286801F04EFA6060286801F04AFA6C
:1037B0002378E0600546002BEAD0616808461DF0DA
:1037C00071F80B4B23620146E061A0681DF026FAF8
:1037D00008496061A06128461DF00AFB4FF0010313
:1037E00008B1237438BD0346237438BD640100203A
:1037F000000080BF0000C642F8B5044601254FF026
:103800007E561F4B1F4A84F86950002700251E482A
:1038100020626267E261676163642367C4F8A8306D
:10382000C4F8D830C4F8083184F8385084F86850A7
:1038300084F8785084F89C5084F8CC5084F8FC507C
:10384000257025762664E663E666C4F8A460C4F8AD
:10385000A060C4F8D460C4F8D060C4F80461C4F8AF
:103860000061E660A01C08221EF068FD25746661F8
:103870006562A562E562256384F834502046F8BD90
:103880000AD7233B00247449002474C900238365AC
:10389000C36503664366C0F88C30C0F89030C0F84A
:1038A0009430C0F89830C0F8BC30C0F8C030C0F8D0
:1038B000C430C0F8C830C0F8EC30C0F8F030C0F800
:1038C000F430C0F8F830C0F81C31C0F82031C0F82E
:1038D0002431C0F8283170472DE9F04784B00F46F5
:1038E000019106460C4600E00194254601342878F3
:1038F0001DF068FB0028F7D106F1020840461EF0D3
:103900005FFC41460246044638461EF0C7FCB0F153
:1039100000080CBF0127002703D0384604B0BDE8DB
:10392000F08725440A22284602A901951FF0F2FFDC
:10393000029B019A003018BF012093423070ECD9ED
:10394000184602A901931FF027FF0299019BF0601E
:103950009942E2D906F16800FFF7F6FD04460190AE
:10396000002800F0DE80424603A91FF0D3FF039D2C
:10397000031C18BF0123AC4286F89C30A846C0F057
:10398000BB80002B40F08C814FF07E520023C6F8A4
:10399000B420C6F8B820C6F8AC30C6F8B030A5429E
:1039A000A84640F220820195002D00F02B82284687
:1039B000002203A91FF0AEFF039C031C18BF0123C4
:1039C000A04586F8CC302546C0F08180002B40F021
:1039D0000D814FF07E520023C6F8E420C6F8E8209F
:1039E000C6F8DC30C6F8E0304445F36A40F2F481B2
:1039F0000194002B00F0BE8196F8CC304FF0000807
:103A0000C6F8D080002B40F07B814FF07E53C6F883
:103A1000DC80C6F8E0802546C6F8E430C6F8E83019
:103A2000002D00F0DE81002203A928461FF072FF5E
:103A3000039C031C18BF0123AC4286F83830A04613
:103A400032D8002B40F002814FF07E5200233265C5
:103A50007265B364F364AC428CBF204600200190D1
:103A6000002800F0BE81002202A91FF053FF019B35
:103A7000003018BF0120307613B10298984252D816
:103A80001A7832B9B24BB34918680122FEF7E6FA48
:103A900043E718460A2200211FF03CFF003018BF00
:103AA000012086F8340038E7204603A91FF074FE91
:103AB000039DF063A8452C4680F0A68103A9284603
:103AC0001FF06AFE96F83830039C3064B9E7204650
:103AD00003A91FF061FE039CC6F8D000A542A046D2
:103AE00080F08881204603A91FF056FE96F8CC305E
:103AF000039CC6F8D40069E7284603A91FF04CFED2
:103B0000039DC6F8A000A8452C4680F07781284682
:103B100003A91FF041FE96F89C30039DC6F8A4004F
:103B20002FE70346ACE702A91FF036FE02A90446C0
:103B300002981FF031FE0546014620461DF076F939
:103B4000002800F0098104F1004325461C46019B32
:103B50003462F561002B93D00298984290D90A22E2
:103B600001A91FF0D7FE003018BF0120307401A951
:103B700001981FF0FFFD1CF03FFE019D70610022C7
:103B8000284603A91FF0C6FE039C031C18BF01238F
:103B9000A54286F8FC30A04613D3002B40F0EC8001
:103BA0004FF07E520023C6F81421C6F81821C6F83B
:103BB0000C31C6F81031AC428CBF23460023019370
:103BC0005EE7204603A91FF0E7FD039CC6F800014D
:103BD000A045254680F00A81204603A91FF0DCFDA0
:103BE00096F8FC30039CC6F80401D6E7D6F8D4104A
:103BF00008461CF057FED6F8D890494682461CF07D
:103C000051FE51460546C6F8E40048461CF048FE01
:103C100029461DF003F8D6F8D010C6F8E80008468B
:103C20001CF040FE0146824648461CF03BFE2946F9
:103C30001CF0F4FF5146C6F8DC0048461CF030FE8C
:103C400029461CF0EBFFC6F8E000CDE6316C0846D3
:103C50001CF028FED6F84490494682461CF022FE0D
:103C600051468046306548461CF01AFE41461CF01D
:103C7000D5FFF16B706508461CF014FE01468246C4
:103C800048461CF00FFE41461CF0C8FF5146B06488
:103C900048461CF005FE41461CF0C0FFF064DAE621
:103CA000D6F8A41008461CF0FDFDD6F8A8904946A9
:103CB00082461CF0F7FD51468046C6F8B4004846DF
:103CC0001CF0EEFD41461CF0A9FFD6F8A010C6F886
:103CD000B80008461CF0E6FD0146824648461CF046
:103CE000E1FD41461CF09AFF5146C6F8AC0048463B
:103CF0001CF0D6FD41461CF091FFC6F8B0004EE620
:103D0000D6F8D41008461CF0CDFDD6F8D850294678
:103D100082461CF0C7FD51468146C6F8E40028469D
:103D20001CF0BEFD49461CF079FF4146C6F8E8008C
:103D300028461CF0B7FD49461CF070FF4946C6F8FE
:103D4000DC0028461CF06AFF2546C6F8E00067E65E
:103D50007401002018830200294620461DF03EF819
:103D600000283FF4F4AE4FF07E5128461CF098FD39
:103D70000446ECE6254653E6D6F8041108461CF046
:103D800091FDD6F80891494682461CF08BFD5146BC
:103D90008046C6F8140148461CF082FD41461CF0DE
:103DA0003DFFD6F80011C6F8180108461CF07AFD50
:103DB0000146824648461CF075FD41461CF02EFF28
:103DC0005146C6F80C0148461CF06AFD41461CF0FD
:103DD00025FFC6F81001EEE600240194002B7FF4C5
:103DE0000BAE00234CE600230193FAE7454696F814
:103DF000FC30D2E6A84696F8CC30E7E5444696F883
:103E00009C30BEE52B463BE6454696F8383018E632
:103E10002DE9F043054687B0C06817460E461CF0F2
:103E20009FF92A780092CDE90201AB1C3946304651
:103E3000674A1DF03DFF95F87830044606EB000810
:103E4000C0EB0709002B00F0BB80686F1CF088F9FD
:103E500002460B4695F86910E86E0491CDE90223FD
:103E60001CF07EF995F868305A4ACDE900014946C0
:103E700040461DF01DFF40461EF0A2F90444D5F84F
:103E8000A40095F89C901CF06BF9CDE90201D5F8DF
:103E9000A0001CF065F906EB04083A1B4B46CDE97F
:103EA0000001114640464C4A1DF002FF40461EF0FC
:103EB00087F90444D5F8D40095F8CC901CF050F95B
:103EC000CDE90201D5F8D0001CF04AF906EB040850
:103ED0003A1B4B46CDE90001114640463E4A1DF0D3
:103EE000E7FE40461EF06CF90444286C95F83890C3
:103EF0001CF036F9CDE90201E86B1CF031F906EB54
:103F000004083A1B4B46CDE9000111464046324AAF
:103F10001DF0CEFE40461EF053F90444E86995F8C2
:103F200018801CF01DF9CDE90201286A1CF018F96F
:103F3000C4EB070E3219CDE9000143467146104625
:103F4000254A1DF0B5FE0444686995F810801CF000
:103F500007F9C4EB070E32194346CDE9000171465B
:103F600010461E4A1DF0A4FE0444D5F8040195F83D
:103F7000FC901CF0F5F8CDE90201D5F800011CF029
:103F8000EFF806EB04083A1BCDE900014B46114659
:103F90004046114A1DF08CFE40461EF011F9E96AB8
:103FA00095F834300E4A0D1C044418BF0125391B06
:103FB000301900951DF07CFE204407B0BDE8F08369
:103FC00001A3D3E9002345E70000000080842E41CF
:103FD0005883020008830200FC820200648302000E
:103FE0006C83020010B4019CC4624162826203636C
:103FF00010BC70472DE9F84F037C0446002B33D0EA
:1040000090F8FC30002B00F04481436A4169186845
:104010001CF050FD0546D4F81801D4F82811C4F856
:104020001C5100F100401CF045FDD4F80C1106466F
:1040300028461CF03FFD014630461CF033FCD4F806
:1040400020110646D4F810011CF034FD014630461C
:104050001CF028FC2378C4F82051C4F82401C4F8CB
:1040600028013BB9BDE8F88F0023C0F8243123783C
:10407000002BF7D094F83830002B40F0DB80636AD7
:104080001D6894F8CC30C4F82C51002B00F0F88057
:10409000E36A002B00F05481A76A1968D4F8D000B5
:1040A0001CF008FD39681CF0FDFB0546D4F8E8005B
:1040B000D4F8F810C4F8EC5000F100401CF0FAFC01
:1040C000D4F8DC10064628461CF0F4FC01463046C5
:1040D0001CF0E8FBD4F8F0100646D4F8E0001CF021
:1040E000E9FC014630461CF0DDFBC4F8F05094F8C2
:1040F00034A0D4F82C51C4F8F4000646C4F8F800F3
:10410000C4F83001BAF1000F24D0396828461CF0F9
:10411000C7FB1CF025F8A4A3D3E9002380468946F9
:104120001CF002FB002840F0E88040464946A0A36E
:10413000D3E900231CF0DAFA60B128461CF010F82D
:104140009DA3D3E900231BF0ADFE1CF055FB0546F3
:10415000C4F82C01314628461CF0A2FBE1681CF093
:10416000A9FC94F89C30C4F8340105463BB3D4F85C
:10417000B800D4F8C810C4F8BC5000F100401CF0DE
:1041800099FCD4F8AC10064628461CF093FC014676
:1041900030461CF087FBD4F8C0100646D4F8B000B7
:1041A0001CF088FC014630461CF07CFBC4F8C05073
:1041B000C4F8C400C4F8C800C4F83401054694F833
:1041C0006830002B6DD06378C4F88C50002B40F021
:1041D0008A80D4F88800D4F8981000F100401CF0D0
:1041E00069FCE16F064628461CF064FC0146304637
:1041F0001CF058FBD4F890100646D4F880001CF050
:1042000059FC014630461CF04DFB94F87830C4F858
:10421000940006464BB1676F39461CF007FE002834
:1042200000F08480C4F894703E46C4F89860C4F8E6
:1042300090505AE0636A606D1E68616EA66500F179
:1042400000401CF037FCA16C054630461CF032FCE7
:10425000014628461CF026FBE16D0546E06C1CF08B
:1042600029FC014628461CF01DFB94F8CC30E6657D
:10427000054620666066C4F82C01002B7FF408AF69
:10428000A76A94F834A03E68D4F82C51C4F8306181
:1042900038E7436A416918681CF00CFCC4F8240133
:1042A000E5E6C4F838512846D4F824111CF0FAFA8F
:1042B000237EC4F83C01054683B1E66931461CF013
:1042C000B5FD40BB266A284631461CF091FD226BA5
:1042D00038B3012316606370BDE8F88F226B10605D
:1042E0006370BDE8F88FD4F89460284631461CF01E
:1042F000D9FA0546C4F83801D5E728461BF030FF47
:104300002DA3D3E900231BF0CBFD1CF075FA054665
:10431000C4F82C011EE7226B012316606370BDE810
:10432000F88F002315606370BDE8F88F07F1004730
:10433000394630461CF05CFD00287FF473AF74E70B
:1043400094F834A0A76ABAF1000F39D1D4F8F81064
:10435000D7F800B0D4F8F060D4F8E830C4F8ECB086
:1043600003F100401CF0A6FBD4F8DC108046584650
:104370001CF0A0FB014640461CF094FAD4F8E01073
:10438000804630461CF096FB014640461CF08AFAF7
:10439000C4F8F0B00646C4F8F400C4F8F800C4F855
:1043A0003001AFE6AFF30080182D4454FB210940E3
:1043B000182D4454FB2109C0182D4454FB211940E9
:1043C000D4F8F060D7F800B0314658461CF068FACF
:1043D0001BF0C6FE28A3D3E90023804689461CF0C3
:1043E000A3F9E8B130461BF0BBFE25A3D3E90023B7
:1043F0001BF058FD1CF000FAC4F8F0000646D4F893
:10440000F8001BF0ADFE1EA3D3E900231BF04AFD0C
:104410001CF0F2F9C4F8F8000146D7F800B09BE7A9
:104420004046494618A3D3E900231CF05FF910B9B0
:10443000D4F8F81090E730461BF092FE10A3D3E9B1
:1044400000231BF02DFD1CF0D7F9C4F8F000064640
:10445000D4F8F8001BF084FE09A3D3E900231BF075
:104460001FFD1CF0C9F9C4F8F8000146D7F800B0E8
:1044700072E700BFAFF30080182D4454FB210940C0
:10448000182D4454FB211940182D4454FB2109C018
:1044900090F86830017870B504460BB141F0020124
:1044A00094F89C300BB141F0040194F8CC300BB17E
:1044B00041F0080194F838300BB141F01001237E2F
:1044C0000BB141F02001237C0BB141F0400194F885
:1044D000FC300BB141F0800194F834300BB141F461
:1044E0008071324D286800F09BFB237863B9237EEE
:1044F00003B970BD216A286800F06EFBE169286885
:10450000BDE8704000F068BBE168286800F064FB1B
:1045100094F86830002B3FD194F89C30002B30D1B8
:1045200094F8CC3013BB94F83830B3B9237C002B0B
:10453000DDD0616928681D4E00F04EFB94F8FC3018
:10454000002BD4D0D4F80011306800F045FB30685F
:10455000D4F8041100F040FBC9E7E16B286800F0D3
:104560003BFB216C286800F037FBDFE7D4F8D01064
:10457000286800F031FBD4F8D410286800F02CFB38
:10458000D1E7D4F8A010286800F026FBD4F8A410D6
:10459000286800F021FBC3E7E16E286800F01CFBEF
:1045A000616F286800F018FBB6E700BF64010020C7
:1045B0002DE9F041B14D0446286800F057FBC0F3E7
:1045C000800200F00106C0F34001C0F3C00384F88C
:1045D0009C20C0F30022C0F30017267084F86810F6
:1045E000C0F38016C0F3C01184F8CC3084F83420B6
:1045F000C0F34013C20784F83870267484F8FC10A6
:1046000023760AD43BB1286800F01CFB206228689E
:1046100000F018FBE061BDE8F081286800F012FBB3
:1046200094F86830E060002B38D14FF07E520023C0
:10463000C4F88420C4F88820E367C4F8803094F874
:104640009C30002B40F0DB804FF07E520023C4F8FA
:10465000B420C4F8B820C4F8AC30C4F8B03094F832
:10466000CC30002B40F08E804FF07E520023C4F8F7
:10467000E420C4F8E820C4F8DC30C4F8E03094F852
:104680003830002B4AD14FF07E52002322656265FC
:10469000A364E364237C53BB237EB3E7286800F064
:1046A000D1FAE066286800F0CDFA94F868306067C7
:1046B0000646002BB9D0E16E08461CF0F3F8704BAB
:1046C000C4F888300146C4F88400206F1CF0A6FAB4
:1046D0006C49E067C4F8800030461CF089FB4FF05D
:1046E0000103002800F0C88084F87830A7E7286824
:1046F000624E00F0A7FA94F8FC306061002B40F0A5
:10470000C3804FF07E510022237EC4F81411C4F8F8
:104710001811C4F80C21C4F8102173E7286800F0C0
:1047200091FAE063286800F08DFA94F8383020643C
:10473000002BA8D001461CF0B5F8676C39468046BE
:104740001CF0B0F841460646206538461CF0A8F833
:1047500031461CF063FAE16B606508461CF0A2F874
:104760000146804638461CF09DF831461CF056FA4A
:104770004146A06438461CF093F831461CF04EFACE
:10478000E06487E7286800F05DFAC4F8D000286884
:1047900000F058FA94F8CC30C4F8D400002B3FF461
:1047A00063AF01461CF07EF8D4F8D87039468046D5
:1047B0001CF078F841460646C4F8E40038461CF080
:1047C0006FF831461CF02AFAD4F8D010C4F8E8008B
:1047D00008461CF067F80146804638461CF062F82F
:1047E00031461CF01BFA4146C4F8DC0038461CF088
:1047F00057F831461CF012FAC4F8E0003FE7286889
:1048000000F020FAC4F8A000286800F01BFA94F821
:104810009C30C4F8A400002B3FF416AF01461CF0F6
:1048200041F8D4F8A870394680461CF03BF8414660
:104830000646C4F8B40038461CF032F831461CF085
:10484000EDF9D4F8A010C4F8B80008461CF02AF816
:104850000146804638461CF025F831461CF0DEF94A
:104860004146C4F8AC0038461CF01AF831461CF03A
:10487000D5F9C4F8B000F2E6034635E7640100203C
:10488000000080BF0000C642306800F0DBF9C4F8C9
:104890000001306800F0D6F994F8FC30C4F8040147
:1048A000002B3FF42EAF01461BF0FCFFD4F808713B
:1048B000394680461BF0F6FF41460646C4F814010F
:1048C00038461BF0EDFF31461CF0A8F9D4F8001172
:1048D000C4F8180108461BF0E5FF0146804638463B
:1048E0001BF0E0FF31461CF099F94146C4F80C0179
:1048F00038461BF0D5FF31461CF090F9237EC4F8F2
:1049000010017FE638B5841C20460D461DF058FC8A
:104910002946024620461DF0C1FCB0FA80F040094D
:1049200038BD00BF70B50546436AD5F830611B68D5
:10493000D0F82C0188600C464B6031461BF0B0FF6C
:10494000E9681CF0B7F82B6BD5F89420D5F8341132
:104950002161E06062611A68AB6AA2611A68D5F8E9
:10496000243163622662E26170BD00BF2DE9F0412F
:10497000E0B0002A00F0C7800C46002900F0C38098
:10498000654E054617469846644AAB1C4FF496712F
:1049900015A81DF08DF9012215A93068FDF75EFB01
:1049A00040461BF0CBFB00225D4B1BF057FD3B4606
:1049B000CDE900015B4A4FF4967115A81DF078F916
:1049C00015A901223068FDF749FBEB6A564A00330E
:1049D00018BF01234FF4967115A81DF069F915A9A8
:1049E00001223068FDF73AFB504930680122FDF79B
:1049F00035FB4F4930680122FDF730FB4D493068E7
:104A00000122FDF72BFB4C4930680122FDF726FB04
:104A10004A4930680122FDF721FB494930680122EB
:104A2000FDF71CFB474930680122FDF717FB46499B
:104A300030680122FDF712FB444930680122FDF77E
:104A40000DFB434930680122FDF708FB41493068FE
:104A50000122FDF703FB30683F490122FDF7FEFA12
:104A6000002FC8BF002546DD606A1BF079FBCDE949
:104A70001201206A1BF074FBCDE91001E0691BF004
:104A80006FFBCDE90E01A0691BF06AFBCDE90C01BB
:104A900060691BF065FBCDE90A0120691BF060FB32
:104AA000CDE90801E0681BF05BFBCDE90601A068D9
:104AB0001BF056FBCDE9040160681BF051FBCDE90A
:104AC000020154F8280B1BF0A1FF1BF049FB144B0B
:104AD00000221BF0C3FC214ACDE900014FF496717E
:104AE00015A81DF0E5F80135012215A93068FDF77C
:104AF000B5FAAF42B8D1306819490122FDF7AEFAD4
:104B000060B0BDE8F081044B164918680122FDF73A
:104B1000A5FA60B0BDE8F08174010020888302002E
:104B2000000059409C830200CC830200FC830200F9
:104B30001084020024840200548402007484020061
:104B400090840200C4840200E48402001085020004
:104B50002885020050850200748502008C850200C1
:104B60007C85020074830200704700BF70B5164E4A
:104B7000164D17493068C0B00122FDF76FFA0FCD0E
:104B800001AC0FC40FCD0FC40FCD0FC495E80700C3
:104B900003C4104D227001A930680122FDF75EFAAE
:104BA0000FCD01AC0FC40FCD0FC40FCD0FC42B68B8
:104BB00024F8023B01A91B0C306823700122FDF789
:104BC0004DFA40B070BD00BF74010020EC850200BA
:104BD000C08502002886020038B504460D460AF05A
:104BE00089FF0028FBD02068B0F5805F03DA2946F2
:104BF0000BF078F820680430206038BD38B50446E2
:104C00000D460AF077FF0028FBD02068B0F5805FE2
:104C100003DA29460AF076FF20680130206038BDAB
:104C200038B504460D460AF065FF0028FBD0206821
:104C3000B0F5805F03DA29460AF0CAFF2068023027
:104C4000206038BD38B504680546204604340AF0B3
:104C500093FE2C6038BD00BF38B504680546204679
:104C600001340AF0D9FD2C6038BD00BF38B50468A6
:104C70000546204602340AF025FE2C6038BD00BFF0
:104C80002DE9F043494D86230360B5B004462868FA
:104C9000FDF7D6F906460AF02DFF0028FBD0236861
:104CA000B3F5805F04DA184631460BF01BF8236831
:104CB0003F4A404E10680433236004F05BFB01223E
:104CC0003D492868FDF7CAF93C4B186808F018FE02
:104CD00001223B492868FDF7C1F93A4B1868FDF7F6
:104CE000DDFD394B186809F0CBF9384B186805F031
:104CF000D3FB306809F012FE354B186804F0FAFE59
:104D0000344B186805F066FD334B186802F0EAFF73
:104D1000324B186803F0C0FF3368D4F800909B68EA
:104D20008222002B226020DDA9F182060AF0E2FE39
:104D30000028FBD02068B0F5805F31DB04304FF4F1
:104D400080510DF108082060254A00913346404605
:104D5000C8211CF0ADFFC4F800904146286801222C
:104D6000FDF77CF935B0BDE8F0830AF0C3FE0028FA
:104D7000FBD02068B0F5805F02DA00210AF0B2FFB4
:104D8000184F0FCF0DF1080846460FC60FCF0FC6BC
:104D90000FCF0FC63B6826F8023B1B0C3370DAE7D7
:104DA00031460AF09FFF2068C8E700BF7401002069
:104DB0003C010020500100205C86020040010020E0
:104DC00074860200480100204C010020540100209C
:104DD000600100205801002044010020380100201B
:104DE000BC860200888602002DE9F041044682203C
:104DF000B6B020600AF0C0FD0646862020600AF0AA
:104E0000BBFD4D4D8A23074623602868FDF718F93E
:104E100033460190494A0097C82104A81CF048FF76
:104E2000012204A92868FDF719F9721E40F6FE73E5
:104E30009A4200D87FB9424A0097C821334604A855
:104E40001CF036FF04A928680122FDF707F90120AC
:104E500036B0BDE8F0812868FDF7F2F8B8421FD0FF
:104E60002868FDF7EDF8804638461BF057F9002218
:104E7000344B1BF0F3FACDE9020140461BF05EF91A
:104E80000022304B1BF0EAFA2F4ACDE90001C8217D
:104E900004A81CF00DFF012204A92868FDF7DEF824
:104EA0002A4B186804F086FA294B186808F088FC29
:104EB000284B1868FDF72CFD274B186809F0FCF803
:104EC000264B186805F0EAFA254B186809F004FD2E
:104ED000244B186804F000FE234B186805F06CFCA6
:104EE000224B186802F006FF214B186803F0BAFE47
:104EF0002368823BB342AAD0822323600AF0FAFDE2
:104F00000028FBD02068B0F5805F03DA00210AF0AA
:104F1000E9FE2068174A0430206033460090C8211B
:104F200004A81CF0C5FE04A928680122FDF796F824
:104F3000002036B0BDE8F08174010020E886020050
:104F4000C087020000002440308702003C0100209E
:104F500040010020480100204C01002054010020A5
:104F60005001002060010020580100204401002071
:104F7000380100207487020038B503220C4605462C
:104F800008460B491DF08AF960B120460322094901
:104F90001DF084F908B1002038BD2846FFF770FEE7
:104FA000012038BD2846FFF71FFF012038BD00BF94
:104FB0000C88020010880200036870B51446234470
:104FC00040F2FD7293420FDC05460E460AF092FD58
:104FD0000028FBD03046224629680AF045FF2B689E
:104FE0001C442C60012070BD002070BDF8B5036822
:104FF00017463B4440F2FD72934215DC06460D46CF
:105000000AF078FD0028FBD0002FC8BF7F1909DD0A
:10501000346820460AF000FC0134346005F8010BC6
:10502000BD42F5D10120F8BD0020F8BD0AF0ACBBAF
:1050300030B51E4C1E4B43670546CFB020681D4956
:105040000122FDF70BF8EA696B69009203A81A4A7E
:105050004FF496711CF02CFE03A920680122FCF786
:10506000FDFF206815490122FCF7F8FF144B0022D0
:10507000CDE9002303A8134A4FF496711CF018FEE3
:1050800003A920680122FCF7E9FF20680E490122EC
:10509000FCF7E4FF20680D490122FCF7DFFF2068E0
:1050A0000B490122FCF7DAFF4FB030BD740100203C
:1050B0009816FF1F14880200208802003C88020016
:1050C000000004405888020084880200B88802006A
:1050D000D4880200F0B401221349144DC2600A249E
:1050E00000224FF07E570026076106620563C46107
:1050F000C463027042708270826042618261426267
:105100008262C26280F834208263C26580F86420C3
:1051100080F86C204164C164416501668166016765
:105120004167F0BC704700BF9816FF1FA0860100C2
:1051300070B5374D374E0FCDCEB003AC0FC40FCD89
:105140000FC40FCD0FC495E80F0007C4324D24F8EB
:10515000023B03A91B0C306823700122FCF77EFF81
:105160000FCD03AC0FC40FCD0FC40FCD0FC495E806
:10517000030044F8040B012221803068274D03A965
:10518000FCF76CFF03A8612225491CF037FA03A93C
:1051900030680122FCF762FF0FCD03AC0FC40FCDC6
:1051A0000FC40FCD0FC495E80F0007C424F8023BCD
:1051B0001B0C237003A930681A4D0122FCF74EFF27
:1051C000194B1A4A19684B69C969009103A84FF431
:1051D00096711CF06DFD03A930680122FCF73EFFBB
:1051E0000FCD03AC0FC495E80F0007C403A93068C6
:1051F00023800122FCF732FF03A847220C491CF050
:10520000FDF903A930680122FCF728FF4EB070BDFC
:10521000EC880200740100202C890200C889020079
:1052200064890200388A020078010020088A02009E
:10523000588A020000B500239BB08370074A436977
:10524000642101A81CF034FD054B01A91868012256
:10525000FCF704FF1BB05DF804FB00BFA08A02004E
:105260007401002030B504469DB000691AF078FF43
:1052700000221F4B1BF0F2F81BA3D3E900231BF005
:10528000EDF81BF0B9FA19F091F81BF0EFFD194B8E
:10529000E0601B68A36001250023636184F840304F
:1052A00084F8483084F8583084F8503084F86430FA
:1052B00023704EF66022A5702B210F481CF09CFA3B
:1052C000E368206902931AF04BFF0C4ACDE9000114
:1052D00005A85A211CF0ECFC094B2A4605A91868C0
:1052E000FCF7BCFE1DB030BD7B14AE47E17A643FD5
:1052F00000408F40280100209816FF1FC48A02003A
:105300007401002070B50446B6B000692A4E1AF048
:1053100027FF0022294B1BF0A1F825A3D3E9002386
:105320001BF09CF81BF068FA19F040F81BF09EFD8A
:10533000234BE0601B68A36001250023636184F8B0
:10534000403084F8483084F8583084F8503084F87D
:10535000643023704EF66022A5702B2119481CF092
:105360004BFAE368206902931AF0FAFE164ACDE977
:10537000000104A85A211CF09BFC2A4604A93068AD
:10538000FCF76CFE40F253734EF66022E36184F842
:10539000405004A80092C8210C4A1CF089FC2A46FF
:1053A00004A93068FCF75AFE36B070BDAFF3008038
:1053B0007B14AE47E17A643F7401002000408F40C7
:1053C000280100209816FF1FC48A0200EC8A020000
:1053D00090F85820034612B990F8482042B19A78C4
:1053E0002AB90C495A610A689A6001229A7070477A
:1053F00090F86420002AF2D190F85020002AEED1D3
:1054000090F84020002AEAD190F86C20002AE6D1DA
:10541000FFF778BF2801002070B58369591CDEB002
:1054200002463FD0466C10935D017419E0691AF092
:1054300097FECDE90E01A0691AF092FECDE90C01AC
:1054400020691AF08DFECDE90A0160691AF088FE24
:10545000CDE90801E0681AF083FECDE90601A068F5
:105460001AF07EFECDE9040160681AF079FECDE9FC
:10547000020170591BF0CAFA1AF072FE2C4B00227E
:105480001AF0ECFF2B4ACDE9000113A84FF49671F6
:105490001CF00EFC284B13A918680122FCF7DEFD56
:1054A0005EB070BDC0685569234C1AF047FE0022FB
:1054B0001F4B1AF0D3FF2B46CDE900011F4A13A85A
:1054C0004FF496711CF0F4FB13A920680122FCF73D
:1054D000C5FD20681A490122FCF7C0FD2068194962
:1054E0000122FCF7BBFD206817490122FCF7B6FD3D
:1054F000206816490122FCF7B1FD206814490122F9
:10550000FCF7ACFD206813490122FCF7A7FD2068D9
:1055100011490122FCF7A2FD206810490122FCF785
:105520009DFD20680E490122FCF798FD5EB070BD1C
:10553000000059402C8C020074010020188B0200DE
:10554000FC83020010840200508B02008C8B02004E
:10555000BC8B0200D88B0200F48B0200108C02007E
:10556000748502001349144A09681268F8B5436942
:10557000124D8468466C2D6848786F685B01121B79
:10558000F418F250AB68A360676068B9B1F92C00F9
:105590001BF03CFAEE6DE9692A6E6B6EE361E06028
:1055A00026616161A261F8BDB1F98C001BF02EFA91
:1055B000F0E700BF3C010020280100203801002056
:1055C0002DE9F0418369591CADF5047D02466DD08B
:1055D000C66C03EB03139D007419B4F93C3020939F
:1055E000206C1AF0BDFDCDE91E01606A1AF0B8FD0D
:1055F000CDE91C01206A1AF0B3FDCDE91A01E0697A
:105600001AF0AEFDCDE91801606B1AF0A9FDCDE9E5
:105610001601A06B1AF0A4FDCDE91401206B1AF05D
:105620009FFDCDE91201A06A1AF09AFDCDE91001A3
:10563000E06A1AF095FDCDE90E01A0691AF090FD1F
:10564000CDE90C0160691AF08BFDCDE90A012069F2
:105650001AF086FDCDE90801E0681AF081FDCDE978
:105660000601A0681AF07CFDCDE9040160681AF01B
:1056700077FDCDE9020170591BF0C8F91AF070FDF1
:10568000714B00221AF0EAFE704ACDE900014FF496
:10569000AF712CA81CF00CFB6D4B2CA918680122D3
:1056A000FCF7DCFC0DF5047DBDE8F081C0685469B1
:1056B000674DDFF8EC811AF041FD61A3D3E90023C7
:1056C0001AF0A2FD0022634B1AF09EFD2346CDE99D
:1056D0000001614A4FF4AF712CA81CF0E9FA2CA923
:1056E00001222868FCF7BAFCD8F800305B4A93F82E
:1056F00024324FF4AF712CA81CF0DAFA2CA92868D8
:105700000122FCF7ABFCD8F800300DF18C0E03F150
:10571000140403F1340720686168A268E3687646E0
:105720000FC61034BC42B646F5D1206830602598CB
:105730001AF016FDCDE9040124981AF011FDCDE907
:10574000020123981AF00CFD454ACDE900014FF4FF
:10575000AF712CA81CF0ACFA01222CA92868FCF728
:105760007DFC28981AF0FCFCCDE9040127981AF07A
:10577000F7FCCDE9020126981AF0F2FC394ACDE98E
:1057800000014FF4AF712CA81CF092FA01222CA951
:105790002868FCF763FCD8F80030D3F810021AF040
:1057A000DFFC314ACDE900014FF4AF712CA81CF0A9
:1057B0007FFA2CA901222868FCF750FC01222B4912
:1057C0002868FCF74BFC012229492868FCF746FCB5
:1057D000012228492868FCF741FC01222649286853
:1057E000FCF73CFC012225492868FCF737FC012224
:1057F00023492868FCF732FC012222492868FCF77B
:105800002DFC012220492868FCF728FC01221F49B1
:105810002868FCF723FC01221D492868FCF71EFCC0
:1058200001221C492868FCF719FC01221A49286842
:10583000FCF714FC286819490122FCF70FFC31E73A
:105840007B14AE47E17A643F00005940708E02003D
:105850007401002000408F405C8C0200948C020098
:10586000B48C0200D48C0200F48C0200FC83020091
:105870000C8D0200248D0200408D0200608D02001C
:10588000848D0200A08D0200C08D0200E48D020014
:10589000088E0200308E0200508E020074850200D5
:1058A0004001002070B504469CB00069264E1AF0F5
:1058B00057FC0022254B1AF0D1FD21A3D3E9002388
:1058C0001AF0CCFD1AF098FF18F070FD1BF0CEFA1C
:1058D0001F4BE0601B68A36001250023636184F80F
:1058E000403084F8483084F8583084F8503084F8D8
:1058F000643023704EF66022A5702B2115481BF0F2
:105900007BFFE368206902931AF02AFC124ACDE972
:10591000000105A85A211CF0CBF905A92A463068D8
:10592000FCF79CFB40F2723384F848502A463068FA
:10593000E3610A49FCF792FB1CB070BDAFF3008035
:105940007B14AE47E17A643F7401002000408F4031
:10595000280100209816FF1FC48A0200A88E0200AA
:1059600070B504469CB00069254E1AF0F9FB002280
:10597000244B1AF073FD20A3D3E900231AF06EFD27
:105980001AF03AFF18F012FD1BF070FA1E4BE0609F
:105990001B68A36001250023636184F8403084F80C
:1059A000483084F8583084F8503084F864302370DC
:1059B0004EF66022A5702B2114481BF01DFFE368F2
:1059C000206902931AF0CCFB114ACDE9000105A829
:1059D0005A211CF06DF905A92A463068FCF73EFBF8
:1059E00040F2DC5384F858502A463068E361094994
:1059F000FCF734FB1CB070BD7B14AE47E17A643F0A
:105A00007401002000408F40280100209816FF1FDD
:105A1000C48A0200C48E0200F8B5274A4369274CA5
:105A2000C16C256880681268D5F81062D5F8BCE0B2
:105A3000D5F8C07003EB03139B00CC18121ACA50A0
:105A4000D5F8C400D5F8CC20D5F8C810D5F8D0309A
:105A5000C4F804E0A760E0602161D5F80802626143
:105A6000A36131461AF01CFF154B164A1B681268D9
:105A7000D3F800C0D3F808E05768D5F8F011D5F88E
:105A8000F421D5F8F831C4F82CC0C4F834E0A06291
:105A90002262B5F9660063622663A763E1611AF0CA
:105AA0004DFB094B00221AF0AFFB1AF0A5FED5F80A
:105AB0002032A3872064F8BD280100204001002087
:105AC00060010020580100200000B03F2DE9F041A6
:105AD0000B78B8B0202B059105460C4604D114F87C
